:100000000C9434000C94BA020C94EE020C9451003F
:100010000C9451000C9400030C9451000C94670153
:100020000C9451000C9451000C9451000C9451000C
:100030000C9451000C9451000C9423020C94510028
:100040000C9451000C9451000C9451000C945100EC
:100050000C9451000C9451000C9451000C945100DC
:100060000C9451000C94510011241FBECFEFD8E026
:10007000DEBFCDBF14E0A0E0B1E0EEE5F6E102C0E6
:1000800005900D92A231B107D9F714E0A2E1B4E0D6
:1000900001C01D92A834B107E1F70E9428080C9412
:1000A0002D0B0C94000040E050E04817590764F411
:1000B00024E630E00000000021503109211531050F
:1000C000C9F74F5F5F4FF1CF089598E0409887FFE1
:1000D00002C0419A01C04198409A880F9150B1F7EF
:1000E0000895429A43980E946500439A0895429861
:1000F00043980E946500439A0895CF93C82F677074
:10010000862F80640E9477008C2F8068CF910C949A
:100110007700CF93DF9360E080E00E947D00C8EF1E
:10012000D1E080E00E94710021972097D1F7DF9104
:10013000CF910895449A439A449884E690E00E94AF
:100140005300449A81E20E94770082EC0E9477007B
:1001500083E10E94770080E20E94770089E00E949C
:1001600077000E94890088E00E9477008CE00E945E
:10017000770060E080E00E947D0084E690E00C94CF
:1001800053000F931F93CF93DF9395E08902800173
:1001900011240E5D1E4FC0E0D0E0F801EC0FFD1FF2
:1001A000E05AF10980810E9471002196C530D10585
:1001B000A1F780E0DF91CF911F910F910C94710016
:1001C000CF93DF93EC018991882319F00E94C1003D
:1001D000FACFDF91CF9108950F931F93CF93DF93C1
:1001E000CDB7DEB72F970FB6F894DEBF0FBECDBFE9
:1001F0009F938F938CE093E09F938F938E010F5F7B
:100200001F4F1F930F930E945C08C8010E94E000DB
:100210000F900F900F900F900F900F902F960FB69A
:10022000F894DEBF0FBECDBFDF91CF911F910F912C
:10023000089584B18F6D84B987B18F6187B90E94A9
:100240009A008FE08093690083E08DBBEDE6F0E0DB
:1002500080818260808380818062808380818160F0
:100260008083808180618083E8E6F0E08081846023
:10027000808310928000E1E8F0E0808189608083D3
:100280008DE090E09093890080938800E0EBF0E0AF
:100290008081826080838CE78093B300E0E7F0E0A8
:1002A000808182608083E1EBF0E0808182608083E6
:1002B00082E084BD84E085BD82EC87BDEEE6F0E09F
:1002C0008081826080838FB780688FBF08951F927E
:1002D0000F920FB60F9211248F939F9380911D015F
:1002E00018162CF480911D01815080931D0180917E
:1002F0001E0490911F04892B31F080911E0490916F
:100300001F04019719F580911D0181111FC0809173
:100310001904811102C08AE001C08FE080931704A4
:100320008091800090E489278093800080918000F4
:1003300086FF299880911E0490911F040196909346
:100340001F0480931E0483E080931D0180911E048E
:1003500090911F040297A9F480911D01811111C091
:100360008091800080648093800080911E04909131
:100370001F04019690931F0480931E0481E08093D4
:100380001D0180911E0490911F04039789F48091B0
:100390001D0181110DC0809180008F7B80938000B2
:1003A000299810921F0410921E048FEF80931D0154
:1003B0009F918F910F900FBE0F901F9018950E94E4
:1003C0007407882321F084E294E00C94A706089532
:1003D0000F931F93CF93DF93EC01FC01019000205A
:1003E000E9F731970E2F081B10E00117ECF0FE0122
:1003F000E10FF11D17FDFA9580818093240481811E
:10040000809325048281809326048381809327042E
:100410001C5F84E294E00E9417070E94F40581119A
:10042000FCCF0E94FC05E1CF0E9482070E94BF061C
:1004300083EC99E00197F1F700C00000DF91CF91C4
:100440001F910F9108951F920F920FB60F921124D2
:100450008F9380911B0118162CF480911B01815001
:1004600080931B0180911D04813029F480911E012D
:10047000815080931E0180911E0187FF07C08091EB
:100480001D04811103C084E080931E0180911E0130
:1004900081110CC080911D04813041F486E080936D
:1004A0001E018091680084608093680080911C0127
:1004B00018162CF480911C01815080931C018091AE
:1004C0002204813071F480911C04815080931C04BB
:1004D00080911C04811105C08EE180932304109249
:1004E0002204809123041816DCF4809118048230D1
:1004F000B9F480911B01811113C04A9903C0109275
:1005000018040EC08091230481508093230486E058
:1005100080931B0180912204811102C010921D0161
:1005200080911704181604F5809117048A3021F081
:10053000809117048F3009F42E9A8091170481500E
:100540008093170480911904811105C080911704CC
:10055000811101C02E9880911904813029F4809175
:100560001704873009F42E988F910F900FBE0F90CB
:100570001F9018951F920F920FB60F9211248F9310
:1005800080911904811117C080912304181604F575
:1005900080911C0181111CC081E180931C0180911C
:1005A000230481508093230480912204811110C080
:1005B00010921D010DC080911804811109C0809115
:1005C0001C01811105C082E080931C0180931804F6
:1005D0008F910F900FBE0F901F9018951F920F9242
:1005E0000FB60F9211248F9381E08093220488E24A
:1005F00080931C048F910F900FBE0F901F90189541
:100600001F920F920FB60F9211240F931F932F93E7
:100610003F934F935F936F937F938F939F93AF938A
:10062000BF93EF93FF93CF93DF93CDB7DEB72597BB
:10063000DEBFCDBF89B180934604809146048373A9
:10064000833009F03DC080911D04811139C0809133
:1006500068008B7F8093680081E080931D04809107
:100660001F0118160CF0BCC080911F0180558093AB
:100670001F0120911F01822F992787FD90959F933D
:100680002F938FE093E09F938F938E010F5F1F4F07
:100690001F930F930E945C08C8010E94E80180919B
:1006A0001F010F900F900F900F900F900F90181642
:1006B0000CF496C0809112048F5F8093120490C056
:1006C000809146048373823289F580911D048111E3
:1006D0002DC0809168008B7F8093680081E08093BB
:1006E0001D0480911F0118160CF07AC080911F0123
:1006F000885280931F0120911F01822F992787FD27
:1007000090959F932F9383E193E09F938F938E0116
:100710000F5F1F4F1F930F930E945C08C8010E9438
:10072000E80185B190E4892785B937C080914604F6
:1007300083738132C9F580911D04811135C0809188
:1007400068008B7F8093680081E080931D04809116
:100750001F0118160CF044C080911F018451809332
:100760001F0120911F01822F992787FD90959F934C
:100770002F9383E193E09F938F938E010F5F1F4F21
:100780001F930F930E945C08C8010E94E8012F9AF2
:1007900084EF91E00E9453002F980F900F900F90DC
:1007A0000F900F900F901CC08091460484FF16C0DC
:1007B00080911D04811112C0809168008B7F80930D
:1007C000680081E080931D0490911904913019F420
:1007D0001092190405C08093190402C010921D04E0
:1007E00080911F0187FD10921F010F900F900F90B5
:1007F0000F900F90DF91CF91FF91EF91BF91AF914B
:100800009F918F917F916F915F914F913F912F9128
:100810001F910F910F900FBE0F901F901895CF93BF
:1008200060E080E10E947D0086E193E00E94E000AC
:1008300062E084E00E947D0080E293E00E94E0009C
:10084000C6E084E690E00E9453008FE094E00E94AE
:10085000E000C150B1F7CF910C9489000E94980537
:1008600064E082E00E94D60680E091E00E94C50725
:1008700085E091E00E94B5070E94890060E080E079
:100880000E947D000E94890060E080E00E947D005F
:100890008AE293E00E94E000E09BFECF84E690E0D5
:1008A0000E9453000E94890060E080E00E947D0069
:1008B00084E680931F018EE1809323040C948900C9
:1008C00060E080E00E947D008BE091E00E94E0000B
:1008D00060E084E20E947D0080911904813019F467
:1008E00080E493E002C088E493E00E94E00061E0CD
:1008F00080E00E947D008FE493E00E94E000809100
:100900001F01992787FD90950E94EC0080911F019F
:1009100084361CF486E593E002C089E593E00E94EA
:10092000E00062E080E00E947D00809123041816C0
:10093000D4F480912204813019F48BE593E033C024
:10094000809123048A301CF08DE693E002C088E792
:1009500093E00E94E00080912304992787FD909501
:100960000E94EC0022C080912204813031F38091FA
:100970001A01803154F084E893E00E94E0008091F5
:100980001A01815080931A0110C080911A01815080
:1009900080931A0180911A01811103C08EE1809326
:1009A0001A0186E993E00E94E00064E080E00E9482
:1009B0007D0088EA93E00E94E00080910A01992777
:1009C00087FD90950E94EC0080910A0184361CF40A
:1009D00086E593E002C089E593E00C94E0000E9474
:1009E000890063E080E10E947D0080910A01181671
:1009F0001CF08FEA93E002C089EB93E00E94E000D4
:100A000080911A04813051F464E088E00E947D00F6
:100A100083EC93E00E94E00010921A0488EB9BE0C4
:100A20000E9453000E94890060E086E00E947D00E1
:100A300081ED93E00E94E00061E080E00E947D0093
:100A40008CED93E00E94E00062E086E00E947D0071
:100A500080911504992787FD90950E94EC0087EE00
:100A600093E00E94E00080911404992787FD9095FF
:100A70000E94EC0087EE93E00E94E0008091130456
:100A8000992787FD90950E94EC0063E080E00E942A
:100A90007D008BEE93E00E94E00064E086E00E941F
:100AA0007D0080911404992787FD90950E94EC00A9
:100AB00087EE93E00E94E00080911504992787FD5E
:100AC00090950E94EC0087EE93E00E94E0008091F8
:100AD0001204992787FD90950E94EC0080E197E22F
:100AE0000E9453000E94890064E080E00E947D0023
:100AF00086EF93E00E94E000E09BFECF84E690E06A
:100B00000E94530084E680930A019EE1909323049F
:100B100080931F010E9489000C94600481E68093F9
:100B20002404809325048093260480932704089549
:100B30000E94070880E00E940D0881E00C941308D1
:100B4000809147040895FF920F931F93CF93DF93F3
:100B5000082F80E00E941908C7E0D0E0F12C10E0D7
:100B600098010C2E02C0359527950A94E2F720FFD4
:100B700002C081E001C080E00E941F0881E00E9465
:100B80001908FF0C0E942508882319F08F2D816019
:100B9000F82E80E00E941908219710F78F2DDF9121
:100BA000CF911F910F91FF900895CF9380E00E9405
:100BB000130880E60E94A30580E00E94A305C82FC9
:100BC00081E00E9413088C2FCF910895CF9380E08D
:100BD0000E9413088FEF0E94A305C82F81E00E9496
:100BE00013088C2FCF9108950E94E605982F9073DB
:100BF00081E009F080E008950E94E60585FD04C0CB
:100C000084FF04C081E0089580E008958FEF089587
:100C1000CF92DF92FF920F931F93CF93DF931F9298
:100C2000CDB7DEB7F82E8B016C018C2D8F19841790
:100C300058F4F60181916F0149830E94A305F801E0
:100C400081938F014981F1CF0F90DF91CF911F9157
:100C50000F91FF90DF90CF900895CF92DF92FF9297
:100C60000F931F93CF93DF931F92CDB7DEB7F82E6C
:100C70008B016C018C2D8F19841758F4F60181912A
:100C80006F0149830E94A305F80181938F01498177
:100C9000F1CF0F90DF91CF911F910F91FF90DF90D7
:100CA000CF900895EF92FF921F93CF93DF931F92FF
:100CB000CDB7DEB7182F7C018E2D811B861740F42F
:100CC000F70181917F0169830E94A3056981F4CFB7
:100CD0000F90DF91CF911F91FF90EF900895EF92C9
:100CE000FF921F93CF93DF931F92CDB7DEB7182FDC
:100CF0007C018E2D811B861740F4F70181917F01C5
:100D000069830E94A3056981F4CF0F90DF91CF9191
:100D10001F91FF90EF9008951F93CF93DF931F9241
:100D2000CDB7DEB7182F80E069830E941308812FAA
:100D30008F7180620E94A3056981862F0E94A3059E
:100D400081E00F90DF91CF911F910C941308CF9306
:100D5000DF93EC0180E00E94130881E60E94A30566
:100D600040914704BE01CE010E942D0681E00E9401
:100D7000130860E487E0DF91CF910C948C0680E04B
:100D80000E94130882EE0E94A30581E00E941308CE
:100D900060E787E00E948C0680E00E940D086BE00F
:100DA00080E00E948C0681E00C940D08609347045B
:100DB000682F85E00E948C0660E081E10E948C062D
:100DC0006091470482E10E948C0660E083E10E940A
:100DD0008C0660E084E10E948C0660E085E10E9460
:100DE0008C0660E086E10E948C0666E086E00E9448
:100DF0008C0668E080E00E948C0663E081E00E943F
:100E00008C0663E082E00E948C066FE484E00E941E
:100E10008C0660E08CE10E948C060C94BF0660E7B3
:100E200087E00E948C066AE080E00C948C06CF93E9
:100E3000DF93EC0180E00E940D080E940F0780E024
:100E40000E94130881EE0E94A30581E00E9413080E
:100E500080E00E94130880EA0E94A3056091470485
:100E6000CE010E946F0681E00E94130881E0DF91AD
:100E7000CF910C940D0880E00E940D0868E080E09E
:100E80000C948C06EF92FF921F93CF93DF931F92E7
:100E9000CDB7DEB7182F7B0180E049830E9413088D
:100EA000812F8F710E94A3054981B701C7010E945C
:100EB000080681E00F90DF91CF911F91FF90EF9096
:100EC0000C941308CF93DF931F92CDB7DEB741E0A8
:100ED000BE016F5F7F4F87E10E9442078981817069
:100EE0000F90DF91CF9108950E94E60586FD07C01F
:100EF0000E94620791E0882319F090E001C091E020
:100F0000892F0895CF93DF931F92CDB7DEB741E0CD
:100F1000BE016F5F7F4F88E00E94420789818F701A
:100F20000F90DF91CF910895EF92FF921F93CF938F
:100F3000DF931F92CDB7DEB7182F7B0180E0498386
:100F40000E941308812F8F7180620E94A30549813E
:100F5000642FC7010E94520681E00F90DF91CF916C
:100F60001F91FF90EF900C941308CF93DF93EC0147
:100F700080E00E940D0845E0BE018BE00E949407CE
:100F800081E0DF91CF910C940D08CF93DF93EC01BA
:100F900045E0BC018AE00E94940745E0BE0180E183
:100FA000DF91CF910C949407CF93DF93CDB7DEB749
:100FB0002A970FB6F894DEBF0FBECDBF85E0E2E002
:100FC000F3E0DE01169601900D928A95E1F785E037
:100FD000E7E0F3E0DE01119601900D928A95E1F7CA
:100FE0000E94980564E082E00E94D606CE01069633
:100FF0000E94C507CE0101960E94B5072A960FB63A
:10100000F894DEBF0FBECDBFDF91CF910895209A37
:10101000229A259A239A24980895882311F0289AD1
:10102000089528980895882311F02A9A08952A98F7
:101030000895882311F02D9A08952D9808958823F6
:1010400011F02B9A08952B98089583B1807108951B
:101050000E9419010E940F040E942E04C1E0809199
:101060001F0118161CF40E94600407C0809114042C
:101070008F5F809314040E94EF040E948E050E94EB
:10108000DF0180912404813651F380930A01181600
:1010900034F3809115048F5F8093150480912504AB
:1010A000813339F4C0931A04809113048F5F8093C5
:1010B00013040E94EF04D3CFAEE0B0E0E2E6F8E024
:1010C0000C94040B0D891E8986E08C831A83098396
:1010D0008FEF9FE79E838D83AE01475E5F4F6F89E1
:1010E000788DCE0101960E947E08EF81F885E00F91
:1010F000F11F10822E96E4E00C94200BACE0B0E0DF
:10110000E4E8F8E00C94F60A7C016B018A01FC012A
:1011100017821682838181FFBDC1CE0101964C01E9
:10112000F7019381F60193FD859193FF81916F0102
:10113000882309F4ABC1853239F493FD859193FF7F
:1011400081916F01853229F4B70190E00E94660A0F
:10115000E7CF512C312C20E02032A0F48B3269F003
:1011600030F4803259F0833269F420612CC08D3222
:1011700039F0803339F4216026C02260246023C016
:10118000286021C027FD27C030ED380F3A3078F4B1
:1011900026FF06C0FAE05F9E300D1124532E13C0C7
:1011A0008AE0389E300D1124332E20620CC08E321E
:1011B00021F426FD6BC1206406C08C3611F4206832
:1011C00002C0883641F4F60193FD859193FF819129
:1011D0006F018111C1CF982F9F7D9554933028F4D2
:1011E0000C5F1F4FFFE3F9830DC0833631F0833767
:1011F00071F0833509F05BC022C0F80180818983DA
:101200000E5F1F4F44244394512C540115C03801E4
:10121000F2E06F0E711CF801A080B18026FF03C0C0
:10122000652D70E002C06FEF7FEFC5012C870E9433
:101230005B0A2C0183012C852F77222E17C03801E1
:10124000F2E06F0E711CF801A080B18026FF03C090
:10125000652D70E002C06FEF7FEFC5012C870E9403
:10126000500A2C012C852068222E830123FC1BC0F0
:10127000832D90E048165906B0F4B70180E290E063
:101280000E94660A3A94F4CFF50127FC859127FE67
:1012900081915F01B70190E00E94660A31103A9493
:1012A000F1E04F1A51084114510471F7E5C084363A
:1012B00011F0893639F5F80127FF07C06081718187
:1012C000828193810C5F1F4F08C0608171818827E4
:1012D00077FD8095982F0E5F1F4F2F76B22E97FFC8
:1012E00009C090958095709561957F4F8F4F9F4F66
:1012F0002068B22E2AE030E0A4010E94980AA82EAD
:10130000A81844C0853729F42F7EB22E2AE030E099
:1013100025C0F22FF97FBF2E8F36C1F018F4883523
:1013200079F0B4C0803719F0883721F0AFC02F2F83
:101330002061B22EB4FE0DC08B2D8460B82E09C082
:1013400024FF0AC09F2F9660B92E06C028E030E027
:1013500005C020E130E002C020E132E0F801B7FE34
:1013600007C060817181828193810C5F1F4F06C02D
:101370006081718180E090E00E5F1F4FA4010E94A8
:10138000980AA82EA818FB2DFF77BF2EB6FE0BC01B
:101390002B2D2E7FA51450F4B4FE0AC0B2FC08C059
:1013A0002B2D2E7E05C07A2C2B2D03C07A2C01C04C
:1013B000752C24FF0DC0FE01EA0DF11D80818033E4
:1013C00011F4297E09C022FF06C07394739404C0EF
:1013D000822F867809F0739423FD13C020FF06C086
:1013E0005A2C731418F4530C5718732C731468F494
:1013F000B70180E290E02C870E94660A73942C85E6
:10140000F5CF731410F4371801C0312C24FF12C02B
:10141000B70180E390E02C870E94660A2C8522FFAA
:1014200017C021FF03C088E590E002C088E790E084
:10143000B7010CC0822F867859F021FD02C080E2EE
:1014400001C08BE227FD8DE2B70190E00E94660AA1
:10145000A51438F4B70180E390E00E94660A5A941C
:10146000F7CFAA94F401EA0DF11D8081B70190E055
:101470000E94660AA110F5CF332009F451CEB701BE
:1014800080E290E00E94660A3A94F6CFF7018681E6
:10149000978102C08FEF9FEF2C96E2E10C94120B24
:1014A000FC010590615070400110D8F7809590952F
:1014B0008E0F9F1F0895FC01615070400190011034
:1014C000D8F7809590958E0F9F1F08950F931F93C7
:1014D000CF93DF93182F092FEB018B8181FD03C080
:1014E0008FEF9FEF20C082FF10C04E815F812C8163
:1014F0003D81421753077CF4E881F9819F012F5FFA
:101500003F4F39832883108306C0E885F985812FF2
:101510000995892B29F72E813F812F5F3F4F3F830C
:101520002E83812F902FDF91CF911F910F910895DE
:10153000FA01AA27283051F1203181F1E8946F9304
:101540006E7F6E5F7F4F8F4F9F4FAF4FB1E03ED0AA
:10155000B4E03CD0670F781F891F9A1FA11D680F48
:10156000791F8A1F911DA11D6A0F711D811D911D7B
:10157000A11D20D009F468943F912AE0269F1124F0
:101580003019305D3193DEF6CF010895462F477054
:10159000405D4193B3E00FD0C9F7F6CF462F4F70AF
:1015A000405D4A3318F0495D31FD4052419302D00D
:1015B000A9F7EACFB4E0A6959795879577956795B3
:1015C000BA95C9F700976105710508959B01AC01B3
:1015D0000A2E06945795479537952795BA95C9F7DA
:1015E000620F731F841F951FA01D08952F923F92B5
:1015F0004F925F926F927F928F929F92AF92BF9223
:10160000CF92DF92EF92FF920F931F93CF93DF93CE
:10161000CDB7DEB7CA1BDB0B0FB6F894DEBF0FBE2B
:10162000CDBF09942A88398848885F846E847D8478
:101630008C849B84AA84B984C884DF80EE80FD807A
:101640000C811B81AA81B981CE0FD11D0FB6F894F0
:0E165000DEBF0FBECDBFED010895F894FFCFB1
:10165E00D7D7D7D7D7A7A7A7A7A764506564726FA8
:10166E00000000000000000000001E060AFF0664D5
:10167E000A00000000000000005F000000070007E5
:10168E0000147F147F14242A7F2A12231308646205
:10169E0036495522500005030000001C224100006F
:1016AE0041221C0014083E081408083E0808005089
:1016BE0030000008080808080060600000201008CC
:1016CE0004023E5149453E00427F4000426151496D
:1016DE00462141454B311814127F10274545453997
:1016EE003C4A4949300171090503364949493606D4
:1016FE004949291E003636000000563600000814EF
:10170E002241001414141414004122140802015131
:10171E0009063CFA6EFA3C7E1111117E7F49494949
:10172E00363E414141227F4141221C7F4949494178
:10173E007F090909013E4149497A7F0808087F005F
:10174E00417F41002040413F017F081422417F40EC
:10175E004040407F020C027F7F0408107F3E4141D3
:10176E00413E7F090909063E4151215E7F09192933
:10177E0046464949493101017F01013F4040403F02
:10178E001F2040201F3F4038403F6314081463075A
:10179E00087008076151494543007F41410002042A
:1017AE000810200041417F00040201020440404025
:1017BE004040000102040020545454787F484444B1
:1017CE00383844444420384444487F3854545418DC
:1017DE00087E0901020C5252523E7F080404780022
:1017EE00447D40002040443D007F102844000041CD
:1017FE007F40007C041804787C0804047838444444
:10180E0044387C14141408081414187C7C0804043E
:10181E00084854545420043F4440203C4040207C0F
:10182E001C2040201C3C4030403C44281028440CD6
:10183E005050503C4464544C440008364100000063
:10184E007F00000041360800100808100878464155
:10185E004678D7D7D7D7D7E7E7E7E7E72564002558
:10186E006331002563004C415345522054414700DB
:10187E004120696E696369617200446973706172B7
:10188E006520706172612020636F6D656361720007
:10189E005269666C6520200053696E676C65005650
:1018AE006964613A200025200025004120524543FD
:1018BE00415252454741522020202020004D756E46
:1018CE0069636F65733A20004D756E69636F65735A
:1018DE003A20200052454341525245474152202062
:1018EE00202020202000202020202020202020200A
:1018FE0020202020202020004A6F616F3A200059BE
:10190E004F552057494E21210047616D65204F7676
:10191E0065720040204845414453484F54212121CF
:10192E000056207C2044207C20402000505F5F7CAD
:10193E005F5F5F7C5F5F00207C20004A5F5F7C5FA3
:10194E005F5F7C5F5F0044697370617261207061DC
:10195E00726120207265636F6D656361722E2E2E2B
:02196E00000077
:00000001FF
