:100000000C9434000C9421030C94A9030C9451001B
:100010000C9451000C94BB030C9451000C945F01A0
:100020000C9451000C9451000C9451000C9451000C
:100030000C9451000C9451000C941F020C9451002C
:100040000C9451000C9451000C9451000C945100EC
:100050000C9451000C9451000C9451000C945100DC
:100060000C9451000C94510011241FBECFEFD8E026
:10007000DEBFCDBF14E0A0E0B1E0ECE8F8E102C0E3
:1000800005900D92AE35B107D9F714E0AEE5B4E0B6
:1000900001C01D92A239B107E1F70E9439090C9401
:1000A000440C0C94000040E050E04817590764F4F9
:1000B00024E630E00000000021503109211531050F
:1000C000C9F74F5F5F4FF1CF089598E0409887FFE1
:1000D00002C0419A01C04198409A880F9150B1F7EF
:1000E0000895429A43980E946500439A0895429861
:1000F00043980E946500439A0895CF93C82F677074
:10010000862F80640E9477008C2F8068CF910C949A
:100110007700CF93DF9360E080E00E947D00C8EF1E
:10012000D1E080E00E94710021972097D1F7DF9104
:10013000CF910895449A439A449884E690E00E94AF
:100140005300449A81E20E94770082EC0E9477007B
:1001500083E10E94770080E20E94770089E00E949C
:1001600077000E94890088E00E9477008CE00E945E
:10017000770060E080E00E947D0084E690E00C94CF
:1001800053000F931F93CF93DF9395E08902800173
:100190001124015E1E4FC0E0D0E0F801EC0FFD1FFE
:1001A000E05AF10980810E9471002196C530D10585
:1001B000A1F780E0DF91CF911F910F910C94710016
:1001C000CF93DF93EC018991882319F00E94C1003D
:1001D000FACFDF91CF9108950F931F93CF93DF93C1
:1001E000CDB7DEB72F970FB6F894DEBF0FBECDBFE9
:1001F0009F938F9383E193E09F938F938E010F5F83
:100200001F4F1F930F930E947309C8010E94E000C3
:100210000F900F900F900F900F900F902F960FB69A
:10022000F894DEBF0FBECDBFDF91CF911F910F912C
:10023000089584B1826884B987B18F6387B98AB120
:10024000806C8AB90E949A00E9E6F0E080818F60B4
:1002500080838DB383608DBBE8E6F0E080818460AD
:100260008083EDE6F0E080818363808310928000DC
:10027000E1E8F0E08081896080838DE090E09093F8
:10028000890080938800E0EBF0E0808182608083C9
:100290008CE78093B300E0E7F0E0808182608083A8
:1002A00084B5826084BD85B5846085BD82EC87BDE0
:1002B000EEE6F0E0808182608083789408951F925A
:1002C0000F920FB60F9211248F939F9380911B0171
:1002D00018162CF480911B01815080931B01809192
:1002E0006C04882321F080916C048130F9F48091B2
:1002F0001B0181111BC080916104811102C08AE041
:1003000001C08FE0809369048091800090E4892788
:10031000809380008091800086FF299880916C04F2
:100320008F5F80936C0483E080931B0180916C0449
:10033000823089F480911B0181110DC08091800071
:1003400080648093800080916C048F5F80936C0444
:1003500081E080931B0180916C04833079F480915B
:100360001B0181110BC0809180008F7B80938000E6
:10037000299810926C048FEF80931B019F918F91AD
:100380000F900FBE0F901F9018950E94850888232C
:1003900021F08EE694E00C94B8070895EF92FF9256
:1003A0000F931F93CF93DF93EC01FC01019000208A
:1003B000E9F73197E81BF12CE12C0E2F112707FDEF
:1003C0001095F11003C085E091E002C080E091E05B
:1003D0000E94D608EE2DF0E00E171F07DCF0EC0FA0
:1003E000FD1F808180936E04818180936F048281E0
:1003F0008093700483818093710494E0E90E8EE60B
:1004000094E00E9428080E9405078111FCCF0E94F9
:100410000D07E0CF0E9493080E94D00783EC99E07B
:100420000197F1F700C00000F39492E0F912C9CFF0
:10043000DF91CF911F910F91FF90EF9008951F9240
:100440000F920FB60F9211242F933F934F935F9308
:100450006F937F938F939F93AF93BF93EF93FF938C
:1004600080911D01815080931D0180911D0181119A
:1004700006C085B1805885B98AE080931D018091BE
:10048000190118162CF480911901815080931901DB
:1004900080916B04813029F480911C0181508093FC
:1004A0001C0180911C0187FF07C080916B048111A2
:1004B00003C084E080931C0180911C0181110CC059
:1004C00080916B04813041F486E080931C0180911F
:1004D000680084608093680080911A0118162CF4DB
:1004E00080911A01815080931A0180916D048130AE
:1004F00089F480916A04815080936A0480916A042F
:10050000811108C08EE190E090935F0480935E04B7
:1005100010926D0480915E0490915F041816190684
:100520000CF05AC020916004223009F055C020918F
:100530001901211151C04A9903C0109260044CC0A6
:10054000019790935F0480935E0420911E018A308E
:100550009105DCF09F938F93822F992787FD9095CB
:100560009F932F9389E093E09F938F9382E794E08A
:100570009F938F930E9473098DB79EB708960FB60D
:10058000F8949EBF0FBE8DBF1AC09F938F93822F8A
:10059000992787FD90959F932F938FE093E09F93EA
:1005A0008F9382E794E09F938F930E9473098DB796
:1005B0009EB708960FB6F8949EBF0FBE8DBF82E718
:1005C00094E00E94CE0186E08093190180916D0431
:1005D000811102C010921B0180916904181604F564
:1005E000809169048A3021F0809169048F3009F488
:1005F000459A8091690481508093690480916104D7
:10060000811105C080916904811101C045988091D4
:100610006104813029F480916904873009F4459898
:10062000FF91EF91BF91AF919F918F917F916F91CA
:100630005F914F913F912F910F900FBE0F901F90A0
:1006400018951F920F920FB60F9211242F933F937C
:100650004F935F936F937F938F939F93AF93BF93CA
:10066000EF93FF93CF93DF93CDB7DEB72597DEBF30
:10067000CDBF80916D04811154C0809161048111BE
:1006800043C080915E0490915F04181619060CF027
:1006900048C020911A01211144C021E120931A0180
:1006A000019790935F0480935E049E012F5F3F4FFC
:1006B00040911E018A3091055CF09F938F93842FA7
:1006C000992787FD90959F934F9389E093E00AC007
:1006D0009F938F93842F992787FD90959F934F9396
:1006E0008FE093E09F938F933F932F930E94730922
:1006F0000FB6F894DEBF0FBECDBF82E794E00E9434
:10070000CE0110921B010DC080916004811109C0BF
:1007100080911A01811105C082E080931A018093B3
:1007200060040F900F900F900F900F90DF91CF917A
:10073000FF91EF91BF91AF919F918F917F916F91B9
:100740005F914F913F912F910F900FBE0F901F908F
:1007500018951F920F920FB60F9211248F9381E07C
:1007600080936D0488E280936A048F910F900FBE8E
:100770000F901F9018951F920F920FB60F92112491
:100780000F931F932F933F934F935F936F937F9399
:100790008F939F93AF93BF93EF93FF93CF93DF9389
:1007A000CDB7DEB72597DEBFCDBF89B1809390046A
:1007B000809190048372833009F040C080916B0473
:1007C00081113CC0809168008B7F8093680081E03C
:1007D00080936B0420910F0112160CF09EC02055DF
:1007E00020930F0130911E01822F992787FD90954C
:1007F0009F932F93832F992787FD90959F933F93E6
:1008000086E193E09F938F938E010F5F1F4F1F939D
:100810000F930E947309C8010E94CE010FB6F8948D
:10082000DEBF0FBECDBF80910F0118160CF475C04E
:10083000809164048F5F809364046FC08091900402
:100840008372823299F480916B0481110FC0809180
:1008500068008B7F8093680081E080936B04209117
:100860000F0112160CF059C0285217C08091900445
:1008700083728132B1F580916B04811132C0809115
:1008800068008B7F8093680081E080936B042091E7
:100890000F0112160CF041C0245120930F0130912A
:1008A0001E01822F992787FD90959F932F93832F69
:1008B000992787FD90959F933F938DE193E09F93B8
:1008C0008F938E010F5F1F4F1F930F930E94730929
:1008D000C8010E94CE010FB6F894DEBF0FBECDBF97
:1008E0001CC08091900484FF16C080916B0481111C
:1008F00012C0809168008B7F8093680081E08093B4
:100900006B0490916104913019F41092610405C058
:100910008093610402C010926B0480910F0187FDE7
:1009200010920F010F900F900F900F900F90DF918A
:10093000CF91FF91EF91BF91AF919F918F917F9157
:100940006F915F914F913F912F911F910F910F9058
:100950000FBE0F901F901895CF9360E080E10E942A
:100960007D0083E293E00E94E00062E084E00E9468
:100970007D008DE293E00E94E000C6E084E690E016
:100980000E9453008BE594E00E94E000C150B1F753
:10099000CF910C94890081E680936E0480936F045C
:1009A000809370048093710408951F93CF93DF9315
:1009B0000E94A90664E082E00E94E70785E091E0DA
:1009C0000E94D6088AE091E00E94C6080E94890031
:1009D00060E080E00E947D0087E393E00E94E000F9
:1009E00080916E04833339F080916F04843319F061
:1009F0000E94C501F5CF0E94890060E080E00E945E
:100A00007D008CE493E00E94E000E09BFECF84E652
:100A100090E00E94530020911E01822F992787FDAC
:100A200090959F932F9382E693E09F938F9382E715
:100A300094E09F938F930E94730982E794E00E9451
:100A4000CE010E94890060E080E00E947D0088E67F
:100A500093E00E94E0000E94CB040F900F900F9053
:100A60000F900F900F900E94C50180911E019091F0
:100A70006E04981721F080916F048333A1F781E809
:100A800093E00E94E0000E948900809170048093AE
:100A900012018091710480931301C0E012E0DD2700
:100AA000C7FDD095C259DB4F88818A30D1F00E94B2
:100AB00085088823C9F38EE694E00E94B807AEE665
:100AC000B4E0C0E08D918A3051F3E12FFF27E7FDBC
:100AD000F095EE5EFE4F80831F5FCF5FC43091F7CD
:100AE000DECF84E680930F018EE190E090935F0467
:100AF00080935E04DF91CF911F910C94890060E098
:100B000080E00E947D0082E191E00E94E00060E0D0
:100B100084E20E947D0080916104813019F488E8AC
:100B200093E002C080E993E00E94E00061E080E091
:100B30000E947D0087E993E00E94E00080910F0110
:100B4000992787FD90950E94EC0080910F018436D3
:100B50001CF48EE993E002C081EA93E00E94E00079
:100B600062E080E00E947D0080915E0490915F04CD
:100B700018161906BCF420916D04213019F483EA8B
:100B800093E029C00A971CF085EB93E002C080EC4B
:100B900093E00E94E00080915E0490915F040E94C7
:100BA000EC001BC080916D04813049F380911001ED
:100BB000803154F08CEC93E00E94E00080911001B1
:100BC00081508093100109C0815009F48EE1809317
:100BD00010018EED93E00E94E00064E080E00E944E
:100BE0007D0080EF93E00E94E00080911101992741
:100BF00087FD90950E94EC008091110184361CF4D1
:100C00008EE993E002C081EA93E00C94E0000E9438
:100C1000890063E080E10E947D0080911101181637
:100C20001CF08BEF93E002C085E094E00E94E000AE
:100C300080916204813051F464E088E00E947D007C
:100C40008FE094E00E94E0001092620488EB9BE049
:100C50000E9453000E94890060E086E00E947D00AF
:100C60008DE194E00E94E00061E080E00E947D0060
:100C700088E294E00E94E00062E086E00E947D004D
:100C800080916704992787FD90950E94EC0083E38B
:100C900094E00E94E00080916604992787FD90957A
:100CA0000E94EC0083E394E00E94E00080916504E0
:100CB000992787FD90950E94EC0063E080E00E94F8
:100CC0007D0087E394E00E94E00064E086E00E94FB
:100CD0007D0080916604992787FD90950E94EC0025
:100CE00083E394E00E94E00080916704992787FDE8
:100CF00090950E94EC0083E394E00E94E0008091D4
:100D00006404992787FD90950E94EC0080E197E2AA
:100D10000E9453000E94890064E080E00E947D00F0
:100D200082E494E00E94E0004A9BFECF84E690E0DB
:100D30000E94530024E6209311018EE190E09093ED
:100D40005F0480935E0420930F010E9489000C943D
:100D50007F050E94180980E00E941E0981E00C9422
:100D60002409809191040895FF920F931F93CF93CC
:100D7000DF93082F80E00E942A09C7E0D0E0F12C21
:100D800010E098010C2E02C0359527950A94E2F7E1
:100D900020FF02C081E001C080E00E94300981E0B4
:100DA0000E942A09FF0C0E943609882319F08F2D12
:100DB0008160F82E80E00E942A09219710F78F2D7C
:100DC000DF91CF911F910F91FF900895CF9380E015
:100DD0000E94240980E60E94B40680E00E94B406C6
:100DE000C82F81E00E9424098C2FCF910895CF93C2
:100DF00080E00E9424098FEF0E94B406C82F81E092
:100E00000E9424098C2FCF9108950E94F706982FF5
:100E1000907381E009F080E008950E94F70685FD57
:100E200004C084FF04C081E0089580E008958FEF3E
:100E30000895CF92DF92FF920F931F93CF93DF938A
:100E40001F92CDB7DEB7F82E8B016C018C2D8F1958
:100E5000841758F4F60181916F0149830E94B4060A
:100E6000F80181938F014981F1CF0F90DF91CF91EC
:100E70001F910F91FF90DF90CF900895CF92DF9256
:100E8000FF920F931F93CF93DF931F92CDB7DEB7DF
:100E9000F82E8B016C018C2D8F19841758F4F601F4
:100EA00081916F0149830E94B406F80181938F01FB
:100EB0004981F1CF0F90DF91CF911F910F91FF905A
:100EC000DF90CF900895EF92FF921F93CF93DF931F
:100ED0001F92CDB7DEB7182F7C018E2D811B861790
:100EE00040F4F70181917F0169830E94B406698112
:100EF000F4CF0F90DF91CF911F91FF90EF90089565
:100F0000EF92FF921F93CF93DF931F92CDB7DEB77F
:100F1000182F7C018E2D811B861740F4F7018191DB
:100F20007F0169830E94B4066981F4CF0F90DF913D
:100F3000CF911F91FF90EF9008951F93CF93DF9370
:100F40001F92CDB7DEB7182F80E069830E94240975
:100F5000812F8F7180620E94B4066981862F0E9462
:100F6000B40681E00F90DF91CF911F910C9424097A
:100F7000CF93DF93EC0180E00E94240981E60E9478
:100F8000B40640919104BE01CE010E943E0781E06B
:100F90000E94240960E487E0DF91CF910C949D07C3
:100FA00080E00E94240982EE0E94B40681E00E9443
:100FB000240960E787E00E949D0780E00E941E09E7
:100FC0006BE080E00E949D0781E00C941E09609315
:100FD0009104682F85E00E949D0760E081E10E94F6
:100FE0009D076091910482E10E949D0760E083E18A
:100FF0000E949D0760E084E10E949D0760E085E11A
:101000000E949D0760E086E10E949D0766E086E001
:101010000E949D0768E080E00E949D0763E081E0F8
:101020000E949D0763E082E00E949D076FE484E0D8
:101030000E949D0760E08CE10E949D070C94D00700
:1010400060E787E00E949D076AE080E00C949D07BE
:10105000CF93DF93EC0180E00E941E090E942008DC
:1010600080E00E94240981EE0E94B40681E00E9483
:10107000240980E00E94240980EA0E94B40660915D
:101080009104CE010E94800781E00E94240981E042
:10109000DF91CF910C941E0980E00E941E0968E048
:1010A00080E00C949D07EF92FF921F93CF93DF9304
:1010B0001F92CDB7DEB7182F7B0180E049830E94D5
:1010C0002409812F8F710E94B4064981B701C7019D
:1010D0000E94190781E00F90DF91CF911F91FF903F
:1010E000EF900C942409CF93DF931F92CDB7DEB716
:1010F00041E0BE016F5F7F4F87E10E945308898105
:1011000081700F90DF91CF9108950E94F70686FDC0
:1011100007C00E94730891E0882319F090E001C095
:1011200091E0892F0895CF93DF931F92CDB7DEB75B
:1011300041E0BE016F5F7F4F88E00E9453088981C4
:101140008F700F90DF91CF910895EF92FF921F93D0
:10115000CF93DF931F92CDB7DEB7182F7B0180E0CE
:1011600049830E942409812F8F7180620E94B406F6
:101170004981642FC7010E94630781E00F90DF91CE
:10118000CF911F91FF90EF900C942409CF93DF93A0
:10119000EC0180E00E941E0945E0BE018BE00E9448
:1011A000A50881E0DF91CF910C941E09CF93DF93C6
:1011B000EC0145E0BC018AE00E94A50845E0BE01C3
:1011C00080E1DF91CF910C94A508CF93DF93CDB749
:1011D000DEB72A970FB6F894DEBF0FBECDBF85E00D
:1011E000EFEFF2E0DE01169601900D928A95E1F79D
:1011F00085E0E4E0F3E0DE01119601900D928A951E
:10120000E1F70E94A90664E082E00E94E707CE01B0
:1012100006960E94D608CE0101960E94C6082A961C
:101220000FB6F894DEBF0FBECDBFDF91CF9108950A
:10123000209A229A259A239A24980895882311F0B7
:10124000289A089528980895882311F02A9A0895D5
:101250002A980895882311F02D9A08952D980895BD
:10126000882311F02B9A08952B98089583B18071EB
:1012700008950E9419010E94AC040E94D504C1E0A7
:1012800080910F0118161CF40E947F0507C0809101
:1012900066048F5F809366040E9407060E94CB0459
:1012A0000E94C50180916E04813651F390911E0118
:1012B000891731F38091700480931101181604F39B
:1012C000809167048F5F80936704809171048133FC
:1012D00039F4C0936204809165048F5F8093650444
:1012E0000E940706CDCFAEE0B0E0E9E7F9E00C944C
:1012F0001B0C0D891E8986E08C831A8309838FEF6E
:101300009FE79E838D83AE01475E5F4F6F89788D27
:10131000CE0101960E949509EF81F885E00FF11F3B
:1013200010822E96E4E00C94370CACE0B0E0EBE9D0
:10133000F9E00C940D0C7C016B018A01FC01178211
:101340001682838181FFBDC1CE0101964C01F70158
:101350009381F60193FD859193FF81916F0188231D
:1013600009F4ABC1853239F493FD859193FF8191E6
:101370006F01853229F4B70190E00E947D0BE7CF21
:10138000512C312C20E02032A0F48B3269F030F463
:10139000803259F0833269F420612CC08D3239F0EB
:1013A000803339F4216026C02260246023C0286085
:1013B00021C027FD27C030ED380F3A3078F426FFE2
:1013C00006C0FAE05F9E300D1124532E13C08AE050
:1013D000389E300D1124332E20620CC08E3221F441
:1013E00026FD6BC1206406C08C3611F4206802C053
:1013F000883641F4F60193FD859193FF81916F0149
:101400008111C1CF982F9F7D9554933028F40C5FA4
:101410001F4FFFE3F9830DC0833631F0833771F03E
:10142000833509F05BC022C0F801808189830E5F9B
:101430001F4F44244394512C540115C03801F2E04D
:101440006F0E711CF801A080B18026FF03C0652DCE
:1014500070E002C06FEF7FEFC5012C870E94720B16
:101460002C0183012C852F77222E17C03801F2E042
:101470006F0E711CF801A080B18026FF03C0652D9E
:1014800070E002C06FEF7FEFC5012C870E94670BF1
:101490002C012C852068222E830123FC1BC0832D68
:1014A00090E048165906B0F4B70180E290E00E943F
:1014B0007D0B3A94F4CFF50127FC859127FE8191AD
:1014C0005F01B70190E00E947D0B31103A94F1E08A
:1014D0004F1A51084114510471F7E5C0843611F0D8
:1014E000893639F5F80127FF07C060817181828153
:1014F00093810C5F1F4F08C060817181882777FD41
:101500008095982F0E5F1F4F2F76B22E97FF09C040
:1015100090958095709561957F4F8F4F9F4F206874
:10152000B22E2AE030E0A4010E94AF0BA82EA8182A
:1015300044C0853729F42F7EB22E2AE030E025C042
:10154000F22FF97FBF2E8F36C1F018F4883579F06D
:10155000B4C0803719F0883721F0AFC02F2F206139
:10156000B22EB4FE0DC08B2D8460B82E09C024FFAE
:101570000AC09F2F9660B92E06C028E030E005C053
:1015800020E130E002C020E132E0F801B7FE07C000
:1015900060817181828193810C5F1F4F06C06081E1
:1015A000718180E090E00E5F1F4FA4010E94AF0B9D
:1015B000A82EA818FB2DFF77BF2EB6FE0BC02B2D33
:1015C0002E7FA51450F4B4FE0AC0B2FC08C02B2D27
:1015D0002E7E05C07A2C2B2D03C07A2C01C0752CD1
:1015E00024FF0DC0FE01EA0DF11D8081803311F44E
:1015F000297E09C022FF06C07394739404C0822F11
:10160000867809F0739423FD13C020FF06C05A2C7E
:10161000731418F4530C5718732C731468F4B7012F
:1016200080E290E02C870E947D0B73942C85F5CF8F
:10163000731410F4371801C0312C24FF12C0B70105
:1016400080E390E02C870E947D0B2C8522FF17C041
:1016500021FF03C088E590E002C088E790E0B70171
:101660000CC0822F867859F021FD02C080E201C0B3
:101670008BE227FD8DE2B70190E00E947D0BA5145F
:1016800038F4B70180E390E00E947D0B5A94F7CFC5
:10169000AA94F401EA0DF11D8081B70190E00E9447
:1016A0007D0BA110F5CF332009F451CEB70180E2B4
:1016B00090E00E947D0B3A94F6CFF70186819781E6
:1016C00002C08FEF9FEF2C96E2E10C94290CFC01F5
:1016D0000590615070400110D8F7809590958E0F5D
:1016E0009F1F0895FC016150704001900110D8F7D0
:1016F000809590958E0F9F1F08950F931F93CF9302
:10170000DF93182F092FEB018B8181FD03C08FEF31
:101710009FEF20C082FF10C04E815F812C813D81F0
:10172000421753077CF4E881F9819F012F5F3F4FF7
:1017300039832883108306C0E885F985812F0995B0
:10174000892B29F72E813F812F5F3F4F3F832E83C7
:10175000812F902FDF91CF911F910F910895FA0162
:10176000AA27283051F1203181F1E8946F936E7FE0
:101770006E5F7F4F8F4F9F4FAF4FB1E03ED0B4E0D1
:101780003CD0670F781F891F9A1FA11D680F791F12
:101790008A1F911DA11D6A0F711D811D911DA11D23
:1017A00020D009F468943F912AE0269F1124301933
:1017B000305D3193DEF6CF010895462F4770405DCE
:1017C0004193B3E00FD0C9F7F6CF462F4F70405D7D
:1017D0004A3318F0495D31FD4052419302D0A9F7D8
:1017E000EACFB4E0A6959795879577956795BA95D2
:1017F000C9F700976105710508959B01AC010A2E98
:1018000006945795479537952795BA95C9F7620F6E
:10181000731F841F951FA01D08952F923F924F9212
:101820005F926F927F928F929F92AF92BF92CF9270
:10183000DF92EF92FF920F931F93CF93DF93CDB779
:10184000DEB7CA1BDB0B0FB6F894DEBF0FBECDBFF1
:1018500009942A88398848885F846E847D848C84C2
:101860009B84AA84B984C884DF80EE80FD800C81CB
:101870001B81AA81B981CE0FD11D0FB6F894DEBFAE
:0C1880000FBECDBFED010895F894FFCF1E
:10188C00C8C8C8C8C8D7D7D7D7D7A7A7A7A7A7648A
:10189C001E64706564726F0000060AFF060A310050
:1018AC000000000000005F00000007000700147F2C
:1018BC00147F14242A7F2A12231308646236495594
:1018CC0022500005030000001C2241000041221C94
:1018DC000014083E081408083E08080050300000A8
:1018EC000808080808006060000020100804023E88
:1018FC005149453E00427F400042615149462141D9
:10190C00454B311814127F1027454545393C4A493F
:10191C0049300171090503364949493606494929B7
:10192C001E00363600000056360000081422410016
:10193C001414141414004122140802015109063C19
:10194C00FA6EFA3C7E1111117E7F494949363E41AF
:10195C004141227F4141221C7F494949417F09096C
:10196C0009013E4149497A7F0808087F00417F41BF
:10197C00002040413F017F081422417F40404040FD
:10198C007F020C027F7F0408107F3E4141413E7F65
:10199C00090909063E4151215E7F0919294646492C
:1019AC0049493101017F01013F4040403F1F204028
:1019BC00201F3F4038403F63140814630708700829
:1019CC00076151494543007F414100020408102042
:1019DC000041417F000402010204404040404000AD
:1019EC000102040020545454787F4844443838444D
:1019FC00444420384444487F3854545418087E09D1
:101A0C0001020C5252523E7F0804047800447D407F
:101A1C00002040443D007F1028440000417F4000DE
:101A2C007C041804787C0804047838444444387CDA
:101A3C0014141408081414187C7C08040408485462
:101A4C00545420043F4440203C4040207C1C204007
:101A5C00201C3C4030403C44281028440C50505032
:101A6C003C4464544C44000836410000007F0000A4
:101A7C00004136080010080810087846414678D70F
:101A8C00D7D7D7D7E7E7E7E7E72563322564002503
:101A9C0063323025640025633125633100256331C1
:101AAC002563004C41534552205441470041206965
:101ABC006E6963696172004120616775617264616E
:101ACC00722070656C61206261736500446973708B
:101ADC0061726520706172612020636F6D65636156
:101AEC0072002563340D0A00656E766965693134C0
:101AFC002065737065726F20726563656265723103
:101B0C0000706173736569005269666C6520200012
:101B1C0053696E676C6500566964613A2000252034
:101B2C000025004120524543415252454741522025
:101B3C0020202020004D756E69636F65733A20007C
:101B4C004D756E69636F65733A20200052454341B1
:101B5C005252454741522020202020202000202096
:101B6C002020202020202020202020202020200089
:101B7C004F706F6E656E74653A2000594F55205743
:101B8C00494E21210047616D65204F7665720040FA
:101B9C00204845414453484F542121210056207C74
:101BAC002044207C20402000505F5F7C5F5F5F7C86
:101BBC005F5F00207C20004A5F5F7C5F5F5F7C5F23
:101BCC005F004469737061726120706172612020E2
:0E1BDC007265636F6D656361722E2E2E0000C0
:00000001FF
