:100000000C9434000C9451000C9451000C94510049
:100010000C9451000C9451000C9451000C9451001C
:100020000C9451000C9451000C9451000C9451000C
:100030000C9451000C9451000C9451000C945100FC
:100040000C9451000C9451000C94F4020C94510047
:100050000C9451000C9451000C9451000C945100DC
:100060000C9451000C94510011241FBECFEFD8E026
:10007000DEBFCDBF11E0A0E0B1E0EEE4FDE002C0E4
:1000800005900D92AC37B107D9F713E0ACE7B1E0BA
:1000900001C01D92A931B107E1F70E9457060C94E7
:1000A000A5060C9400000E94760380E00E947C0369
:1000B00081E00C94820380917F010895FF920F9359
:1000C0001F93CF93DF93082F80E00E948803C7E03F
:1000D000D0E0F12C10E098010C2E02C03595279548
:1000E0000A94E2F720FF02C081E001C080E00E9494
:1000F0008E0381E00E948803FF0C0E9494038823F2
:1001000011F081E0F82A80E00E948803219718F717
:100110008F2DDF91CF911F910F91FF900895CF9375
:1001200080E00E9482038FEF0E945E00C82F81E072
:100130000E9482038C2FCF9108950E948F0085FD2D
:1001400004C084FF04C081E0089580E008958FEF2B
:1001500008950E948F00982F907381E009F080E04D
:100160000895CF9380E00E94820380E60E945E00A3
:1001700080E00E945E00C82F81E00E9482038C2FE5
:10018000CF910895CF92DF92FF920F931F93CF9359
:10019000DF931F92CDB7DEB7F82E8B01C82ED92E74
:1001A0000AC0F60181916F0149830E945E00F80147
:1001B00081938F0149818C2D8F19841790F30F90B3
:1001C000DF91CF911F910F91FF90DF90CF90089515
:1001D000CF92DF92FF920F931F93CF93DF931F92E3
:1001E000CDB7DEB7F82E8B01C82ED92E0AC0F60186
:1001F00081916F0149830E945E00F80181938F0114
:1002000049818C2D8F19841790F30F90DF91CF9136
:100210001F910F91FF90DF90CF900895EF92FF9282
:100220001F93CF93DF931F92CDB7DEB7182FE82E21
:10023000F92E07C0F70181917F0169830E945E005A
:1002400069818E2D811B8617A8F30F90DF91CF91C6
:100250001F91FF90EF900895EF92FF921F93CF931D
:10026000DF931F92CDB7DEB7182FE82EF92E07C007
:10027000F70181917F0169830E945E0069818E2D63
:10028000811B8617A8F30F90DF91CF911F91FF90EC
:10029000EF9008951F93CF93DF931F92CDB7DEB7F2
:1002A000182F80E069830E948203812F8F71806202
:1002B0000E945E006981862F0E945E0081E00F909F
:1002C000DF91CF911F910C94820380E00E947C0308
:1002D00068E080E00C944A0160E787E00E944A01F0
:1002E0006AE080E00C944A01CF93DF93EC0180E058
:1002F0000E947C030E946C0180E00E94820381EED8
:100300000E945E0081E00E94820380E00E948203DE
:1003100080EA0E945E0060917F01CE010E942C0164
:1003200081E00E94820381E0DF91CF910C947C03F5
:1003300080E00E94820382EE0E945E0081E00E94C3
:10034000820360E787E00E944A0180E00E947C030C
:100350006BE080E00E944A0181E00C947C03CF9323
:10036000DF93EC0180E00E94820381E60E945E0040
:1003700040917F01BE01CE010E94E80081E00E9411
:10038000820360E487E0DF91CF910C944A0160938F
:100390007F01682F85E00E944A0160E081E10E94B0
:1003A0004A0160917F0182E10E944A0160E083E19D
:1003B0000E944A0160E084E10E944A0160E085E118
:1003C0000E944A0160E086E10E944A0166E086E000
:1003D0000E944A0168E080E00E944A0163E081E0F7
:1003E0000E944A0163E082E00E944A016FE484E0D7
:1003F0000E944A0160E08CE10E944A010C9498013D
:10040000EF92FF921F93CF93DF931F92CDB7DEB78A
:10041000182F7B0180E049830E948203812F8F7116
:100420000E945E004981B701C7010E94C20081E0BD
:100430000F90DF91CF911F91FF90EF900C9482036A
:10044000CF93DF931F92CDB7DEB741E0BE016F5F60
:100450007F4F88E00E94000289818F700F90DF91AA
:10046000CF910895CF93DF931F92CDB7DEB741E0D0
:10047000BE016F5F7F4F87E10E940002898181701A
:100480000F90DF91CF9108950E948F0086FD07C0E5
:100490000E94320291E0882319F090E001C091E0BF
:1004A000892F0895EF92FF921F93CF93DF931F92AE
:1004B000CDB7DEB7182F7B0180E049830E9482030D
:1004C000812F8F7180620E945E004981642FC70175
:1004D0000E940E0181E00F90DF91CF911F91FF905C
:1004E000EF900C948203CF93DF93EC0145E0BC01C5
:1004F0008AE00E94520245E0BE0180E1DF91CF9187
:100500000C945202CF93DF93EC0180E00E947C03B5
:1005100045E0BE018BE00E94520281E0DF91CF9165
:100520000C947C03CF93DF93CDB7DEB72A970FB639
:10053000F894DEBF0FBECDBF85E0EAE0F1E0DE015A
:10054000169601900D928A95E1F785E0EFE0F1E0D3
:10055000DE01119601900D928A95E1F70E945300F9
:1005600064E082E00E94C701CE0106960E947302F9
:10057000CE0101960E9482022A960FB6F894DEBF41
:100580000FBECDBFDF91CF9108951092C50089E1D4
:100590008093C40086E08093C200E1ECF0E088E143
:1005A00080838081806880838FB780688FBF089543
:1005B000CF93DF939C01EC0107C04091C00045FF41
:1005C000FCCF49914093C600FC0101900020E9F75F
:1005D0003197E81BF90BAE01421B530BE417F507EB
:1005E00060F7DF91CF9108951F920F920FB60F928F
:1005F00011248F938091C6008093860181E08093BF
:1006000080018F910F900FBE0F901F901895CF9380
:10061000DF93CDB7DEB7C85CD1090FB6F894DEBF63
:100620000FBECDBF80918601813361F4289A64E1C9
:1006300071E0CE0101960E949E06CE0101960E94B5
:10064000D80201C0289810928001C853DF4F0FB61E
:10065000F894DEBF0FBECDBFDF91CF910895EF922A
:10066000FF920F931F93CF93DF9300D000D0CDB7AD
:10067000DEB78C01DC010D900020E9F71197EA2E1E
:10068000E81AF12C24C0F801EF0DF11DF7FCFA95E2
:100690008081898381818A8382818B8383818C831A
:1006A00084E0F80ECE0101960E9474010E94A90018
:1006B0008111FCCF0E949D00811103C086E191E071
:1006C00004C0813021F489E191E00E94D802EF1446
:1006D000D4F60E9498010F900F900F900F90DF9129
:1006E000CF911F910F91FF90EF900895219A229A38
:1006F000259A239A24980895882311F0299A089519
:1007000029980895882311F02A9A08952A9808951F
:10071000882311F02D9A08952D980895882311F0BB
:100720002B9A08952B98089583B180710895E091D4
:100730007D01F0917E01309731F08193F0937E013D
:10074000E0937D010895E0911703F091180330972D
:1007500009F009940895CF93DF93EC0102C00E9441
:10076000970389918111FBCFDF91CF9108952F924B
:100770003F924F925F926F927F928F929F92AF9231
:10078000BF92CF92DF92EF92FF920F931F93CF937E
:10079000DF93CDB7DEB765970FB6F894DEBF0FBE17
:1007A000CDBF8C013B013DE2232ED8018C918823E3
:1007B00009F45AC1853219F00F5F1F4FA5C0F80127
:1007C0003180F0E33F1209C0D80112963C900D5FD2
:1007D0001F4FEE24E394F12C0FC0BDE23B1629F02D
:1007E0000E5F1F4FE12CF12C07C0F80132800D5F26
:1007F0001F4F92E0E92EF12CC12CD12C11C08AE0C0
:100800009601829F6001839FD00C1124C30CD11CE0
:1008100037FCDA9490E3C91AD108D8013D908D01D4
:10082000832D80538A3058F3BCE63B1619F0ECE474
:100830003E1205C06894E2F8D8013D908D01332046
:1008400009F412C1B0E6232DB3150CF420522F3455
:1008500009F460C04CF4233409F448C0243469F02E
:10086000223409F050C053C0253539F0283509F439
:1008700047C0233509F047C003C04AE050E04CC0F0
:100880005301E2E0AE0EB11CD3015C9011969C9135
:10089000252D392FF9014F01821A930A8191811177
:1008A000FACF07C080E29D8B0E94970343019D8988
:1008B00003C0B2E0EB22FF24E114F10441F434015F
:1008C000EFEF6E1A7E0A8C149D0460F34301852DB0
:1008D0000E94AB0306C080E20E949703FFEF8F1ACD
:1008E0009F0A8C149D04B8F335015FCF730122E099
:1008F000E20EF11CD3018C910E949703370155CF72
:1009000040E150E009C0832D0E9497034ECF42E0A2
:1009100050E002C048E050E0E2FE0CC04301B4E009
:100920008B0E911CF301608171818281938124344B
:10093000F9F413C0C30102964C01243441F4D301ED
:100940006D917C91882777FD8095982F06C0F301E3
:100950006081718180E090E00BC097FF09C09095A5
:100960008095709561957F4F8F4F9F4F6894E3F806
:100970009E012F5F3F4F3C8B2B8BA12CB12C2A016A
:10098000612C712C02C0A988BA88A30192010E942F
:100990007C06F62FE62FCA01B901FA303CF0A8E731
:1009A0003A1202C0F7E201C0F7E0EF0FE05DAB8959
:1009B000BC89ED93BC8BAB8BF5013196FA8BE98B3F
:1009C000232B242B252B29F07097E9F68FE0A82EF6
:1009D000B12CE3FE0EC0E1E0F0E0EC0FFD1F298931
:1009E0003A89E20FF31F208295012E5F3F4F3A8B29
:1009F000298BE0FE02C090E301C090E2A988BA888A
:100A000032E0E322FF2406C0892F9D8B0E949703CA
:100A100053019D89E114F10441F435018FEF681A07
:100A2000780AAC14BD0480F3530129893A89215016
:100A300031093A8B298BE1E0F0E0EC0FFD1FE20F6A
:100A4000F31F80810E94970329893A89232B69F734
:100A500006C080E20E9497033FEFA31AB30AAC14CA
:100A6000BD04B8F33401A1CE65960FB6F894DEBF8D
:100A70000FBECDBFDF91CF911F910F91FF90EF90EF
:100A8000DF90CF90BF90AF909F908F907F906F90AE
:100A90005F904F903F902F9008950F931F93CF93A7
:100AA000DF9300911703109118039093180380931C
:100AB0001703EB0102C00E94970389918111FBCFBC
:100AC0001093180300931703DF91CF911F910F919B
:100AD0000895CF93DF93CDB7DEB7FE0135968191B0
:100AE0009191BF010E94B703DF91CF910895CF93F9
:100AF000DF93CDB7DEB78D819E8190937E01809389
:100B00007D01CE010996BC018F8198850E94B703B3
:100B1000E0917D01F0917E01108210927E01109291
:100B20007D01DF91CF9108950F931F93CF93DF93B2
:100B3000CDB7DEB700911703109118038F81988508
:100B40009093180380931703CE010B96BC018985FF
:100B50009A850E94B7031093180300931703DF913F
:100B6000CF911F910F910895AF92BF92CF92DF92D4
:100B7000EF92FF920F931F93CF93DF9300D0CDB7E7
:100B8000DEB759017F936F935F934F9322E631E075
:100B90003F932F9389839A830E9469050F900F904A
:100BA0000F900F900F900F9089819A81023011055C
:100BB000C1F10430110509F44DC00130110509F0EF
:100BC00067C08C01780169E6C62E61E0D62E0DC0A3
:100BD000F70181917F011F928F93DF92CF920E9444
:100BE00069050F900F900F900F90C701801B910B1C
:100BF0008A159B056CF380E20E94970378010AC076
:100C0000F70181917F01982F90529F3508F08EE275
:100C10000E949703C701801B910B8A159B0584F3E3
:100C200037C08C015FE6E52E51E0F52EF80180819A
:100C300091810E5F1F4F9F938F93FF92EF920E94BF
:100C40006905F1E0AF1AB1080F900F900F900F9067
:100C500069F71EC08C0145E7E42E41E0F42EF8014F
:100C600080819181228133810C5F1F4F3F932F93AD
:100C70009F938F93FF92EF920E946905F1E0AF1A64
:100C8000B1080F900F900F900F900F900F9039F7C1
:100C90008AE00F900F90DF91CF911F910F91FF90FD
:100CA000EF90DF90CF90BF90AF900C9497030E948D
:100CB000C5028CE291E00E94D8020E94530064E0D9
:100CC00082E00E94C70185E091E00E94730280E00B
:100CD00091E00E94820262E471E08FE492E00E945F
:100CE0009E0686E491E00E942F0383EC99E0019731
:100CF000F1F700C00000F5CFA1E21A2EAA1BBB1B22
:100D0000FD010DC0AA1FBB1FEE1FFF1FA217B307D7
:100D1000E407F50720F0A21BB30BE40BF50B661FED
:100D2000771F881F991F1A9469F7609570958095B1
:100D300090959B01AC01BD01CF010895FB01DC0141
:0E0D400001900D920020E1F70895F894FFCF86
:100D4E00D7D7D7D7D7E7E7E7E7E7D7D7D7D7D7E7C5
:100D5E00E7E7E7E761006F6B004E524632345F4DB6
:100D6E004553534147455F4C4F5354000D0A3E20A7
:100D7E005458206465766963652072656164790DE7
:100D8E000A00610D0A006A6F686520652071756141
:100D9E007274616665697261206573746120626543
:100DAE006D002530386C5820002025303258002038
:0C0DBE002530345800202530384C5800F7
:00000001FF
