:100000000C9434000C9451000C9451000C94510049
:100010000C9451000C9451000C9451000C9451001C
:100020000C9451000C9451000C9451000C9451000C
:100030000C9451000C9451000C9451000C945100FC
:100040000C9451000C9451000C94E9030C94510051
:100050000C9451000C9451000C9451000C945100DC
:100060000C9451000C94510011241FBECFEFD8E026
:10007000DEBFCDBF11E0A0E0B1E0ECEBFFE002C0DD
:1000800005900D92A038B107D9F711E0A0E8B1E0D2
:1000900001C01D92A03CB107E1F70E94E9040C9455
:1000A000DC070C9400000E94C50280E00E94CB0295
:1000B00081E00C94D102809183010895FF920F9307
:1000C0001F93CF93DF93082F80E00E94D702C7E0F1
:1000D000D0E0F12C10E098010C2E02C03595279548
:1000E0000A94E2F720FF02C081E001C080E00E9494
:1000F000DD0281E00E94D702FF0C0E94E302882308
:1001000011F081E0F82A80E00E94D702219718F7C9
:100110008F2DDF91CF911F910F91FF900895CF9375
:1001200080E00E94D1028FEF0E945E00C82F81E024
:100130000E94D1028C2FCF9108950E948F0085FDDF
:1001400004C084FF04C081E0089580E008958FEF2B
:1001500008950E948F00982F907381E009F080E04D
:100160000895CF9380E00E94D10280E60E945E0055
:1001700080E00E945E00C82F81E00E94D1028C2F97
:10018000CF910895CF92DF92FF920F931F93CF9359
:10019000DF931F92CDB7DEB7F82E8B01C82ED92E74
:1001A0000AC0F60181916F0149830E945E00F80147
:1001B00081938F0149818C2D8F19841790F30F90B3
:1001C000DF91CF911F910F91FF90DF90CF90089515
:1001D000CF92DF92FF920F931F93CF93DF931F92E3
:1001E000CDB7DEB7F82E8B01C82ED92E0AC0F60186
:1001F00081916F0149830E945E00F80181938F0114
:1002000049818C2D8F19841790F30F90DF91CF9136
:100210001F910F91FF90DF90CF900895EF92FF9282
:100220001F93CF93DF931F92CDB7DEB7182FE82E21
:10023000F92E07C0F70181917F0169830E945E005A
:1002400069818E2D811B8617A8F30F90DF91CF91C6
:100250001F91FF90EF900895EF92FF921F93CF931D
:10026000DF931F92CDB7DEB7182FE82EF92E07C007
:10027000F70181917F0169830E945E0069818E2D63
:10028000811B8617A8F30F90DF91CF911F91FF90EC
:10029000EF9008951F93CF93DF931F92CDB7DEB7F2
:1002A000182F80E069830E94D102812F8F718062B4
:1002B0000E945E006981862F0E945E0081E00F909F
:1002C000DF91CF911F910C94D10280E00E94CB026C
:1002D00068E080E00C944A0160E787E00E944A01F0
:1002E0006AE080E00C944A01CF93DF93EC0180E058
:1002F0000E94CB020E946C0180E00E94D10281EE3C
:100300000E945E0081E00E94D10280E00E94D10242
:1003100080EA0E945E0060918301CE010E942C0160
:1003200081E00E94D10281E0DF91CF910C94CB0259
:1003300080E00E94D10282EE0E945E0081E00E9475
:10034000D10260E787E00E944A0180E00E94CB0270
:100350006BE080E00E944A0181E00C94CB02CF93D5
:10036000DF93EC0180E00E94D10281E60E945E00F2
:1003700040918301BE01CE010E94E80081E00E940D
:10038000D10260E487E0DF91CF910C944A01609341
:100390008301682F85E00E944A0160E081E10E94AC
:1003A0004A016091830182E10E944A0160E083E199
:1003B0000E944A0160E084E10E944A0160E085E118
:1003C0000E944A0160E086E10E944A0166E086E000
:1003D0000E944A0168E080E00E944A0163E081E0F7
:1003E0000E944A0163E082E00E944A016FE484E0D7
:1003F0000E944A0160E08CE10E944A010C9498013D
:10040000EF92FF921F93CF93DF931F92CDB7DEB78A
:10041000182F7B0180E049830E94D102812F8F71C8
:100420000E945E004981B701C7010E94C20081E0BD
:100430000F90DF91CF911F91FF90EF900C94D1021C
:10044000CF93DF931F92CDB7DEB741E0BE016F5F60
:100450007F4F88E00E94000289818F700F90DF91AA
:10046000CF910895CF93DF931F92CDB7DEB741E0D0
:10047000BE016F5F7F4F87E10E940002898181701A
:100480000F90DF91CF9108950E948F0086FD07C0E5
:100490000E94320291E0882319F090E001C091E0BF
:1004A000892F0895EF92FF921F93CF93DF931F92AE
:1004B000CDB7DEB7182F7B0180E049830E94D102BF
:1004C000812F8F7180620E945E004981642FC70175
:1004D0000E940E0181E00F90DF91CF911F91FF905C
:1004E000EF900C94D102CF93DF93EC0145E0BC0177
:1004F0008AE00E94520245E0BE0180E1DF91CF9187
:100500000C945202CF93DF93EC0180E00E94CB0267
:1005100045E0BE018BE00E94520281E0DF91CF9165
:100520000C94CB02CF93DF93CDB7DEB72A970FB6EB
:10053000F894DEBF0FBECDBF85E0EAE0F1E0DE015A
:10054000169601900D928A95E1F785E0EFE0F1E0D3
:10055000DE01119601900D928A95E1F70E945300F9
:1005600064E082E00E94C701CE0106960E947302F9
:10057000CE0101960E9482022A960FB6F894DEBF41
:100580000FBECDBFDF91CF910895219A229A259A6F
:10059000239A24980895882311F0299A0895299878
:1005A0000895882311F02A9A08952A980895882397
:1005B00011F02D9A08952D980895882311F02B9A03
:1005C00008952B98089583B180710895209A109210
:1005D000C50089E18093C40086E08093C200E1EC0D
:1005E000F0E088E180838081806880838FB78068B5
:1005F0008FBF08950E944402882321F083E991E08F
:100600000C94AF010895CF93DF939C01EC0107C0D8
:100610004091C00045FFFCCF49914093C600FC01CA
:1006200001900020E9F73197E81BF90BAE01421B5E
:10063000530BE417F50760F7DF91CF9108950F93FF
:100640001F93CF93DF93EC01E82FFD2FDF010D9077
:100650000020E9F711970A2F081B10E01CC0FE01CB
:10066000E10FF11D17FDFA9580818093930181813F
:100670008093940182818093950183818093960178
:100680001C5F83E991E00E9474010E94A90081111E
:10069000FCCF0E949D00101714F30E942002282F07
:1006A000332727FD30953F938F9384E191E09F930B
:1006B0008F9388E991E09F938F930E9404050E9495
:1006C000980183EC99E00197F1F700C000000F90CA
:1006D0000F900F900F900F900F9080E391E0DF91BB
:1006E000CF911F910F910C9403030F931F93CF93FE
:1006F000DF93CDB7DEB72A970FB6F894DEBF0FBEF3
:10070000CDBFFC012081213321F0223309F056C0F6
:100710003CC08FE391E00E941F030E94FA02809187
:1007200093018133D1F7909194019433D1F41F92C6
:100730002CE32F931F929F931F928F938DE491E050
:100740009F938F938E010F5F1F4F1F930F930E94F4
:100750000405C8010E9403030FB6F894DEBF0FBE64
:10076000CDBFA3E9B1E0CE01019601C01D92FC010D
:1007700001900020E9F73197E81BF90B9D012359FF
:1007800031402E173F0790F319C021E025B901969B
:100790009F938F9384E491E09F938F938E010F5FDB
:1007A0001F4F1F930F930E940405C8010E941F034F
:1007B0000F900F900F900F900F900F902A960FB6FA
:1007C000F894DEBF0FBECDBFDF91CF911F910F9187
:1007D00008951F920F920FB60F9211242F933F93FB
:1007E0004F935F936F937F938F939F93AF93BF9339
:1007F000EF93FF93E09181018091C600FF27E7FD11
:10080000F095EC57FE4F8083E0918101FF27E7FDD3
:10081000F095EC57FE4F80818A3049F410928101A7
:1008200084E891E00E9475031092840105C08091D4
:1008300081018F5F80938101FF91EF91BF91AF9113
:100840009F918F917F916F915F914F913F912F91E8
:100850000F900FBE0F901F90189580E38093930127
:1008600080939401809395018093960108950F934E
:100870001F93CF93DF93CDB7DEB72A970FB6F894C7
:10088000DEBF0FBECDBF0E942D0402C00E94FA023F
:10089000809193018033D1F3813321F0823309F0C9
:1008A0008DC04EC020919401213319F51F928CE325
:1008B0008F9330919601832F992787FD90959F9371
:1008C0003F9330919501832F992787FD90959F93B2
:1008D0003F931F922F931F922F9389E491E09F9350
:1008E0008F938E010F5F1F4F1F930F930E9404057C
:1008F0001EC0223309F062C020919601822F9927F1
:1009000087FD90959F932F9320919501822F992792
:1009100087FD90959F932F9384E591E09F938F930C
:100920008E010F5F1F4F1F930F930E940405C80194
:100930000E9403030FB6F894DEBF0FBECDBF3EC0CA
:1009400080919401813399F420919601822F992707
:1009500087FD90959F932F9320919501822F992742
:1009600087FD90959F932F9380E691E014C082338A
:1009700019F520919601822F992787FD90959F93D5
:100980002F9320919501822F992787FD90959F9312
:100990002F9384E591E09F938F938E010F5F1F4FFC
:1009A0001F930F930E940405C8010E9403030FB612
:1009B000F894DEBF0FBECDBF0E942D042A960FB65D
:1009C000F894DEBF0FBECDBFDF91CF911F910F9185
:1009D00008950E94E6020E94530064E082E00E94B3
:1009E000C7011092840180E091E00E94730285E0CB
:1009F00091E00E94820280E791E00E9403030E943E
:100A00002D040E943704FDCFA0E1B0E0EAE0F5E05C
:100A10000C94B3070F89188D86E08C831A830983A1
:100A20008FEF9FE79E838D83AE01455E5F4F588BAE
:100A30004F87698D7A8DCE0101960E942805EF813E
:100A4000F885E00FF11F10826096E4E00C94CF0768
:100A5000ACE0B0E0EEE2F5E00C94A5077C016B01A0
:100A60008A01FC0117821682838181FFC7C1882415
:100A70008394912C8C0E9D1EF7019381F60193FDBA
:100A8000859193FF81916F01882309F4B3C1853269
:100A900039F493FD859193FF81916F01853229F49B
:100AA000B70190E00E941B07E7CF712C312C20E0AA
:100AB0002032A8F48B3261F028F4803251F0833276
:100AC00071F40BC08D3239F0803349F4216028C0B5
:100AD0002260246025C0286023C0206121C027FD3A
:100AE00027C0382F30533A3078F426FF06C0FAE09A
:100AF0007F9E300D1124732E13C08AE0389E300D76
:100B00001124332E20620CC08E3221F426FD72C1D6
:100B1000206406C08C3611F4206802C0883641F487
:100B2000F60193FD859193FF81916F018111C0CFF3
:100B3000982F9554933018F09052933028F40C5F0E
:100B40001F4FFFE3F9830DC0833631F0833771F017
:100B5000833509F05EC023C0F801808189830E5F70
:100B60001F4F66246394712C540115C02801F2E0D4
:100B70004F0E511CF801A080B18026FF03C0672DE5
:100B800070E002C06FEF7FEFC5012C870E94100755
:100B90003C0182012C856FE7262E222218C02801F5
:100BA000F2E04F0E511CF801A080B18026FF03C077
:100BB000672D70E002C06FEF7FEFC5012C870E94A8
:100BC00005073C012C8550E8252E222A820123FCB2
:100BD0001CC006C0B70180E290E00E941B073A9457
:100BE000832D90E068167906A8F30FC0F50127FC65
:100BF000859127FE81915F01B70190E00E941B075C
:100C000031103A94F1E06F1A71086114710471F7B0
:100C1000EEC0843611F0893641F5F80127FF07C090
:100C200060817181828193810C5F1F4F08C0608158
:100C30007181882777FD8095982F0E5F1F4F4FE6B3
:100C4000642E622297FF09C09095809570956195FA
:100C50007F4F8F4F9F4FF0E86F2A2AE030E0A401CA
:100C60000E944707A82EA81844C0853731F43FEEEC
:100C7000B32EB2222AE030E024C099EFB92EB2227E
:100C80008F36B9F020F4883509F0B4C00DC0803734
:100C900021F0883709F0AEC002C020E1B22AB4FECC
:100CA0000BC084E0B82A08C024FF09C0E6E0BE2AD1
:100CB00006C028E030E005C020E130E002C020E1BD
:100CC00032E0F801B7FE07C06081718182819381B3
:100CD0000C5F1F4F06C06081718180E090E00E5F65
:100CE0001F4FA4010E944707A82EA8188FE7682E5F
:100CF0006B2066FE0BC0362D3E7FA71450F464FEB9
:100D00000AC062FC08C0362D3E7E05C0BA2C362DC6
:100D100003C0BA2C01C0B72C34FF0DC0FE01EA0D90
:100D2000F11D8081803311F4397E09C032FF06C085
:100D3000B394B39404C0832F867809F0B39433FD41
:100D400014C030FF0FC07A2CB31460F4730C7B18FE
:100D5000B32C08C0B70180E290E03C870E941B07DB
:100D6000B3943C85B314B0F304C0B31410F43B182F
:100D700001C0312C34FF12C0B70180E390E03C8702
:100D80000E941B073C8532FF1EC031FF03C088E56F
:100D900090E002C088E790E0B7010CC0832F86780E
:100DA00091F031FD02C080E201C08BE237FD8DE29F
:100DB000B70190E00E941B0706C0B70180E390E0F6
:100DC0000E941B077A94A714C0F3AA94F401EA0DB9
:100DD000F11DB701808190E00E941B07A110F5CFA3
:100DE00006C0B70180E290E00E941B073A943110E0
:100DF000F8CF42CEF7012681378102C02FEF3FEFB7
:100E0000C9012C96E2E10C94C107FC0105906150E8
:100E100070400110D8F7809590958E0F9F1F089510
:100E2000FC016150704001900110D8F780959095B9
:100E30008E0F9F1F08950F931F93CF93DF938C0105
:100E4000EB018B8181FD03C00FEF1FEF1AC082FF02
:100E50000DC02E813F818C819D812817390764F454
:100E6000E881F9810193F983E88306C0E885F98573
:100E7000802F0995892B41F78E819F8101969F8351
:100E80008E83C801DF91CF911F910F910895FA01D0
:100E9000AA27283051F1203181F1E8946F936E7FB9
:100EA0006E5F7F4F8F4F9F4FAF4FB1E03ED0B4E0AA
:100EB0003CD0670F781F891F9A1FA11D680F791FEB
:100EC0008A1F911DA11D6A0F711D811D911DA11DFC
:100ED00020D009F468943F912AE0269F112430190C
:100EE000305D3193DEF6CF010895462F4770405DA7
:100EF0004193B3E00FD0C9F7F6CF462F4F70405D56
:100F00004A3318F0495D31FD4052419302D0A9F7B0
:100F1000EACFB4E0A6959795879577956795BA95AA
:100F2000C9F700976105710508959B01AC010A2E70
:100F300006945795479537952795BA95C9F7620F47
:100F4000731F841F951FA01D08952F923F924F92EB
:100F50005F926F927F928F929F92AF92BF92CF9249
:100F6000DF92EF92FF920F931F93CF93DF93CDB752
:100F7000DEB7CA1BDB0B0FB6F894DEBF0FBECDBFCA
:100F800009942A88398848885F846E847D848C849B
:100F90009B84AA84B984C884DF80EE80FD800C81A4
:100FA0001B81AA81B981CE0FD11D0FB6F894DEBF87
:0C0FB0000FBECDBFED010895F894FFCFF7
:100FBC00D7D7D7D7D7A7A7A7A7A7D7D7D7D7D7E795
:100FCC00E7E7E7E73E2052657472616E6D697373F3
:100FDC00696F6E20636F756E743A2025640D0A007C
:100FEC006E7266206120656E766961720D0A00333F
:100FFC00340D0A00313325730025632563256325E1
:10100C00632563007669646120256325630D0A00FE
:10101C006D756E69636F657320256325630D0A001A
:10102C00536574757020636F6E636C7569646F00C3
:00000001FF
