S00D000075736172742E73726563E8
S11300000C9434000C9451000C9451000C94510045
S11300100C9451000C9451000C9451000C94510018
S11300200C9451000C9451000C9451000C94510008
S11300300C9451000C9451000C946F000C945100DA
S11300400C9451000C9451000C9451000C945100E8
S11300500C9451000C9451000C9451000C945100D8
S11300600C9451000C94510011241FBECFEFD8E022
S1130070DEBFCDBF11E0A0E0B1E0EAE9F1E002C0EB
S113008005900D92A830B107D9F721E0A8E0B1E0BE
S113009001C01D92AE31B207E1F70E94AF000C948B
S11300A0CB000C94000083EC84BD95B58CE08927CB
S11300B085BD82EC87BD8FB780688FBFEEE6F0E028
S11300C08081826080831092C50089E18093C4009E
S11300D086E08093C20088E18093C10008951F9256
S11300E00F920FB60F9211248F939F938091080162
S11300F090910901019690930901809308019F91C1
S11301008F910F900FBE0F901F901895CF93DF9390
S1130110EC0120E030E0E0ECF0E046EC50E00AC016
S1130120608165FFFDCFDC016D91CD01DA016C9337
S11301302F5F3F4FDE010D900020E9F71197AC1BB4
S1130140BD0B2A173B0760F3E0ECF0E0808185FFEC
S1130150FDCF8DE28093C600DF91CF9108950E9478
S11301605300C8E080910801909109010A9709F0B1
S1130170FFCF1092090110920801E0E0F1E0AAE03B
S1130180B1E08C2F01900D928A95E1F78AE091E01D
S10D01900E948600E7CFF894FFCF29
S10B019A72706D3D3132350035
S9030000FC
