:100000000C9434000C9489150C9451000C945100FC
:100010000C9451000C9451000C9451000C9451001C
:100020000C9451000C9451000C9451000C9451000C
:100030000C9451000C9451000C9451000C945100FC
:100040000C9451000C9451000C9455160C945100D2
:100050000C9451000C9451000C9451000C945100DC
:100060000C9451000C94510011241FBECFEFD8E026
:10007000DEBFCDBF11E0A8E0B1E001C01D92AF30FE
:10008000B107E1F711E0A0E0B1E0EEEBF9E302C067
:1000900005900D92A830B107D9F70E94CD140C94A9
:1000A000DD1C0C940000CF93DF93CDB7DEB78AE25E
:1000B00090E02AE230E0F90120812260FC012083F7
:1000C00085EC90E0FC01108284EC90E029E1FC01D9
:1000D000208382EC90E026E0FC01208381EC90E01C
:1000E00028E1FC01208381EC90E021EC30E0F90173
:1000F00020812068FC0120838FE590E02FE530E02F
:10010000F90120812068FC012083DF91CF910895BF
:10011000CF93DF931F92CDB7DEB78983000080ECC9
:1001200090E0FC018081882F90E0807299270097F1
:10013000B1F386EC90E02981FC0120830F90DF91E0
:10014000CF910895CF93DF93CDB7DEB7000080EC59
:1001500090E0FC0180818823D4F786EC90E0FC01DC
:100160008081DF91CF910895CF93DF93CDB7DEB734
:1001700084E290E024E230E0F90120812E62FC016B
:1001800020838CE490E02CE430E0F90120812065AC
:10019000FC01208385E290E025E230E0F901208136
:1001A0002460FC01208385E290E025E230E0F90143
:1001B00020812D7FFC012083DF91CF910895CF9383
:1001C000DF931F92CDB7DEB789838EE490E029815B
:1001D000FC01208300008DE490E0FC0180818823F5
:1001E000D4F78EE490E0FC0180810F90DF91CF91F5
:1001F0000895CF93DF93CDB7DEB784E290E024E299
:1002000030E0F90120812160FC012083DF91CF9152
:100210000895CF93DF93CDB7DEB78AE290E02AE26C
:1002200030E0F90120812B7FFC01208389E690E0FA
:1002300029E630E0F90120812260FC01208389E673
:1002400090E029E630E0F90120812E7FFC01208337
:100250008DE390E02DE330E0F90120812160FC0185
:100260002083DF91CF910895CF93DF93CDB7DEB791
:1002700081EC90E021EC30E0F90120812068FC0164
:100280002083DF91CF9108950F931F93CF93DF9336
:10029000CDB7DEB7C156D1090FB6F894DEBF0FBE99
:1002A000CDBF9E012F593F4FF901808380E090E040
:1002B000A0E2B1E489839A83AB83BC832BEA3AEA58
:1002C0004AEA5EE369817A818B819C810E94A81849
:1002D000DC01CB018D839E83AF83B88720E030E0C3
:1002E00040E85FE36D817E818F8198850E948E1A40
:1002F00088231CF481E0898797C020E030E04FE735
:1003000053E46D817E818F8198850E94301A181682
:100310000CF081C020E030E04AE754E469817A8142
:100320008B819C810E948D19DC01CB018A879B8780
:10033000AC87BD8720E030E04AE753E46A857B85DF
:100340008C859D850E94A818DC01CB018E879F8734
:10035000A88BB98B20E030E040E85FE36E857F85B5
:10036000888999890E948E1A88232CF481E090E074
:100370009B8B8A8B42C020E03FEF4FE757E46E85AE
:100380007F85888999890E94301A181664F520E0C3
:1003900030E040E251E46A857B858C859D850E9432
:1003A000A818DC01CB01BC01CD010E94C316DC0101
:1003B000CB019B8B8A8B12C089E190E09D8B8C8B4B
:1003C0008C899D898C01C8010197F1F78C011D8BE7
:1003D0000C8B8A899B8901979B8B8A8B8A899B8945
:1003E000009751F728C06E857F85888999890E947A
:1003F000C316DC01CB019B8B8A8B8A899B899F8BDF
:100400008E8B8E899F898C01F8013197F1F78F01CE
:100410001F8B0E8B10C06D817E818F8198850E940D
:10042000C316DC01CB0189878985888F888D182FB9
:100430001A95F1F7188F85E290E025E230E0F90196
:1004400020812B7FFC01208380E090E0A0E2B1E4DA
:10045000898F9A8FAB8FBC8F2BEA3AEA4AEA5EE328
:10046000698D7A8D8B8D9C8D0E94A818DC01CB0143
:100470008D8F9E8FAF8FB8A320E030E040E85FE320
:100480006D8D7E8D8F8D98A10E948E1A88231CF40D
:1004900081E089A397C020E030E04FE753E46D8D01
:1004A0007E8D8F8D98A10E94301A18160CF081C095
:1004B00020E030E04AE754E4698D7A8D8B8D9C8D85
:1004C0000E948D19DC01CB018AA39BA3ACA3BDA321
:1004D00020E030E04AE753E46AA17BA18CA19DA112
:1004E0000E94A818DC01CB018EA39FA3A8A7B9A7DF
:1004F00020E030E040E85FE36EA17FA188A599A5E8
:100500000E948E1A88232CF481E090E09BA78AA792
:1005100042C020E03FEF4FE757E46EA17FA188A5DE
:1005200099A50E94301A181664F520E030E040E2E8
:1005300051E46AA17BA18CA19DA10E94A818DC01B5
:10054000CB01BC01CD010E94C316DC01CB019BA7EE
:100550008AA712C089E190E09DA78CA78CA59DA5D4
:100560008C01C8010197F1F78C011DA70CA78AA582
:100570009BA501979BA78AA78AA59BA5009751F7E2
:1005800028C06EA17FA188A599A50E94C316DC0191
:10059000CB019BA78AA78AA59BA59FA78EA78EA5FF
:1005A0009FA58C01F8013197F1F78F011FA70EA7C6
:1005B00010C06D8D7E8D8F8D98A10E94C316DC01B9
:1005C000CB0189A389A188AB88A9182F1A95F1F7C7
:1005D00018ABCE018F599F4FFC0180810E94DF0034
:1005E00080E090E0A0E2B1E489AB9AABABABBCABEE
:1005F0002BEA3AEA4AEA5EE369A97AA98BA99CA99F
:100600000E94A818DC01CB018DAB9EABAFABB8AF9D
:1006100020E030E040E85FE36DA97EA98FA998ADA6
:100620000E948E1A88231CF481E089AFDAC020E092
:1006300030E04FE753E46DA97EA98FA998AD0E94E1
:10064000301A18160CF0C4C020E030E04AE754E439
:1006500069A97AA98BA99CA90E948D19DC01CB01FB
:100660008AAF9BAFACAFBDAF8E01025C1F4F20E0E5
:1006700030E04AE753E46AAD7BAD8CAD9DAD0E949E
:10068000A818DC01CB01F80180839183A283B38396
:10069000CE01CE9620E030E040E85FE3FC016081CF
:1006A0007181828193810E948E1A88234CF4CE013D
:1006B0008E5B9F4F21E030E0FC01318320836AC0D4
:1006C000CE01CE9620E03FEF4FE757E4FC0160817A
:1006D0007181828193810E94301A18160CF049C0F2
:1006E00020E030E040E251E46AAD7BAD8CAD9DADE1
:1006F0000E94A818DC01CB018E010E5B1F4FBC01CC
:10070000CD010E94C316DC01CB01F80191838083E7
:1007100027C0CE018C5B9F4F29E130E0FC01318383
:100720002083CE018C5B9F4FFC01808191818C01E5
:10073000C8010197F1F78C01CE018C5B9F4FFC0142
:1007400011830083CE018E5B9F4F9E012E5B3F4F36
:10075000F9012081318121503109FC01318320834D
:10076000CE018E5B9F4FFC0180819181009789F6BD
:100770004BC08E010E5B1F4FCE01CE96FC016081F7
:100780007181828193810E94C316DC01CB01F80143
:1007900091838083CE018A5B9F4F9E012E5B3F4FEA
:1007A000F90120813181FC0131832083CE018A5BF4
:1007B0009F4FFC01808191818C01C8010197F1F765
:1007C0008C01CE018A5B9F4FFC01118300831CC00A
:1007D0006DA97EA98FA998AD0E94C316DC01CB013B
:1007E00089AFCE01885B9F4F29ADFC012083CE01EC
:1007F000885B9F4FFC018081182F1A95F1F7CE017D
:10080000885B9F4FFC0110838FEF0E94DF00282F31
:10081000CE018F599F4FFC0120839E01275B3F4FE4
:1008200080E090E0A0E2B1E4F90180839183A283AB
:10083000B3838E01035B1F4FCE01875B9F4F2BEA73
:100840003AEA4AEA5EE3FC01608171818281938128
:100850000E94A818DC01CB01F80180839183A28358
:10086000B383CE01835B9F4F20E030E040E85FE33D
:10087000FC0160817181828193810E948E1A88239C
:100880003CF4CE018F5A9F4F21E0FC012083F9C038
:10089000CE01835B9F4F20E030E04FE753E4FC0143
:1008A00060817181828193810E94301A18160CF048
:1008B000D7C0CE01875B9F4F20E030E04AE754E489
:1008C000FC0160817181828193810E948D19DC011C
:1008D000CB019E012E5A3F4FF90180839183A28361
:1008E000B3838E010A5A1F4FCE018E5A9F4F20E0CC
:1008F00030E04AE753E4FC01608171818281938199
:100900000E94A818DC01CB01F80180839183A283A7
:10091000B383CE018A5A9F4F20E030E040E85FE386
:10092000FC0160817181828193810E948E1A8823EB
:100930004CF4CE01865A9F4F21E030E0FC01318318
:10094000208370C0CE018A5A9F4F20E03FEF4FE7CF
:1009500057E4FC0160817181828193810E94301A89
:1009600018160CF04DC0CE018E5A9F4F20E030E09B
:1009700040E251E4FC0160817181828193810E9497
:10098000A818DC01CB018E01065A1F4FBC01CD0116
:100990000E94C316DC01CB01F8019183808327C03C
:1009A000CE01845A9F4F29E130E0FC01318320833E
:1009B000CE01845A9F4FFC01808191818C01C80136
:1009C0000197F1F78C01CE01845A9F4FFC011183EE
:1009D0000083CE01865A9F4F9E01265A3F4FF90150
:1009E0002081318121503109FC0131832083CE01E6
:1009F000865A9F4FFC0180819181009789F658C0EB
:100A00008E01065A1F4FCE018A5A9F4FFC0160810A
:100A10007181828193810E94C316DC01CB01F801B0
:100A200091838083CE01825A9F4F9E01265A3F4F69
:100A3000F90120813181FC0131832083CE01825A6A
:100A40009F4FFC01808191818C01C8010197F1F7D2
:100A50008C01CE01825A9F4FFC011183008328C074
:100A60008E010F5A1F4FCE01835B9F4FFC016081A7
:100A70007181828193810E94C316DC01CB01F80150
:100A80008083CE01805A9F4F9E012F5A3F4FF9011C
:100A90002081FC012083CE01805A9F4FFC01808180
:100AA000182F1A95F1F7CE01805A9F4FFC01108341
:100AB00085E290E025E230E0F90120812460FC012C
:100AC0002083CE018F599F4FFC018081CF59DF4F8A
:100AD0000FB6F894DEBF0FBECDBFDF91CF911F914F
:100AE0000F9108950F931F93CF93DF93CDB7DEB788
:100AF000CF57D1090FB6F894DEBF0FBECDBFFE01B0
:100B0000E558FF4F8083CE0184589F4FFC016083DE
:100B1000CE0183589F4FFC0151834083CE01815801
:100B20009F4FFC012083F894CE0185589F4FFC0114
:100B30008081813059F4CE0184589F4F9E01245802
:100B40003F4FF9012081205EFC01208380E090E08E
:100B5000A0E2B1E48B839C83AD83BE832BEA3AEAA7
:100B60004AEA5EE36B817C818D819E810E94A81898
:100B7000DC01CB018F839887A987BA8720E030E01A
:100B800040E85FE36F81788589859A850E948E1A97
:100B900088231CF481E08B8797C020E030E04FE78A
:100BA00053E46F81788589859A850E94301A1816DA
:100BB0000CF081C020E030E04AE754E46B817C8196
:100BC0008D819E810E948D19DC01CB018C879D87D0
:100BD000AE87BF8720E030E04AE753E46C857D852F
:100BE0008E859F850E94A818DC01CB01888B998B8C
:100BF000AA8BBB8B20E030E040E85FE3688979890D
:100C00008A899B890E948E1A88232CF481E090E0C7
:100C10009D8B8C8B42C020E03FEF4FE757E4688903
:100C200079898A899B890E94301A181664F520E018
:100C300030E040E251E46C857D858E859F850E9481
:100C4000A818DC01CB01BC01CD010E94C316DC0158
:100C5000CB019D8B8C8B12C089E190E09F8B8E8B9A
:100C60008E899F898C01C8010197F1F78C011F8B38
:100C70000E8B8C899D8901979D8B8C8B8C899D898E
:100C8000009751F728C0688979898A899B890E94D1
:100C9000C316DC01CB019D8B8C8B8C899D89998F30
:100CA000888F888D998D8C01F8013197F1F78F012C
:100CB000198F088F10C06F81788589859A850E9469
:100CC000C316DC01CB018B878B858A8F8A8D182F09
:100CD0001A95F1F71A8F85E290E025E230E0F901EC
:100CE00020812B7FFC01208380E090E0A0E2B1E432
:100CF0008B8F9C8FAD8FBE8F2BEA3AEA4AEA5EE378
:100D00006B8D7C8D8D8D9E8D0E94A818DC01CB0192
:100D10008F8F98A3A9A3BAA320E030E040E85FE357
:100D20006F8D78A189A19AA10E948E1A88231CF444
:100D300081E08BA397C020E030E04FE753E46F8D54
:100D400078A189A19AA10E94301A18160CF081C0CE
:100D500020E030E04AE754E46B8D7C8D8D8D9E8DD4
:100D60000E948D19DC01CB018CA39DA3AEA3BFA370
:100D700020E030E04AE753E46CA17DA18EA19FA161
:100D80000E94A818DC01CB0188A799A7AAA7BBA736
:100D900020E030E040E85FE368A579A58AA59BA53F
:100DA0000E948E1A88232CF481E090E09DA78CA7E6
:100DB00042C020E03FEF4FE757E468A579A58AA538
:100DC0009BA50E94301A181664F520E030E040E23E
:100DD00051E46CA17DA18EA19FA10E94A818DC0105
:100DE000CB01BC01CD010E94C316DC01CB019DA744
:100DF0008CA712C089E190E09FA78EA78EA59FA522
:100E00008C01C8010197F1F78C011FA70EA78CA5D3
:100E10009DA501979DA78CA78CA59DA5009751F72F
:100E200028C068A579A58AA59BA50E94C316DC01E8
:100E3000CB019DA78CA78CA59DA599AB88AB88A954
:100E400099A98C01F8013197F1F78F0119AB08AB23
:100E500010C06F8D78A189A19AA10E94C316DC01F0
:100E6000CB018BA38BA18AAB8AA9182F1A95F1F716
:100E70001AABCE0184589F4FFC0180810E94DF0095
:100E800080E090E0A0E2B1E48BAB9CABADABBEAB3D
:100E90002BEA3AEA4AEA5EE36BA97CA98DA99EA9EE
:100EA0000E94A818DC01CB018FAB98AFA9AFBAAFF5
:100EB00020E030E040E85FE36FA978AD89AD9AADFE
:100EC0000E948E1A88231CF481E08BAFDDC020E0E5
:100ED00030E04FE753E46FA978AD89AD9AAD0E9439
:100EE000301A18160CF0C7C020E030E04AE754E48E
:100EF0006BA97CA98DA99EA90E948D19DC01CB014B
:100F00008CAF9DAFAEAFBFAF8E01005C1F4F20E036
:100F100030E04AE753E46CAD7DAD8EAD9FAD0E94ED
:100F2000A818DC01CB01F80180839183A283B383ED
:100F3000CE01805C9F4F20E030E040E85FE3FC01A1
:100F400060817181828193810E948E1A88234CF482
:100F5000CE018C5B9F4F21E030E0FC013183208388
:100F60006CC0CE01805C9F4F20E03FEF4FE757E41D
:100F7000FC0160817181828193810E94301A181670
:100F80000CF049C020E030E040E251E46CAD7DADB2
:100F90008EAD9FAD0E94A818DC01CB018E010C5BC9
:100FA0001F4FBC01CD010E94C316DC01CB01F8012B
:100FB0009183808327C0CE018A5B9F4F29E130E077
:100FC000FC0131832083CE018A5B9F4FFC0180812D
:100FD00091818C01C8010197F1F78C01CE018A5BE8
:100FE0009F4FFC0111830083CE018C5B9F4F9E01BC
:100FF0002C5B3F4FF9012081318121503109FC01E7
:1010000031832083CE018C5B9F4FFC0180819181D5
:10101000009789F64CC08E010C5B1F4FCE01805C9F
:101020009F4FFC0160817181828193810E94C31670
:10103000DC01CB01F80191838083CE01885B9F4F57
:101040009E012C5B3F4FF90120813181FC013183EE
:101050002083CE01885B9F4FFC01808191818C01B0
:10106000C8010197F1F78C01CE01885B9F4FFC010D
:10107000118300831CC06FA978AD89AD9AAD0E9421
:10108000C316DC01CB018BAFCE01865B9F4F2BAD2E
:10109000FC012083CE01865B9F4FFC018081182FCD
:1010A0001A95F1F7CE01865B9F4FFC0110831A82DF
:1010B0001982C5C2CE0185589F4FFC0180818823CB
:1010C00009F05FC1CE0184589F4FFC018081803AB6
:1010D00009F457C18FEF0E94DF00282F89819A8180
:1010E000885F9E4FFC0120839E01255B3F4F80E07F
:1010F00090E0A0E2B1E4F90180839183A283B383FD
:101100008E01015B1F4FCE01855B9F4F2BEA3AEAB0
:101110004AEA5EE3FC0160817181828193810E94D1
:10112000A818DC01CB01F80180839183A283B383EB
:10113000CE01815B9F4F20E030E040E85FE3FC019F
:1011400060817181828193810E948E1A88233CF490
:10115000CE018D5A9F4F21E0FC012083F9C0CE01C2
:10116000815B9F4F20E030E04FE753E4FC0160815A
:101170007181828193810E94301A18160CF0D7C0B9
:10118000CE01855B9F4F20E030E04AE754E4FC014C
:1011900060817181828193810E948D19DC01CB0174
:1011A0009E012C5A3F4FF90180839183A283B38320
:1011B0008E01085A1F4FCE018C5A9F4F20E030E01D
:1011C0004AE753E4FC0160817181828193810E942E
:1011D000A818DC01CB01F80180839183A283B3833B
:1011E000CE01885A9F4F20E030E040E85FE3FC01E9
:1011F00060817181828193810E948E1A88234CF4D0
:10120000CE01845A9F4F21E030E0FC0131832083DE
:1012100070C0CE01885A9F4F20E03FEF4FE757E460
:10122000FC0160817181828193810E94301A1816BD
:101230000CF04DC0CE018C5A9F4F20E030E040E2D0
:1012400051E4FC0160817181828193810E94A81820
:10125000DC01CB018E01045A1F4FBC01CD010E945D
:10126000C316DC01CB01F8019183808327C0CE0136
:10127000825A9F4F29E130E0FC0131832083CE0167
:10128000825A9F4FFC01808191818C01C801019796
:10129000F1F78C01CE01825A9F4FFC01118300832C
:1012A000CE01845A9F4F9E01245A3F4FF90120815D
:1012B000318121503109FC0131832083CE01845AD0
:1012C0009F4FFC0180819181009789F659C08E0162
:1012D000045A1F4FCE01885A9F4FFC0160817181D3
:1012E000828193810E94C316DC01CB01F8019183B6
:1012F0008083CE01805A9F4F9E01245A3F4FF901AF
:1013000020813181FC0131832083CE01805A9F4F9F
:10131000FC01808191818C01C8010197F1F78C015A
:10132000CE01805A9F4FFC011183008383C18E013F
:101330000D5A1F4FCE01815B9F4FFC01608171816F
:10134000828193810E94C316DC01CB01F801808366
:10135000CE018E599F4F9E012D5A3F4FF90120819A
:10136000FC012083CE018E599F4FFC018081182FF4
:101370001A95F1F7CE018E599F4FFC0110835AC187
:1013800059C189819A819E0123583F4FF9012081DB
:101390003181820F931FFC0180810E94DF009E013A
:1013A0002D593F4F80E090E0A0E2B1E4F901808345
:1013B0009183A283B3838E0109591F4FCE018D59AA
:1013C0009F4F2BEA3AEA4AEA5EE3FC0160817181B1
:1013D000828193810E94A818DC01CB01F8018083EF
:1013E0009183A283B383CE0189599F4F20E030E0DF
:1013F00040E85FE3FC0160817181828193810E94FA
:101400008E1A88233CF4CE0185599F4F21E0FC01C0
:101410002083F9C0CE0189599F4F20E030E04FE78B
:1014200053E4FC0160817181828193810E94301AB2
:1014300018160CF0D7C0CE018D599F4F20E030E038
:101440004AE754E4FC0160817181828193810E94AA
:101450008D19DC01CB019E0124593F4FF901808396
:101460009183A283B3838E0100591F4FCE0184590B
:101470009F4F20E030E04AE753E4FC016081718136
:10148000828193810E94A818DC01CB01F80180833E
:101490009183A283B383CE0180599F4F20E030E037
:1014A00040E85FE3FC0160817181828193810E9449
:1014B0008E1A88234CF4CE018C589F4F21E030E0E7
:1014C000FC013183208370C0CE0180599F4F20E002
:1014D0003FEF4FE757E4FC01608171818281938186
:1014E0000E94301A18160CF04DC0CE0184599F4F3F
:1014F00020E030E040E251E4FC01608171818281B2
:1015000093810E94A818DC01CB018E010C581F4F5B
:10151000BC01CD010E94C316DC01CB01F80191830F
:10152000808327C0CE018A589F4F29E130E0FC011B
:1015300031832083CE018A589F4FFC0180819181A5
:101540008C01C8010197F1F78C01CE018A589F4F99
:10155000FC0111830083CE018C589F4F9E012C58B3
:101560003F4FF9012081318121503109FC01318344
:101570002083CE018C589F4FFC0180819181009780
:1015800089F658C08E010C581F4FCE0180599F4FCD
:10159000FC0160817181828193810E94C316DC010C
:1015A000CB01F80191838083CE0188589F4F9E0123
:1015B0002C583F4FF90120813181FC013183208378
:1015C000CE0188589F4FFC01808191818C01C80118
:1015D0000197F1F78C01CE0188589F4FFC011183D0
:1015E000008328C08E0105591F4FCE0189599F4F96
:1015F000FC0160817181828193810E94C316DC01AC
:10160000CB01F8018083CE0186589F4F9E0125595A
:101610003F4FF9012081FC012083CE0186589F4F66
:10162000FC018081182F1A95F1F7CE0186589F4F43
:10163000FC01108389819A8101969A838983CE0166
:1016400081589F4FFC018081282F30E089819A8149
:10165000821793070CF42ECD85E290E025E230E06E
:10166000F90120812460FC012083789488E091E0D6
:10167000C158DF4F0FB6F894DEBF0FBECDBFDF916C
:10168000CF911F910F9108950F931F93CF93DF93E5
:10169000CDB7DEB7A3970FB6F894DEBF0FBECDBFB0
:1016A00080E090E0A8ECB2E48B839C83AD83BE83A2
:1016B00020E030E04AE753E46B817C818D819E819C
:1016C0000E94A818DC01CB018F839887A987BA876D
:1016D00020E030E040E85FE36F81788589859A8576
:1016E0000E948E1A88232CF481E090E09C878B87DF
:1016F00042C020E03FEF4FE757E46F81788589854E
:101700009A850E94301A181664F520E030E040E215
:1017100051E46B817C818D819E810E94A818DC013F
:10172000CB01BC01CD010E94C316DC01CB019C871B
:101730008B8712C089E190E09E878D878D859E857D
:101740008C01C8010197F1F78C011E870D878B85ED
:101750009C8501979C878B878B859C85009751F78B
:1017600017C06F81788589859A850E94C316DC0130
:10177000CB019C878B878B859C85988B8F878F85EA
:1017800098898C01F8013197F1F78F01188B0F8739
:1017900081E08F8FCE014F9621E0AC0161E081E0C6
:1017A0000E9472058FE28F8FCE014F9621E0AC012F
:1017B00064E081E00E94720581E08F8FCE014F9638
:1017C00021E0AC0162E081E00E94720583E08F8F2E
:1017D000CE014F9621E0AC0163E081E00E947205EA
:1017E00081E08F8FCE014F9621E0AC0165E081E072
:1017F0000E94720587E08F8FCE014F9621E0AC01E9
:1018000066E081E00E9472051A8219820FC09E0173
:10181000215E3F4F89819A81820F931F22E1FC0153
:10182000208389819A8101969A83898389819A810B
:101830008530910564F3CE014F9625E0AC016AE056
:1018400081E00E9472051A8219820FC09E01215EFA
:101850003F4F89819A81820F931F22E1FC012083EF
:1018600089819A8101969A83898389819A818530B9
:10187000910564F3CE014F9625E0AC0160E181E073
:101880000E94720583E08F8FCE014F9621E0AC015C
:1018900061E181E00E9472058EE18F8FCE014F964B
:1018A00021E0AC0160E081E00E94720580E090E000
:1018B000A8ECB2E4898B9A8BAB8BBC8B20E030E038
:1018C0004AE753E469897A898B899C890E94A81820
:1018D000DC01CB018D8B9E8BAF8BB88F20E030E08D
:1018E00040E85FE36D897E898F89988D0E948E1A0A
:1018F00088232CF481E090E09A8F898F42C020E009
:101900003FEF4FE757E46D897E898F89988D0E945C
:10191000301A181664F520E030E040E251E469899D
:101920007A898B899C890E94A818DC01CB01BC01B3
:10193000CD010E94C316DC01CB019A8F898F12C0A2
:1019400089E190E09C8F8B8F8B8D9C8D8C01C801E1
:101950000197F1F78C011C8F0B8F898D9A8D019760
:101960009A8F898F898D9A8D009751F717C06D894D
:101970007E898F89988D0E94C316DC01CB019A8FD6
:10198000898F898D9A8D9E8F8D8F8D8D9E8D8C01E7
:10199000F8013197F1F78F011E8F0D8FA3960FB6C7
:1019A000F894DEBF0FBECDBFDF91CF911F910F9195
:1019B00008950F931F93CF93DF93CDB7DEB7A4970E
:1019C0000FB6F894DEBF0FBECDBF8CA380E090E0D1
:1019D000A8ECB2E48B839C83AD83BE8320E030E02F
:1019E0004AE753E46B817C818D819E810E94A81817
:1019F000DC01CB018F839887A987BA8720E030E08C
:101A000040E85FE36F81788589859A850E948E1A08
:101A100088232CF481E090E09C878B8742C020E0F3
:101A20003FEF4FE757E46F81788589859A850E945B
:101A3000301A181664F520E030E040E251E46B8182
:101A40007C818D819E810E94A818DC01CB01BC01A4
:101A5000CD010E94C316DC01CB019C878B8712C08D
:101A600089E190E09E878D878D859E858C01C801D8
:101A70000197F1F78C011E870D878B859C85019757
:101A80009C878B878B859C85009751F717C06F814A
:101A9000788589859A850E94C316DC01CB019C87D5
:101AA0008B878B859C85988B8F878F8598898C01F8
:101AB000F8013197F1F78F01188B0F871A8219827D
:101AC0000FC09E01215E3F4F89819A81820F931F33
:101AD0002CA1FC01208389819A8101969A838983B4
:101AE00089819A818530910564F3CE014F9625E076
:101AF000AC016AE081E00E9472051A8219820FC06F
:101B00009E01215E3F4F89819A81820F931F2CA1F4
:101B1000FC01208389819A8101969A838983898136
:101B20009A818530910564F3CE014F9625E0AC0192
:101B300060E181E00E94720580E090E0A8ECB2E4F0
:101B4000898B9A8BAB8BBC8B20E030E04AE753E467
:101B500069897A898B899C890E94A818DC01CB014C
:101B60008D8B9E8BAF8BB88F20E030E040E85FE339
:101B70006D897E898F89988D0E948E1A88232CF416
:101B800081E090E09A8F898F42C020E03FEF4FE7DD
:101B900057E46D897E898F89988D0E94301A1816B6
:101BA00064F520E030E040E251E469897A898B896C
:101BB0009C890E94A818DC01CB01BC01CD010E94C8
:101BC000C316DC01CB019A8F898F12C089E190E0A6
:101BD0009C8F8B8F8B8D9C8D8C01C8010197F1F7A9
:101BE0008C011C8F0B8F898D9A8D01979A8F898F0D
:101BF000898D9A8D009751F717C06D897E898F89DD
:101C0000988D0E94C316DC01CB019A8F898F898D34
:101C10009A8D9E8F8D8F8D8D9E8D8C01F8013197C1
:101C2000F1F78F011E8F0D8FA4960FB6F894DEBFCB
:101C30000FBECDBFDF91CF911F910F9108950F93EC
:101C40001F93CF93DF93CDB7DEB7C056D1090FB640
:101C5000F894DEBF0FBECDBF80E090E0A0E2B1E41B
:101C600089839A83AB83BC832BEA3AEA4AEA5EE330
:101C700069817A818B819C810E94A818DC01CB014B
:101C80008D839E83AF83B88720E030E040E85FE338
:101C90006D817E818F8198850E948E1A88231CF425
:101CA00081E0898797C020E030E04FE753E46D8101
:101CB0007E818F8198850E94301A18160CF081C0A1
:101CC00020E030E04AE754E469817A818B819C818D
:101CD0000E948D19DC01CB018A879B87AC87BD8769
:101CE00020E030E04AE753E46A857B858C859D855A
:101CF0000E94A818DC01CB018E879F87A88BB98B27
:101D000020E030E040E85FE36E857F85888999892F
:101D10000E948E1A88232CF481E090E09B8B8A8BA2
:101D200042C020E03FEF4FE757E46E857F8588890A
:101D300099890E94301A181664F520E030E040E2DC
:101D400051E46A857B858C859D850E94A818DC01FD
:101D5000CB01BC01CD010E94C316DC01CB019B8BE2
:101D60008A8B12C089E190E09D8B8C8B8C899D8938
:101D70008C01C8010197F1F78C011D8B0C8B8A89AE
:101D80009B8901979B8B8A8B8A899B89009751F746
:101D900028C06E857F85888999890E94C316DC01D9
:101DA000CB019B8B8A8B8A899B899F8B8E8B8E899B
:101DB0009F898C01F8013197F1F78F011F8B0E8BF2
:101DC00010C06D817E818F8198850E94C316DC01D1
:101DD000CB0189878985888F888D182F1A95F1F70F
:101DE000188F85E290E025E230E0F90120812B7F19
:101DF000FC01208380E090E0A0E2B1E4898F9A8F1B
:101E0000AB8FBC8F2BEA3AEA4AEA5EE3698D7A8DA2
:101E10008B8D9C8D0E94A818DC01CB018D8F9E8F2D
:101E2000AF8FB8A320E030E040E85FE36D8D7E8D9A
:101E30008F8D98A10E948E1A88231CF481E089A3BB
:101E400097C020E030E04FE753E46D8D7E8D8F8D9D
:101E500098A10E94301A18160CF081C020E030E0E2
:101E60004AE754E4698D7A8D8B8D9C8D0E948D1983
:101E7000DC01CB018AA39BA3ACA3BDA320E030E08F
:101E80004AE753E46AA17BA18CA19DA10E94A818F6
:101E9000DC01CB018EA39FA3A8A7B9A720E030E067
:101EA00040E85FE36EA17FA188A599A50E948E1AE4
:101EB00088232CF481E090E09BA78AA742C020E011
:101EC0003FEF4FE757E46EA17FA188A599A50E9437
:101ED000301A181664F520E030E040E251E46AA1BF
:101EE0007BA18CA19DA10E94A818DC01CB01BC01A3
:101EF000CD010E94C316DC01CB019BA78AA712C0AB
:101F000089E190E09DA78CA78CA59DA58C01C801B7
:101F10000197F1F78C011DA70CA78AA59BA5019736
:101F20009BA78AA78AA59BA5009751F728C06EA1F9
:101F30007FA188A599A50E94C316DC01CB019BA7B0
:101F40008AA78AA59BA59FA78EA78EA59FA58C0172
:101F5000F8013197F1F78F011FA70EA710C06D8D03
:101F60007E8D8F8D98A10E94C316DC01CB0189A3C1
:101F700089A188AB88A9182F1A95F1F718AB87E2C9
:101F80000E94DF0080E090E0A0E2B1E489AB9AAB70
:101F9000ABABBCAB2BEA3AEA4AEA5EE369A97AA9A1
:101FA0008BA99CA90E94A818DC01CB018DAB9EAB2C
:101FB000AFABB8AF20E030E040E85FE36DA97EA9A9
:101FC0008FA998AD0E948E1A88231CF481E089AFF6
:101FD000DAC020E030E04FE753E46DA97EA98FA975
:101FE00098AD0E94301A18160CF0C4C020E030E002
:101FF0004AE754E469A97AA98BA99CA90E948D1982
:10200000DC01CB018AAF9BAFACAFBDAF8E01025CF0
:102010001F4F20E030E04AE753E46AAD7BAD8CAD62
:102020009DAD0E94A818DC01CB01F801808391834B
:10203000A283B383CE01CE9620E030E040E85FE398
:10204000FC0160817181828193810E948E1A8823B4
:102050004CF4CE018E5B9F4F21E030E0FC013183D8
:1020600020836AC0CE01CE9620E03FEF4FE757E4D1
:10207000FC0160817181828193810E94301A18165F
:102080000CF049C020E030E040E251E46AAD7BADA5
:102090008CAD9DAD0E94A818DC01CB018E010E5BBA
:1020A0001F4FBC01CD010E94C316DC01CB01F8011A
:1020B0009183808327C0CE018C5B9F4F29E130E064
:1020C000FC0131832083CE018C5B9F4FFC0180811A
:1020D00091818C01C8010197F1F78C01CE018C5BD5
:1020E0009F4FFC0111830083CE018E5B9F4F9E01A9
:1020F0002E5B3F4FF9012081318121503109FC01D4
:1021000031832083CE018E5B9F4FFC0180819181C2
:10211000009789F64BC08E010E5B1F4FCE01CE9605
:10212000FC0160817181828193810E94C316DC0170
:10213000CB01F80191838083CE018A5B9F4F9E0182
:102140002E5B3F4FF90120813181FC0131832083D7
:10215000CE018A5B9F4FFC01808191818C01C80177
:102160000197F1F78C01CE018A5B9F4FFC0111832F
:1021700000831CC06DA97EA98FA998AD0E94C316CB
:10218000DC01CB0189AFCE01885B9F4F29ADFC01FB
:102190002083CE01885B9F4FFC018081182F1A9508
:1021A000F1F7CE01885B9F4FFC01108380E70E940E
:1021B000DF009E01275B3F4F80E090E0A0E2B1E4AA
:1021C000F90180839183A283B3838E01035B1F4F48
:1021D000CE01875B9F4F2BEA3AEA4AEA5EE3FC01B5
:1021E00060817181828193810E94A818DC01CB01FA
:1021F000F80180839183A283B383CE01835B9F4FD9
:1022000020E030E040E85FE3FC0160817181828181
:1022100093810E948E1A88233CF4CE018F5A9F4FDF
:1022200021E0FC012083F9C0CE01835B9F4F20E0B9
:1022300030E04FE753E4FC0160817181828193813A
:102240000E94301A18160CF0D7C0CE01875B9F4F42
:1022500020E030E04AE754E4FC0160817181828132
:1022600093810E948D19DC01CB019E012E5A3F4FB4
:10227000F90180839183A283B3838E010A5A1F4F91
:10228000CE018E5A9F4F20E030E04AE753E4FC0134
:1022900060817181828193810E94A818DC01CB0149
:1022A000F80180839183A283B383CE018A5A9F4F22
:1022B00020E030E040E85FE3FC01608171818281D1
:1022C00093810E948E1A88234CF4CE01865A9F4F28
:1022D00021E030E0FC013183208370C0CE018A5AB6
:1022E0009F4F20E03FEF4FE757E4FC016081718191
:1022F000828193810E94301A18160CF04DC0CE01D5
:102300008E5A9F4F20E030E040E251E4FC016081B2
:102310007181828193810E94A818DC01CB018E011A
:10232000065A1F4FBC01CD010E94C316DC01CB0130
:10233000F8019183808327C0CE01845A9F4F29E101
:1023400030E0FC0131832083CE01845A9F4FFC0191
:10235000808191818C01C8010197F1F78C01CE0138
:10236000845A9F4FFC0111830083CE01865A9F4FF0
:102370009E01265A3F4FF9012081318121503109B8
:10238000FC0131832083CE01865A9F4FFC0180815E
:102390009181009789F658C08E01065A1F4FCE01D1
:1023A0008A5A9F4FFC0160817181828193810E94D2
:1023B000C316DC01CB01F80191838083CE01825AE0
:1023C0009F4F9E01265A3F4FF90120813181FC0128
:1023D00031832083CE01825A9F4FFC0180819181FD
:1023E0008C01C8010197F1F78C01CE01825A9F4FF1
:1023F000FC011183008328C08E010F5A1F4FCE01AC
:10240000835B9F4FFC0160817181828193810E9477
:10241000C316DC01CB01F8018083CE01805A9F4FA7
:102420009E012F5A3F4FF9012081FC012083CE01EC
:10243000805A9F4FFC018081182F1A95F1F7CE0129
:10244000805A9F4FFC01108385E290E025E230E046
:10245000F90120812460FC012083C05ADF4F0FB6B0
:10246000F894DEBF0FBECDBFDF91CF911F910F91CA
:1024700008950F931F93CF93DF93CDB7DEB72E97B9
:102480000FB6F894DEBF0FBECDBF789485E290E022
:1024900025E230E0F90120812260FC01208380E008
:1024A00090E0AAE7B4E489839A83AB83BC8320E0FD
:1024B00030E04AE753E469817A818B819C810E94F4
:1024C000A818DC01CB018D839E83AF83B88720E001
:1024D00030E040E85FE36D817E818F8198850E94C6
:1024E0008E1A88232CF481E090E09A87898742C075
:1024F00020E03FEF4FE757E46D817E818F81988523
:102500000E94301A181664F520E030E040E251E4F1
:1025100069817A818B819C810E94A818DC01CB01A2
:10252000BC01CD010E94C316DC01CB019A878987CB
:1025300012C089E190E09C878B878B859C858C01FC
:10254000C8010197F1F78C011C870B8789859A8553
:1025500001979A87898789859A85009751F717C0CF
:102560006D817E818F8198850E94C316DC01CB012D
:102570009A87898789859A859E878D878D859E858F
:102580008C01F8013197F1F78F011E870D8785E2E5
:1025900090E025E230E0F90120812D7FFC012083CD
:1025A000F8942E960FB6F894DEBF0FBECDBFDF9124
:1025B000CF911F910F9108950F931F93CF93DF93A6
:1025C000CDB7DEB7E6970FB6F894DEBF0FBECDBF2E
:1025D0009EAB8DAB8DA99EA920E0AC0161EE80E0A1
:1025E0000E9472058DA99EA923E0AC0160EA80E0FB
:1025F0000E947205789480E090E0A0E2B1E48983C3
:102600009A83AB83BC8320E030E04AE753E46981DE
:102610007A818B819C810E94A818DC01CB018D837B
:102620009E83AF83B88720E030E040E85FE36D81B0
:102630007E818F8198850E948E1A88232CF481E0F8
:1026400090E09A87898742C020E03FEF4FE757E448
:102650006D817E818F8198850E94301A181664F5ED
:1026600020E030E040E251E469817A818B819C81F5
:102670000E94A818DC01CB01BC01CD010E94C31649
:10268000DC01CB019A87898712C089E190E09C87A1
:102690008B878B859C858C01C8010197F1F78C0194
:1026A0001C870B8789859A8501979A8789878985F1
:1026B0009A85009751F717C06D817E818F8198852B
:1026C0000E94C316DC01CB019A87898789859A8588
:1026D0009E878D878D859E858C01F8013197F1F756
:1026E0008F011E870D8785E290E025E230E0F90139
:1026F00020812260FC01208380E090E0A0EAB1E428
:102700008F87988BA98BBA8B2BEA3AEA4AEA5EE369
:102710006F85788989899A890E94A818DC01CB0184
:102720008B8B9C8BAD8BBE8B20E030E040E85FE371
:102730006B897C898D899E890E948E1A88231CF45E
:1027400081E08F8B97C020E030E04FE753E46B8946
:102750007C898D899E890E94301A18160CF081C0E0
:1027600020E030E04AE754E46F85788989899A89C6
:102770000E948D19DC01CB01888F998FAA8FBB8FA6
:1027800020E030E04AE753E4688D798D8A8D9B8D97
:102790000E94A818DC01CB018C8F9D8FAE8FBF8F5C
:1027A00020E030E040E85FE36C8D7D8D8E8D9F8D65
:1027B0000E948E1A88232CF481E090E099A388A3CC
:1027C00042C020E03FEF4FE757E46C8D7D8D8E8D4A
:1027D0009F8D0E94301A181664F520E030E040E228
:1027E00051E4688D798D8A8D9B8D0E94A818DC013B
:1027F000CB01BC01CD010E94C316DC01CB0199A322
:1028000088A312C089E190E09BA38AA38AA19BA11F
:102810008C01C8010197F1F78C011BA30AA388A1C1
:1028200099A1019799A388A388A199A1009751F72D
:1028300028C06C8D7D8D8E8D9F8D0E94C316DC010E
:10284000CB0199A388A388A199A19DA38CA38CA156
:102850009DA18C01F8013197F1F78F011DA30CA305
:1028600010C06B897C898D899E890E94C316DC010A
:10287000CB018F8B8F898EA38EA1182F1A95F1F71C
:102880001EA385E290E025E230E0F90120812D7F52
:10289000FC01208380E090E0A0E2B1E48FA398A740
:1028A000A9A7BAA720E030E04AE753E46FA178A5D2
:1028B00089A59AA50E94A818DC01CB018BA79CA72B
:1028C000ADA7BEA720E030E040E85FE36BA57CA5A4
:1028D0008DA59EA50E948E1A88232CF481E090E09D
:1028E00098AB8FA742C020E03FEF4FE757E46BA5BE
:1028F0007CA58DA59EA50E94301A181664F520E0CF
:1029000030E040E251E46FA178A589A59AA50E9424
:10291000A818DC01CB01BC01CD010E94C316DC016B
:10292000CB0198AB8FA712C089E190E09AAB89AB3D
:1029300089A99AA98C01C8010197F1F78C011AABFA
:1029400009AB8FA598A9019798AB8FA78FA598A9D8
:10295000009751F717C06BA57CA58DA59EA50E9479
:10296000C316DC01CB0198AB8FA78FA598A99CABB0
:102970008BAB8BA99CA98C01F8013197F1F78F01E2
:102980001CAB0BABE6960FB6F894DEBF0FBECDBF07
:10299000DF91CF911F910F9108950F931F93CF93C4
:1029A000DF93CDB7DEB72E970FB6F894DEBF0FBE1C
:1029B000CDBF84E290E024E230E0F9012081216083
:1029C000FC0120830E9453000E94B4000E94F90081
:1029D0000E9409010E9434010E94440B85E290E0AC
:1029E00025E230E0F90120812160FC01208380E0B4
:1029F00090E0AAE7B4E489839A83AB83BC8320E0A8
:102A000030E04AE753E469817A818B819C810E949E
:102A1000A818DC01CB018D839E83AF83B88720E0AB
:102A200030E040E85FE36D817E818F8198850E9470
:102A30008E1A88232CF481E090E09A87898742C01F
:102A400020E03FEF4FE757E46D817E818F819885CD
:102A50000E94301A181664F520E030E040E251E49C
:102A600069817A818B819C810E94A818DC01CB014D
:102A7000BC01CD010E94C316DC01CB019A87898776
:102A800012C089E190E09C878B878B859C858C01A7
:102A9000C8010197F1F78C011C870B8789859A85FE
:102AA00001979A87898789859A85009751F717C07A
:102AB0006D817E818F8198850E94C316DC01CB01D8
:102AC0009A87898789859A859E878D878D859E853A
:102AD0008C01F8013197F1F78F011E870D8785E290
:102AE00090E025E230E0F90120812E7FFC01208377
:102AF00001C0000087E00E9444018E30D1F785E2DA
:102B000090E025E230E0F90120812160FC01208382
:102B1000F0CF1F920F9200905F000F9211240F933D
:102B20001F932F933F934F935F936F937F938F9355
:102B30009F93AF93BF93EF93FF93CF93DF93CDB763
:102B4000DEB72E97DEBFCDBFF89485E290E025E298
:102B500030E0F90120812D7FFC01208385E290E0A7
:102B600025E230E0F90120812160FC01208380E032
:102B700090E0AAEFB3E489839A83AB83BC8320E01F
:102B800030E04AE753E469817A818B819C810E941D
:102B9000A818DC01CB018D839E83AF83B88720E02A
:102BA00030E040E85FE36D817E818F8198850E94EF
:102BB0008E1A88232CF481E090E09A87898742C09E
:102BC00020E03FEF4FE757E46D817E818F8198854C
:102BD0000E94301A181664F520E030E040E251E41B
:102BE00069817A818B819C810E94A818DC01CB01CC
:102BF000BC01CD010E94C316DC01CB019A878987F5
:102C000012C089E190E09C878B878B859C858C0125
:102C1000C8010197F1F78C011C870B8789859A857C
:102C200001979A87898789859A85009751F717C0F8
:102C30006D817E818F8198850E94C316DC01CB0156
:102C40009A87898789859A859E878D878D859E85B8
:102C50008C01F8013197F1F78F011E870D8785E20E
:102C600090E025E230E0F90120812E7FFC012083F5
:102C700078942E960FB6F894DEBF0FBECDBFDF91CD
:102C8000CF91FF91EF91BF91AF919F918F917F91E4
:102C90006F915F914F913F912F911F910F910F90E5
:102CA00000925F000F901F9018951F920F92009056
:102CB0005F000F9211242F933F934F935F936F9375
:102CC0007F938F939F93AF93BF93EF93FF93CF9394
:102CD000DF93CDB7DEB76697DEBFCDBF1A8219820C
:102CE0001CC00E94A200482F9E012D5F3F4F89818A
:102CF0009A81820F931FFC0140839E012D5F3F4FFD
:102D000089819A81820F931FFC0180810E94880033
:102D100089819A8101969A83898389819A818330F6
:102D20009105FCF20E941F0E8B81893359F483E1D7
:102D30000E94D90CCE0103960E94DC1282E10E940F
:102D4000D90C04C0CE0103960E94DC1283E20E94DB
:102D5000880066960FB6F894DEBF0FBECDBFDF9138
:102D6000CF91FF91EF91BF91AF919F918F917F9103
:102D70006F915F914F913F912F910F9000925F0063
:102D80000F901F901895CF92DF92EF92FF920F93C2
:102D90001F936B017C0120E030E040E05FE40E9483
:102DA0005F1A87FD0EC020E030E040E05FE4C7011D
:102DB000B6010E9478180E94BD1A8B019C01305800
:102DC00006C0C701B6010E94BD1A8B019C01B80163
:102DD000C9011F910F91FF90EF90DF90CF90089560
:102DE000A4E0B0E0E6EFF6E10C94A81C7C016A01D7
:102DF000FC018081823008F44AC1FB01908192304D
:102E000008F442C1843079F4943009F040C1F701EC
:102E10009181FB018181981709F439C1A0E0EA2E64
:102E2000A1E0FA2E34C1943009F42EC1923091F40D
:102E3000823009F02CC188E0F701DA0101900D928F
:102E40008A95E1F7FB018181F70191818923FA01DC
:102E500081831CC1823009F417C1F70182819381FB
:102E6000FB01A281B381F70104811581268137819D
:102E7000FB0184809580A680B780FC01EA1BFB0BD8
:102E8000AF01F7FF04C0442755274E1B5F0B4032AC
:102E900051050CF074C01E161F06B4F5240135014F
:102EA000042E04C076946794579447940A94D2F7FA
:102EB00049825A826B827C82412C512C320143948C
:102EC00004C0440C551C661C771C4A95D2F741E09F
:102ED000441A510861087108482059206A207B2053
:102EE000812C912C5401839445284628472819F4B5
:102EF000812C912C540149805A806B807C808428DD
:102F00009528A628B72846C0EF2B09F443C0840FA4
:102F1000951F28013901042E04C0769467945794B4
:102F200047940A94D2F749825A826B827C82412C60
:102F3000512C3201439404C0440C551C661C771C70
:102F40004A95D2F741E0441A5108610871084022BD
:102F500051226222732201E010E020E030E0452897
:102F60004628472819F400E010E0980149805A806B
:102F70006B807C8004291529262937290BC0A817C6
:102F8000B90724F4812C912C540104C0CD0100E038
:102F900010E09801F7014181FB015181451709F4C7
:102FA00046C0442349F024013501401A510A620AFF
:102FB000730A9301820104C0081919092A093B09FF
:102FC00037FD05C0F6011182938382830CC041E076
:102FD000F601418393838283309520951095019566
:102FE0001F4F2F4F3F4F04831583268337830EC017
:102FF000880F991FAA1FBB1FF60184839583A683A0
:10300000B78382819381019793838283F6018481C0
:103010009581A681B781AC01BD014150510961097B
:1030200071094F3F5F4F6F4F7F4310F30CC0F601A4
:10303000418393838283080D191D2A1D3B1D048340
:1030400015832683378383E0F6018083448155818D
:103050006681778177FF1AC0DB01CA0181709927E9
:10306000AA27BB277695679557954795842B952B6F
:10307000A62BB72B84839583A683B7838281938104
:1030800001969383828302C07B0101C07601C70150
:103090002496E0E10C94C41CA0E2B0E0E2E5F8E183
:1030A0000C94B61C6D8F7E8F8F8F98A3298F3A8FCB
:1030B0004B8F5C8FBE016F5E7F4FCE014D960E949D
:1030C000D61BBE01675F7F4FCE0149960E94D61B7B
:1030D000AE014F5F5F4FBE01675F7F4FCE014196EC
:1030E0000E94F0160E940C1BA096E2E00C94D21CE9
:1030F000A0E2B0E0EEE7F8E10C94B61C6D8F7E8F95
:103100008F8F98A3298F3A8F4B8F5C8FBE016F5E94
:103110007F4FCE014D960E94D61BBE01675F7F4F49
:10312000CE0149960E94D61B8A8591E089278A871D
:10313000AE014F5F5F4FBE01675F7F4FCE0141968B
:103140000E94F0160E940C1BA096E2E00C94D21C88
:10315000A0E2B0E0EEEAF8E10C94A81C6D8F7E8F3F
:103160008F8F98A3298F3A8F4B8F5C8FBE016F5E34
:103170007F4FCE014D960E94D61BBE01675F7F4FE9
:10318000CE0149960E94D61B9989923008F412C04C
:103190008985823008F41AC0943021F4823009F411
:1031A000B4C008C0843021F4923009F4AEC00EC01F
:1031B000923051F481E02A899A85291301C080E078
:1031C0008A8BCE014196A3C0823051F481E02A89D6
:1031D0009A85291301C080E08A87CE01099697C09D
:1031E0008D889E88AF88B88C0D851E852F8538897F
:1031F000E0E2F0E080E090E0DC01C12CD12C76012F
:1032000040E050E0BA0180FE18C0400F511F621F1D
:10321000731F8C0D9D1DAE1DBF1D412C512C320105
:103220004394401751076207730718F0412C512C43
:103230003201840D951DA61DB71DCC0CDD1CEE1CA6
:10324000FF1C37FF02C06894C0F8000F111F221F37
:10325000331FB694A794979487943197A1F62B893E
:103260003C89EB85FC852E0F3F1F2E5F3F4F3C8333
:103270002B8321E0EA893A85E31301C020E02A8309
:10328000EB81FC810CC080FF05C076956795579552
:1032900047957068B695A795979587953196B7FD30
:1032A000F2CF9F010CC0880F991FAA1FBB1F77FD8B
:1032B0008160440F551F661F771F21503109009709
:1032C000A105E0E4BE0778F32B833C838C019D01CC
:1032D0000F771127222733270034110521053105E7
:1032E00059F487FD09C0452B462B472B29F0805CFC
:1032F0009F4FAF4FBF4F80788D839E83AF83B8873A
:1033000083E08983CE01019602C080E091E00E94B3
:103310000C1BA096E0E10C94C41CA8E1B0E0E3E92A
:10332000F9E10C94B01C6D8B7E8B8F8B988F298B61
:103330003A8B4B8B5C8BBE01675F7F4FCE0145960E
:103340000E94D61BBE016F5F7F4FCE0141960E9447
:10335000D61B9985923008F475C08981823008F4B3
:1033600074C02A853A8123272A87943011F092303D
:1033700019F4981367C06CC0843039F41D861E861A
:103380001F86188A1C861B8604C0823029F484E0BC
:103390008987CE0109965EC08B859C852B813C81F7
:1033A000821B930B9C878B874D855E856F85788903
:1033B000CD80DE80EF80F8844C155D056E057F05BD
:1033C00038F4440F551F661F771F01979C878B8722
:1033D000EFE1F0E000E010E020E030E480E090E099
:1033E000DC014C155D056E057F0540F0802B912BAF
:1033F000A22BB32B4C195D096E097F0936952795D1
:1034000017950795440F551F661F771F319749F78A
:103410008C019D010F7711272227332700341105D6
:103420002105310559F487FD09C0452B462B472B53
:1034300029F0805C9F4FAF4FBF4F80788D879E876C
:10344000AF87B88BCE01099605C0CE01019602C0A8
:1034500080E091E00E940C1B6896E8E00C94CC1C84
:10346000A8E1B0E0E6E3FAE10C94B61C6D8B7E8B2C
:103470008F8B988F298B3A8B4B8B5C8BBE01675F50
:103480007F4FCE0145960E94D61BBE016F5F7F4FD6
:10349000CE0141960E94D61B8985823058F08981E1
:1034A000823040F0BE016F5F7F4FCE0109960E94CF
:1034B000451C01C08FEF6896E2E00C94D21CA8E195
:1034C000B0E0E5E6FAE10C94B61C6D8B7E8B8F8B39
:1034D000988F298B3A8B4B8B5C8BBE01675F7F4F3C
:1034E000CE0145960E94D61BBE016F5F7F4FCE0175
:1034F00041960E94D61B8985823058F0898182309E
:1035000040F0BE016F5F7F4FCE0109960E94451CBF
:1035100001C08FEF6896E2E00C94D21CA8E1B0E005
:10352000E4E9FAE10C94B61C6D8B7E8B8F8B988F3F
:10353000298B3A8B4B8B5C8BBE01675F7F4FCE0133
:1035400045960E94D61BBE016F5F7F4FCE0141960C
:103550000E94D61B8985823058F08981823040F0E4
:10356000BE016F5F7F4FCE0109960E94451C01C0CE
:1035700081E06896E2E00C94D21CACE0B0E0E3ECB1
:10358000FAE10C94B41C69877A878B879C87BE010B
:103590006F5F7F4FCE0109960E94D61B89818230D2
:1035A00091F1823080F1843041F48A81882331F1B5
:1035B00000E010E020E030E829C02B813C8137FD9D
:1035C00022C02F3131058CF78EE190E0821B930BE6
:1035D0000D811E812F81388504C03695279517955A
:1035E00007958A95D2F78A81882381F030952095B6
:1035F000109501951F4F2F4F3F4F08C00FEF1FEF42
:103600002FEF3FE703C000E010E09801B801C901C7
:103610002C96E4E00C94D01C0F931F93CF93DF9370
:10362000DC0114964D915D916D917C9117971196E7
:10363000EC9111978C91823020F460618FEF90E0D3
:10364000A6C0843009F49EC0823009F495C04115AB
:1036500051056105710509F492C012962D913C91B6
:10366000139722388FEF38070CF058C0C2E8DFEF0D
:10367000C21BD30BCA31D1056CF58A019B010C2EFC
:1036800004C036952795179507950A94D2F781E0DF
:1036900090E0A0E0B0E00C2E04C0880F991FAA1F94
:1036A000BB1F0A94D2F70197A109B109842395237E
:1036B000A623B72341E050E060E070E0892B8A2B1D
:1036C0008B2B19F440E050E0BA01402B512B622BB8
:1036D000732B03C040E050E0BA01DB01CA018F77D1
:1036E0009927AA27BB2780349105A105B10539F494
:1036F00047FF09C0405C5F4F6F4F7F4F04C0415C84
:103700005F4F6F4F7F4F81E090E04115510561059C
:1037100020E4720748F580E090E026C020383105AB
:103720008CF5DB01CA018F779927AA27BB27803444
:103730009105A105B10539F447FF09C0405C5F4F11
:103740006F4F7F4F04C0415C5F4F6F4F7F4F77FDDE
:1037500004C0C90181589F4F07C07695679557955A
:103760004795C90180589F4F97E076956795579583
:1037700047959A95D1F70BC080E090E005C080E0B6
:1037800090E005C08FEF90E040E050E0BA01982F44
:103790009695E0FB97F9362F80FB37F9642F752F4C
:1037A000832FDF91CF911F910F910895CF92DF92D8
:1037B000EF92DC01FB01CC901196DC9011971296F0
:1037C0008C9112973FE7E32EE8226E2DA60170E060
:1037D000982F991F9927991F13962C91822F880F44
:1037E000892B90E027FB222720F92183009729F5D8
:1037F000411551056105710511F482E027C082E889
:103800009FEF9383828327E0440F551F661F771F26
:103810002A95D1F783E0808309C0440F551F661FA6
:10382000771F82819381019793838283411551058C
:10383000610580E4780788F320C08F3F910579F413
:10384000411551056105710519F484E0808319C0A3
:10385000E4FE03C081E0808310C010820EC08F5749
:1038600091099383828383E0808387E0440F551F0F
:10387000661F771F8A95D1F77064448355836683EA
:103880007783EF90DF90CF900895CF93FC01DB0119
:103890009081923008F452C08C91823008F44EC06E
:1038A000943071F4843039F411962C9130E0818198
:1038B000281B310948C08181882309F43FC03BC0DF
:1038C000843029F411968C91811138C034C0923023
:1038D00019F48230B9F735C0823069F3C18111968D
:1038E0008C911197C8131DC02281338112968D913E
:1038F0009C911397821793070CF413C0281739076C
:103900000CF417C0448155816681778114968D919E
:103910009D910D90BC91A02D84179507A607B70720
:1039200018F4C11108C00AC0481759076A077B0775
:1039300040F4C11103C02FEF3FEF05C021E030E09C
:1039400002C020E030E0C901CF9108952F923F924C
:103950004F925F926F927F928F929F92AF92BF929F
:10396000CF92DF92EF92FF920F931F93CF93DF934B
:10397000CDB7DEB7CA1BDB0B0FB6F894DEBF0FBEA8
:10398000CDBF09942A88398848885F846E847D84F5
:103990008C849B84AA84B984C884DF80EE80FD80F7
:1039A0000C811B81AA81B981CE0FD11D0FB6F8946D
:0E39B000DEBF0FBECDBFED010895F894FFCF2E
:0839BE00000000000000000001
:00000001FF
