:100000000C9434000C94F2010C9446000C944600BD
:100010000C9446000C9446000C9446000C94460048
:100020000C9446000C9446000C9446000C94460038
:100030000C9446000C9446000C9446000C94460028
:100040000C9446000C9446000C940A020C94460052
:100050000C9446000C9446000C9446000C94460008
:100060000C9446000C94460011241FBECFEFD8E03C
:10007000DEBFCDBF11E0A0E0B1E001C01D92A7300E
:10008000B107E1F70E9467020C947D020C94000016
:10009000E1E6F0E080E8808310820895519A1092A2
:1000A000C50083E38093C40088E18093C1008EE0A3
:1000B0008093C20008959091C00095FFFCCF80937B
:1000C000C60008958091C00087FFFCCF8091C600D4
:1000D000089584B18E6284B98CB580658CBD2A9AEE
:1000E000299808958EBD0DB407FEFDCF8EB50895F5
:1000F000209A08955298E9E6F0E08081826080833A
:1001000080818E7F8083E89A0895E1ECF0E0808121
:100110008068808308959AE19A95F1F700C02A9843
:100120009AE19A95F1F700C00E9472008AE18A95DF
:10013000F1F700C08FEF0E9472009AE19A95F1F7F3
:1001400000C02A9A0895CF92DF92EF92FF920F9308
:100150001F93CF93DF93C82ED62E7A01022FF894E7
:1001600081E0C81202C080E2D80E8AE18A95F1F7D8
:1001700000C02A988AE18A95F1F700C08D2D0E946F
:1001800072008AE18A95F1F700C0C0E0D0E010E08B
:1001900018C0C1100BC080EAD81641F08FEF0E9442
:1001A0007200FE01E050FF4F808306C0F701EC0FA4
:1001B000FD1F80810E9472008AE18A95F1F700C0DC
:1001C0002196C017D1072CF32A9A789480E091E009
:1001D000DF91CF911F910F91FF90EF90DF90CF9023
:1001E00008950F931F93CF93DF9300D000D01F92F9
:1001F000CDB7DEB78FEF9FE30197F1F700C011E0B5
:10020000198321E0AE014F5F5F4F61E081E00E9402
:10021000A3008FE2898321E0AE014F5F5F4F64E06E
:1002200081E00E94A300198321E0AE014F5F5F4F80
:1002300062E081E00E94A30003E0098321E0AE01B7
:100240004F5F5F4F63E081E00E94A300198321E0CC
:10025000AE014F5F5F4F65E081E00E94A30087E041
:10026000898321E0AE014F5F5F4F66E081E00E942D
:10027000A30012E119831A831B831C831D8325E0CD
:10028000AE014F5F5F4F6AE081E00E94A3001983D7
:100290001A831B831C831D8325E0AE014F5F5F4FD4
:1002A00060E181E00E94A300098321E0AE014F5F7D
:1002B0005F4F61E181E00E94A3008EE1898321E02C
:1002C000AE014F5F5F4F60E081E00E94A3008FEFBF
:1002D0009FE30197F1F700C00F900F900F900F90E0
:1002E0000F90DF91CF911F910F9108951F93CF939E
:1002F000DF9300D000D01F92CDB7DEB7182F8FEF5D
:100300009FE30197F1F700C019831A831B831C83B5
:100310001D8325E0AE014F5F5F4F6AE081E00E94E0
:10032000A30019831A831B831C831D8325E0AE0160
:100330004F5F5F4F60E181E00E94A3008FEF9FE37A
:100340000197F1F700C00F900F900F900F900F9052
:10035000DF91CF911F9108958AE18A95F1F700C04E
:100360002A988AE18A95F1F700C087E20E9472001C
:100370008AE18A95F1F700C080E70E9472008AE165
:100380008A95F1F700C02A9A08957894299A8FEFF8
:100390009FE30197F1F700C02998F8940895CF934F
:1003A000DF93EC0120E0AC0161EE80E00E94A3004D
:1003B00023E0AE0160EA80E00E94A30078948FEF12
:1003C0009FE30197F1F700C0299A95E39A95F1F719
:1003D000000029988FEF9FE30197F1F700C0DF91AC
:1003E000CF9108951F920F920FB60F9211248F9301
:1003F0009F93F8942998289A8FEF9FE30197F1F73C
:1004000000C0289878949F918F910F900FBE0F9005
:100410001F9018951F920F920FB60F921124EF9212
:10042000FF920F931F932F933F934F935F936F937D
:100430007F938F939F93AF93BF93EF93FF93CF934C
:10044000DF9300D01F92CDB7DEB78E010F5F1F4F35
:100450007E0184E0E80EF11C0E946200F8018193A5
:100460008F010E945B000E151F05B1F70E94AC01C1
:100470008981893359F483E10E947601CE01019686
:100480000E94CF0182E10E94760104C0CE01019654
:100490000E94CF0183E20E945B000F900F900F90AB
:1004A000DF91CF91FF91EF91BF91AF919F918F918C
:1004B0007F916F915F914F913F912F911F910F917C
:1004C000FF90EF900F900FBE0F901F9018950E9415
:1004D00048000E944E000E9469000E9478000E941D
:1004E0007A000E9485000E94F100289A8FEF9FE316
:0E04F0000197F1F700C02898FFCFF894FFCFD6
:00000001FF
