:100000000C9434000C9404030C944E030C94510093
:100010000C9451000C9460030C9451000C9451000A
:100020000C9451000C9451000C9451000C9401025A
:100030000C9451000C9451000C9472020C945100D9
:100040000C9451000C9451000C94DB050C9451005D
:100050000C9451000C9451000C9451000C945100DC
:100060000C9451000C94510011241FBECFEFD8E026
:10007000DEBFCDBF14E0A0E0B1E0E8E9F7E102C0E7
:1000800005900D92A837B107D9F714E0A8E7B4E0BE
:1000900001C01D92AF3AB107E1F70E94AF080C947E
:1000A000CA0B0C94000020E030E009C044E650E0A8
:1000B0000000000041505109D9F72F5F3F4F28172A
:1000C0003907A4F3089598E0409887FF02C0419A49
:1000D00001C04198409A880F9150B1F70895429A13
:1000E00043980E946300439A0895429843980E945F
:1000F0006300439A0895CF93C82F6770862F80645A
:100100000E9475008C2F8068CF910C947500CF935E
:10011000DF9360E080E00E947B00C8EFD1E080E0E8
:100120000E946F002197D9F7DF91CF910895449AEB
:10013000439A449884E690E00E945300449A81E2F6
:100140000E94750082EC0E94750083E10E94750098
:1001500080E20E94750089E00E9475000E9487007D
:1001600088E00E9475008CE00E94750060E080E0ED
:100170000E947B0084E690E00C9453000F931F9341
:10018000CF93DF9395E08902800111240F5D1E4F0C
:10019000C0E0D0E0F801EC0FFD1FE05AF1098081CA
:1001A0000E946F002196C530D105A1F780E0DF9154
:1001B000CF911F910F910C946F00CF93DF93EC01BF
:1001C00002C00E94BE0089918111FBCFDF91CF91C7
:1001D00008950F931F93CF93DF93CDB7DEB72F977B
:1001E0000FB6F894DEBF0FBECDBF9F938F938BE009
:1001F00093E09F938F938E010F5F1F4F1F930F9379
:100200000E94F208C8010E94DD000F900F900F902D
:100210000F900F900F902F960FB6F894DEBF0FBE81
:10022000CDBFDF91CF911F910F9108951092C5001E
:1002300089E18093C40086E08093C200E1ECF0E0A5
:1002400088E1808380818068808308958FED84B900
:1002500087B18F6187B90E9497008DE08093690014
:1002600083E08DBBEDE6F0E0808182608083808159
:1002700080628083808181608083808180618083CF
:10028000E8E6F0E08081846080831092800089E05D
:100290008093810089E999E0909389008093880098
:1002A000EFE6F0E080818260808382E084BD84E0BC
:1002B00085BD82EC87BDEEE6F0E0808182608083C0
:1002C0008FB780688FBF0895CF93DF939C01EC01B7
:1002D00007C04091C00045FFFCCF49914093C60044
:1002E000FC0101900020E9F73197E81BF90BAE0102
:1002F000421B530B4E175F0760F3DF91CF910895B8
:100300000E940D08882341F08AE894E00E94780753
:100310008AE894E00C9464010895FF920F931F9370
:10032000CF93DF93EC01E82FFD2FDF010D9000202C
:10033000E9F71197FA2EF81A10E001E038C0FE0133
:10034000E10FF11D17FDFA95808180938A04818168
:1003500080938B04828180938C04838180938D04AD
:100360001C5F8AE894E00E943D070E94720681119A
:10037000FCCF0E94660680938804811112C08EE033
:1003800093E00E946401CE010E94640185B1802740
:1003900085B984E690E00E94530085B1802785B935
:1003A00006C0813021F48AE293E00E946401F116D4
:1003B00034F60E94E907809388041F928F9382E4A9
:1003C00093E09F938F938FE894E09F938F930E9485
:1003D000F2088FE894E00E9464010E94610783ECB8
:1003E00099E00197F1F700C000000F900F900F9077
:1003F0000F900F900F90DF91CF911F910F91FF9071
:1004000008951F920F920FB60F9211248F939F930E
:1004100080911B0190911C01181619064CF48091D3
:100420001B0190911C01019790931C0180931B016B
:100430009F918F910F900FBE0F901F9018958091F4
:100440007F04811102C08AE001C08FE080937D04A7
:1004500080911B0190911C01892B09F042C083E01F
:1004600090E090931C0180931B010AC02F9A84E0B6
:100470008A95F1F700002F9884E08A95F1F7000043
:1004800080911B0190911C01181619067CF383E0E2
:1004900090E090931C0180931B0180911B0190912F
:1004A0001C01892BD1F781E090E090931C0180938F
:1004B0001B010AC02F9A84E08A95F1F700002F985B
:1004C00084E08A95F1F7000080911B0190911C0156
:1004D000181619067CF385E090E090931C01809338
:1004E0001B0108951F920F920FB60F9211248F9344
:1004F00080911D0118162CF480911D01815080936C
:100500001D0180918304813029F480911F01815065
:1005100080931F0180911F0187FF07C08091830492
:10052000811103C084E080931F0180911F0181111C
:100530000CC080918304813041F486E080931F01D8
:100540008091680084608093680080911E01181675
:100550002CF480911E01815080931E0180918504AE
:10056000813071F480918204815080938204809163
:100570008204811105C08EE1809389041092850464
:10058000809189041816B4F480917E04823091F42D
:1005900080911D0181110EC04A9B10927E048091B2
:1005A000890481508093890486E080931D0181E055
:1005B0008093810480917D04181604F580917D0458
:1005C0008A3021F080917D048F3009F42E9A809139
:1005D0007D04815080937D0480917F04811105C04A
:1005E00080917D04811101C02E9880917F0481301B
:1005F00029F480917D04873009F42E988F910F9013
:100600000FBE0F901F9018951F920F920FB60F926A
:1006100011248F9380917F0481111FC080918904E0
:100620001816B4F580917E04811112C080911E01CC
:1006300081110EC08AE080931E018091890481504F
:100640008093890481E080937E048093810420C09C
:1006500080917E048823E1F016C080917E04811190
:100660000AC080911E01811106C082E080931E01A4
:1006700080937E040DC080917E04882349F0809190
:100680001E01811105C08AE080931E0110927E0434
:100690008F910F900FBE0F901F9018951F920F9281
:1006A0000FB60F9211248F9381E08093850488E226
:1006B000809382048F910F900FBE0F901F9018951A
:1006C0001F920F920FB60F9211240F931F932F9327
:1006D0003F934F935F936F937F938F939F93AF93CA
:1006E000BF93EF93FF93CF93DF93CDB7DEB72597FB
:1006F000DEBFCDBF89B18093AD048091AD0483731B
:10070000833009F040C08091830481113CC0809106
:1007100068008B7F8093680081E0809383048091E0
:10072000200118160CF0A1C0809120018055809303
:10073000200120912001822F992787FD90959F937A
:100740002F938EE593E09F938F938E010F5F1F4F42
:100750001F930F930E94F208C8010E948D0180919F
:1007600020010F900F900F900F900F900F90181680
:100770002CF0809178048F5F8093780485B190E4A9
:10078000892785B972C08091AD0483738232A9F440
:1007900080918304811111C0809168008B7F8093C8
:1007A000680081E0809383048091200118160CF08A
:1007B0005CC080912001885219C08091AD04837380
:1007C0008132B9F580918304811133C08091680032
:1007D0008B7F8093680081E0809383048091200167
:1007E00018160CF042C080912001845180932001A2
:1007F00020912001822F992787FD90959F932F9319
:1008000082E693E09F938F938E010F5F1F4F1F939C
:100810000F930E94F208C8010E948D0185B190E4F7
:10082000892785B90F900F900F900F900F900F9020
:100830001CC08091AD0484FF16C080918304811197
:1008400012C0809168008B7F8093680081E0809364
:10085000830490917F04913019F410927F0405C0B5
:1008600080937F0402C0109283048091200187FD51
:10087000109220010F900F900F900F900F90DF912A
:10088000CF91FF91EF91BF91AF919F918F917F9108
:100890006F915F914F913F912F911F910F910F9009
:1008A0000FBE0F901F901895CF9360E080E10E94DB
:1008B0007B0085E693E00E94DD0062E084E00E9418
:1008C0007B008FE693E00E94DD00C6E084E690E0C6
:1008D0000E94530084E794E00E94DD00C150B1F70C
:1008E000CF910C94870089E793E00E9464010E94F5
:1008F0001C0664E082E00E94900780E091E00E9484
:100900003C0885E091E00E944B080E94870060E06F
:1009100080E00E947B000E94870060E080E00E94EF
:100920007B008FE893E00E94DD00E09BFECF84E631
:1009300090E00E9453000E94870060E080E00E94E7
:100940007B008BE091E00E94640184E680932001AB
:100950008EE1809389040C94870060E080E00E941F
:100960007B008BE091E00E94DD0060E084E20E9469
:100970007B0080917F04813019F485EA93E002C006
:100980008DEA93E00E94DD0061E080E00E947B0040
:1009900084EB93E00E94DD0080912001992787FD80
:1009A00090950E94E9008091200184361CF48BEB25
:1009B00093E002C08EEB93E00E94DD0062E080E0F5
:1009C0000E947B00809189041816D4F480918504DC
:1009D000813019F480EC93E033C0809189048A302F
:1009E0001CF082ED93E002C08DED93E00E94DD00EB
:1009F00080918904992787FD90950E94E90022C083
:100A000080918504813031F380911A01803154F056
:100A100089EE93E00E94DD0080911A01815080935D
:100A20001A0110C080911A01815080931A0180919F
:100A30001A01811103C08EE180931A018BEF93E0BC
:100A40000E94DD0064E080E00E947B008DE094E085
:100A50000E94DD0080910A01992787FD90950E94F0
:100A6000E90080910A0184361CF48BEB93E002C00C
:100A70008EEB93E00C94DD000E94870063E080E140
:100A80000E947B0080910A0118161CF084E194E01A
:100A900002C08EE194E00E94DD00809180048130EC
:100AA00051F464E088E00E947B0088E294E00E94B8
:100AB000DD001092800488EB9BE00E9453000E94AE
:100AC000870060E086E00E947B0086E394E00E945D
:100AD000DD0061E080E00E947B0081E494E00E9400
:100AE000DD0062E086E00E947B0080917B04992714
:100AF00087FD90950E94E9008CE494E00E94DD005F
:100B000080917A04992787FD90950E94E9008CE4F2
:100B100094E00E94DD0080917904992787FD9095EB
:100B20000E94E90063E080E00E947B0080E594E0A1
:100B30000E94DD0064E086E00E947B0080917A04E0
:100B4000992787FD90950E94E9008CE494E00E942B
:100B5000DD0080917B04992787FD90950E94E90034
:100B60008CE494E00E94DD0080917804992787FD51
:100B700090950E94E90080E197E20E9453000E9454
:100B8000870064E080E00E947B008BE594E00E9497
:100B9000DD00E09BFECF84E690E00E94530084E6F7
:100BA00080930A019EE190938904809320010E9422
:100BB00087000C94AD041F920F920FB60F92112470
:100BC0008F938091C60080938E0481E0809384048B
:100BD0008F910F900FBE0F901F901895CF93DF93BA
:100BE000CDB7DEB7A8970FB6F894DEBF0FBECDBF66
:100BF00080918E04813359F466E774E0CE0101964A
:100C00000E94EB08CE0101960E94640102C010927E
:100C10008404A8960FB6F894DEBF0FBECDBFDF9157
:100C2000CF91089581E680938A0480938B0480930A
:100C30008C0480938D0408950E948E0880E00E94A9
:100C4000940881E00C949A088091AE040895FF9274
:100C50000F931F93CF93DF93082F80E00E94A0088B
:100C6000C7E0D0E0F12C10E098010C2E02C03595C1
:100C700027950A94E2F720FF02C081E001C080E0DE
:100C80000E94A60881E00E94A008FF0C0E94AC0808
:100C9000882311F081E0F82A80E00E94A0082197C3
:100CA00018F78F2DDF91CF911F910F91FF9008952D
:100CB000CF9380E00E949A088FEF0E942706C82FEA
:100CC00081E00E949A088C2FCF9108950E945806C7
:100CD00085FD04C084FF04C081E0089580E008958C
:100CE0008FEF08950E945806982F907381E009F0C5
:100CF00080E00895CF9380E00E949A0880E60E94E9
:100D0000270680E00E942706C82F81E00E949A08EB
:100D10008C2FCF910895CF92DF92FF920F931F9364
:100D2000CF93DF931F92CDB7DEB7F82E8B01C82E7D
:100D3000D92E0AC0F60181916F0149830E942706CE
:100D4000F80181938F0149818C2D8F19841790F3BD
:100D50000F90DF91CF911F910F91FF90DF90CF9077
:100D60000895CF92DF92FF920F931F93CF93DF935B
:100D70001F92CDB7DEB7F82E8B01C82ED92E0AC030
:100D8000F60181916F0149830E942706F801819342
:100D90008F0149818C2D8F19841790F30F90DF916B
:100DA000CF911F910F91FF90DF90CF900895EF9218
:100DB000FF921F93CF93DF931F92CDB7DEB7182F0B
:100DC000E82EF92E07C0F70181917F0169830E9407
:100DD000270669818E2D811B8617A8F30F90DF915E
:100DE000CF911F91FF90EF900895EF92FF921F9384
:100DF000CF93DF931F92CDB7DEB7182FE82EF92ED1
:100E000007C0F70181917F0169830E9427066981EC
:100E10008E2D811B8617A8F30F90DF91CF911F9124
:100E2000FF90EF9008951F93CF93DF931F92CDB75C
:100E3000DEB7182F80E069830E949A08812F8F7196
:100E400080620E9427066981862F0E94270681E022
:100E50000F90DF91CF911F910C949A0880E00E942F
:100E6000940868E080E00C94130760E787E00E9434
:100E700013076AE080E00C941307CF93DF93EC0133
:100E800080E00E9494080E94350780E00E949A0842
:100E900081EE0E94270681E00E949A0880E00E946D
:100EA0009A0880EA0E9427066091AE04CE010E9453
:100EB000F50681E00E949A0881E0DF91CF910C94C1
:100EC000940880E00E949A0882EE0E94270681E042
:100ED0000E949A0860E787E00E94130780E00E9462
:100EE00094086BE080E00E94130781E00C94940862
:100EF000CF93DF93EC0180E00E949A0881E60E9484
:100F000027064091AE04BE01CE010E94B10681E0E9
:100F10000E949A0860E487E0DF91CF910C94130758
:100F20006093AE04682F85E00E94130760E081E1C2
:100F30000E9413076091AE0482E10E94130760E0F3
:100F400083E10E94130760E084E10E94130760E0E0
:100F500085E10E94130760E086E10E94130766E0C6
:100F600086E00E94130768E080E00E94130763E0B8
:100F700081E00E94130763E082E00E9413076FE4A0
:100F800084E00E94130760E08CE10E9413070C9438
:100F90006107EF92FF921F93CF93DF931F92CDB71C
:100FA000DEB7182F7B0180E049830E949A08812FC9
:100FB0008F710E9427064981B701C7010E948B06E5
:100FC00081E00F90DF91CF911F91FF90EF900C94F3
:100FD0009A08CF93DF931F92CDB7DEB741E0BE01F1
:100FE0006F5F7F4F88E00E94C90789818F700F90E3
:100FF000DF91CF910895CF93DF931F92CDB7DEB7E6
:1010000041E0BE016F5F7F4F87E10E94C907898180
:1010100081700F90DF91CF9108950E94580686FD50
:1010200007C00E94FB0791E0882319F090E001C0FF
:1010300091E0892F0895EF92FF921F93CF93DF9352
:101040001F92CDB7DEB7182F7B0180E049830E9445
:101050009A08812F8F7180620E9427064981642F30
:10106000C7010E94D70681E00F90DF91CF911F91B9
:10107000FF90EF900C949A08CF93DF93EC0145E03A
:10108000BC018AE00E941B0845E0BE0180E1DF91BF
:10109000CF910C941B08CF93DF93EC0180E00E946A
:1010A000940845E0BE018BE00E941B0881E0DF91BF
:1010B000CF910C949408CF93DF93CDB7DEB72A97E6
:1010C0000FB6F894DEBF0FBECDBF85E0E1E0F3E0E0
:1010D000DE01169601900D928A95E1F785E0E6E033
:1010E000F3E0DE01119601900D928A95E1F70E94DE
:1010F0001C0664E082E00E949007CE0106960E94E2
:101100003C08CE0101960E944B082A960FB6F8942F
:10111000DEBF0FBECDBFDF91CF910895219A229AF5
:10112000259A239A24980895882311F0299A0895DE
:1011300029980895882311F02A9A08952A980895E5
:10114000882311F02D9A08952D980895882311F081
:101150002B9A08952B98089583B1807108950E9469
:1011600026010E9454040E947304C1E0809181040E
:10117000813021F40E941F0210928104809120018D
:1011800018161CF40E94AD0407C080917A048F5F8A
:1011900080937A040E943C050E9412060E948001FE
:1011A00080918A04813611F380930A011816F4F2B3
:1011B00080917B048F5F80937B0480918B048133CB
:1011C00039F4C0938004809179048F5F809379040F
:1011D0000E943C05CBCFFB01DC0101900D92002069
:1011E000E1F70895A0E1B0E0E8EFF8E00C94A10B7E
:1011F0000F89188D86E08C831A8309838FEF9FE710
:101200009E838D83AE01455E5F4F588B4F87698DFE
:101210007A8DCE0101960E941609EF81F885E00FC4
:10122000F11F10826096E4E00C94BD0BACE0B0E0DE
:10123000ECE1F9E00C94930B7C016B018A01FC0159
:1012400017821682838181FFC7C188248394912CE1
:101250008C0E9D1EF7019381F60193FD859193FFFE
:1012600081916F01882309F4B3C1853239F493FD6C
:10127000859193FF81916F01853229F4B70190E048
:101280000E94090BE7CF712C312C20E02032A8F40A
:101290008B3261F028F4803251F0833271F40BC04C
:1012A0008D3239F0803349F4216028C022602460F7
:1012B00025C0286023C0206121C027FD27C0382F0A
:1012C00030533A3078F426FF06C0FAE07F9E300DA6
:1012D0001124732E13C08AE0389E300D1124332E52
:1012E00020620CC08E3221F426FD72C1206406C03B
:1012F0008C3611F4206802C0883641F4F60193FD63
:10130000859193FF81916F018111C0CF982F9554E2
:10131000933018F09052933028F40C5F1F4FFFE386
:10132000F9830DC0833631F0833771F0833509F0CE
:101330005EC023C0F801808189830E5F1F4F662441
:101340006394712C540115C02801F2E04F0E511C1A
:10135000F801A080B18026FF03C0672D70E002C0B5
:101360006FEF7FEFC5012C870E94FE0A3C018201CE
:101370002C856FE7262E222218C02801F2E04F0E9E
:10138000511CF801A080B18026FF03C0672D70E0DA
:1013900002C06FEF7FEFC5012C870E94F30A3C016A
:1013A0002C8550E8252E222A820123FC1CC006C071
:1013B000B70180E290E00E94090B3A94832D90E0FF
:1013C00068167906A8F30FC0F50127FC859127FE62
:1013D00081915F01B70190E00E94090B31103A94AE
:1013E000F1E06F1A71086114710471F7EEC0843670
:1013F00011F0893641F5F80127FF07C0608171813E
:10140000828193810C5F1F4F08C0608171818827A2
:1014100077FD8095982F0E5F1F4F4FE6642E622256
:1014200097FF09C090958095709561957F4F8F4F7C
:101430009F4FF0E86F2A2AE030E0A4010E94350BAC
:10144000A82EA81844C0853731F43FEEB32EB2223F
:101450002AE030E024C099EFB92EB2228F36B9F0DD
:1014600020F4883509F0B4C00DC0803721F08837EA
:1014700009F0AEC002C020E1B22AB4FE0BC084E085
:10148000B82A08C024FF09C0E6E0BE2A06C028E04A
:1014900030E005C020E130E002C020E132E0F80198
:1014A000B7FE07C060817181828193810C5F1F4FFD
:1014B00006C06081718180E090E00E5F1F4FA40143
:1014C0000E94350BA82EA8188FE7682E6B2066FEA9
:1014D0000BC0362D3E7FA71450F464FE0AC062FC98
:1014E00008C0362D3E7E05C0BA2C362D03C0BA2C5E
:1014F00001C0B72C34FF0DC0FE01EA0DF11D808143
:10150000803311F4397E09C032FF06C0B394B3941E
:1015100004C0832F867809F0B39433FD14C030FFE4
:101520000FC07A2CB31460F4730C7B18B32C08C072
:10153000B70180E290E03C870E94090BB3943C85A0
:10154000B314B0F304C0B31410F43B1801C0312C31
:1015500034FF12C0B70180E390E03C870E94090B82
:101560003C8532FF1EC031FF03C088E590E002C019
:1015700088E790E0B7010CC0832F867891F031FDA9
:1015800002C080E201C08BE237FD8DE2B70190E03E
:101590000E94090B06C0B70180E390E00E94090B8E
:1015A0007A94A714C0F3AA94F401EA0DF11DB701CF
:1015B000808190E00E94090BA110F5CF06C0B70111
:1015C00080E290E00E94090B3A943110F8CF42CEAD
:1015D000F7012681378102C02FEF3FEFC9012C961A
:1015E000E2E10C94AF0BFC010590615070400110DA
:1015F000D8F7809590958E0F9F1F0895FC0161503C
:10160000704001900110D8F7809590958E0F9F1F24
:1016100008950F931F93CF93DF938C01EB018B8180
:1016200081FD03C00FEF1FEF1AC082FF0DC02E8196
:101630003F818C819D812817390764F4E881F98105
:101640000193F983E88306C0E885F985802F099521
:10165000892B41F78E819F8101969F838E83C801DC
:10166000DF91CF911F910F910895FA01AA27283099
:1016700051F1203181F1E8946F936E7F6E5F7F4F5F
:101680008F4F9F4FAF4FB1E03ED0B4E03CD0670FDB
:10169000781F891F9A1FA11D680F791F8A1F911D2E
:1016A000A11D6A0F711D811D911DA11D20D009F47E
:1016B00068943F912AE0269F11243019305D3193C0
:1016C000DEF6CF010895462F4770405D4193B3E0A9
:1016D0000FD0C9F7F6CF462F4F70405D4A3318F050
:1016E000495D31FD4052419302D0A9F7EACFB4E001
:1016F000A6959795879577956795BA95C9F70097B9
:101700006105710508959B01AC010A2E0694579559
:10171000479537952795BA95C9F7620F731F841FB0
:10172000951FA01D08952F923F924F925F926F9246
:101730007F928F929F92AF92BF92CF92DF92EF9261
:10174000FF920F931F93CF93DF93CDB7DEB7CA1BE2
:10175000DB0B0FB6F894DEBF0FBECDBF09942A880D
:10176000398848885F846E847D848C849B84AA84B5
:10177000B984C884DF80EE80FD800C811B81AA8142
:10178000B981CE0FD11D0FB6F894DEBF0FBECDBF0D
:08179000ED010895F894FFCF6C
:10179800D7D7D7D7D7A7A7A7A7A764506564726F6D
:1017A800000000000000000000001E0A00060A06F3
:1017B80064000000000000005F0000000700070050
:1017C800147F147F14242A7F2A1223130864623694
:1017D800495522500005030000001C224100004129
:1017E800221C0014083E081408083E08080050305F
:1017F80000000808080808006060000020100804BD
:10180800023E5149453E00427F40004261514946EF
:101818002141454B311814127F1027454545393C65
:101828004A4949300171090503364949493606498B
:1018380049291E00363600000056360000081422DA
:10184800410014141414140041221408020151090F
:10185800063CFA6EFA3C7E1111117E7F49494936E1
:101868003E414141227F4141221C7F494949417FF4
:10187800090909013E4149497A7F0808087F004162
:101888007F41002040413F017F081422417F4040B2
:1018980040407F020C027F7F0408107F3E41414197
:1018A8003E7F090909063E4151215E7F09192946F3
:1018B800464949493101017F01013F4040403F1FEE
:1018C8002040201F3F4038403F6314081463070836
:1018D8007008076151494543007F414100020408EF
:1018E80010200041417F00040201020440404040B2
:1018F80040000102040020545454787F484444387E
:101908003844444420384444487F385454541808D0
:101918007E0901020C5252523E7F080404780044AA
:101928007D40002040443D007F1028440000417F56
:1019380040007C041804787C080404783844444443
:10194800387C14141408081414187C7C080404083F
:101958004854545420043F4440203C4040207C1CC0
:101968002040201C3C4030403C44281028440C5067
:1019780050503C4464544C44000836410000007FF9
:101988000000004136080010080810087846414653
:1019980078D7D7D7D7D7E7E7E7E7E72564005472C2
:1019A800616E6D697373696F6E2077656E74204F11
:1019B8004B0D0A656E76696569003E204D65737347
:1019C800616765206973206C6F7374202E2E2E0D4D
:1019D8000A003E2052657472616E6D697373696F97
:1019E8006E20636F756E743A2025640D0A002563B6
:1019F80031002563004C4153455220544147004172
:101A080020696E6963696172000D0A3E205458208E
:101A18006465766963652072656164790D0A0044BE
:101A280069737061726520706172612020636F6DE7
:101A380065636172005269666C6520200053696EA7
:101A4800676C6500566964613A200025200025000E
:101A580041205245434152524547415220202020BF
:101A680020004D756E69636F65733A20004D756E81
:101A780069636F65733A20200052454341525245CD
:101A880047415220202020202020002020202020F4
:101A9800202020202020202020202020004A6F61A4
:101AA8006F3A2000594F552057494E212100476170
:101AB8006D65204F76657200402048454144534883
:101AC8004F542121210056207C2044207C20402096
:101AD80000505F5F7C5F5F5F7C5F5F00207C200061
:101AE8004A5F5F7C5F5F5F7C5F5F00446973706122
:101AF8007261207061726120207265636F6D656329
:081B080061722E2E2E00610017
:00000001FF
