:100000000C9434000C9451000C9451000C94510049
:100010000C9451000C9451000C9451000C9451001C
:100020000C9451000C9451000C9451000C9451000C
:100030000C9451000C9451000C9451000C945100FC
:100040000C9451000C9451000C94C1020C9451007A
:100050000C9451000C9451000C9451000C945100DC
:100060000C9451000C94510011241FBECFEFD8E026
:10007000DEBFCDBF11E0A0E0B1E0E4EBF2E102C0F1
:1000800005900D92AC38B107D9F713E0ACE8B1E0B8
:1000900001C01D92A932B107E1F70E94DD050C9461
:1000A00058090C9400000E94FC0280E00E940203A8
:1000B00081E00C94080380918F010895FF920F93C3
:1000C0001F93CF93DF93082F80E00E940E03C7E0B9
:1000D000D0E0F12C10E098010C2E02C03595279548
:1000E0000A94E2F720FF02C081E001C080E00E9494
:1000F000140381E00E940E03FF0C0E941A03882360
:1001000011F081E0F82A80E00E940E03219718F791
:100110008F2DDF91CF911F910F91FF900895CF9375
:1001200080E00E9408038FEF0E945E00C82F81E0EC
:100130000E9408038C2FCF9108950E948F0085FDA7
:1001400004C084FF04C081E0089580E008958FEF2B
:1001500008950E948F00982F907381E009F080E04D
:100160000895CF9380E00E94080380E60E945E001D
:1001700080E00E945E00C82F81E00E9408038C2F5F
:10018000CF910895CF92DF92FF920F931F93CF9359
:10019000DF931F92CDB7DEB7F82E8B01C82ED92E74
:1001A0000AC0F60181916F0149830E945E00F80147
:1001B00081938F0149818C2D8F19841790F30F90B3
:1001C000DF91CF911F910F91FF90DF90CF90089515
:1001D000CF92DF92FF920F931F93CF93DF931F92E3
:1001E000CDB7DEB7F82E8B01C82ED92E0AC0F60186
:1001F00081916F0149830E945E00F80181938F0114
:1002000049818C2D8F19841790F30F90DF91CF9136
:100210001F910F91FF90DF90CF900895EF92FF9282
:100220001F93CF93DF931F92CDB7DEB7182FE82E21
:10023000F92E07C0F70181917F0169830E945E005A
:1002400069818E2D811B8617A8F30F90DF91CF91C6
:100250001F91FF90EF900895EF92FF921F93CF931D
:10026000DF931F92CDB7DEB7182FE82EF92E07C007
:10027000F70181917F0169830E945E0069818E2D63
:10028000811B8617A8F30F90DF91CF911F91FF90EC
:10029000EF9008951F93CF93DF931F92CDB7DEB7F2
:1002A000182F80E069830E940803812F8F7180627C
:1002B0000E945E006981862F0E945E0081E00F909F
:1002C000DF91CF911F910C94080380E00E940203FC
:1002D00068E080E00C944A0160E787E00E944A01F0
:1002E0006AE080E00C944A01CF93DF93EC0180E058
:1002F0000E9402030E946C0180E00E94080381EECC
:100300000E945E0081E00E94080380E00E940803D2
:1003100080EA0E945E0060918F01CE010E942C0154
:1003200081E00E94080381E0DF91CF910C940203E9
:1003300080E00E94080382EE0E945E0081E00E943D
:10034000080360E787E00E944A0180E00E94020300
:100350006BE080E00E944A0181E00C940203CF939D
:10036000DF93EC0180E00E94080381E60E945E00BA
:1003700040918F01BE01CE010E94E80081E00E9401
:10038000080360E487E0DF91CF910C944A01609309
:100390008F01682F85E00E944A0160E081E10E94A0
:1003A0004A0160918F0182E10E944A0160E083E18D
:1003B0000E944A0160E084E10E944A0160E085E118
:1003C0000E944A0160E086E10E944A0166E086E000
:1003D0000E944A0168E080E00E944A0163E081E0F7
:1003E0000E944A0163E082E00E944A016FE484E0D7
:1003F0000E944A0160E08CE10E944A010C9498013D
:10040000EF92FF921F93CF93DF931F92CDB7DEB78A
:10041000182F7B0180E049830E940803812F8F7190
:100420000E945E004981B701C7010E94C20081E0BD
:100430000F90DF91CF911F91FF90EF900C940803E4
:10044000CF93DF931F92CDB7DEB741E0BE016F5F60
:100450007F4F88E00E94000289818F700F90DF91AA
:10046000CF910895CF93DF931F92CDB7DEB741E0D0
:10047000BE016F5F7F4F87E10E940002898181701A
:100480000F90DF91CF9108950E948F0086FD07C0E5
:100490000E94320291E0882319F090E001C091E0BF
:1004A000892F0895EF92FF921F93CF93DF931F92AE
:1004B000CDB7DEB7182F7B0180E049830E94080387
:1004C000812F8F7180620E945E004981642FC70175
:1004D0000E940E0181E00F90DF91CF911F91FF905C
:1004E000EF900C940803CF93DF93EC0145E0BC013F
:1004F0008AE00E94520245E0BE0180E1DF91CF9187
:100500000C945202CF93DF93EC0180E00E9402032F
:1005100045E0BE018BE00E94520281E0DF91CF9165
:100520000C9402031092C50089E18093C40086E018
:100530008093C200E1ECF0E088E1808380818068F4
:1005400080838FB780688FBF0895CF93DF939C011E
:10055000EC0107C04091C00045FFFCCF499140939A
:10056000C600FC0101900020E9F73197E81BF90B68
:10057000AE01421B530BE417F50760F7DF91CF91F3
:1005800008951F920F920FB60F9211248F938091AE
:10059000C6008093960181E0809390018F910F9027
:1005A0000FBE0F901F901895CF93DF93CDB7DEB796
:1005B000C85CD1090FB6F894DEBF0FBECDBF8091E5
:1005C0009601813361F4289A6AE071E0CE010196C8
:1005D0000E947906CE0101960E94A50201C02898CA
:1005E00010929001C853DF4F0FB6F894DEBF0FBED4
:1005F000CDBFDF91CF910895219A229A259A239A0F
:1006000024980895882311F0299A08952998089527
:10061000882311F02A9A08952A980895882311F0C2
:100620002D9A08952D980895882311F02B9A0895F6
:100630002B98089583B180710895E0918D01F09118
:100640008E01309731F08193F0938E01E0938D010C
:100650000895E0912703F0912803309709F0099459
:100660000895CF93DF93EC0102C00E941D0389918E
:100670008111FBCFDF91CF9108952F923F924F923E
:100680005F926F927F928F929F92AF92BF92CF9222
:10069000DF92EF92FF920F931F93CF93DF93CDB72B
:1006A000DEB765970FB6F894DEBF0FBECDBF8C01E5
:1006B0003B013DE2232ED8018C91882309F45AC1D5
:1006C000853219F00F5F1F4FA5C0F8013180F0E3AC
:1006D0003F1209C0D80112963C900D5F1F4FEE24C7
:1006E000E394F12C0FC0BDE23B1629F00E5F1F4FC3
:1006F000E12CF12C07C0F80132800D5F1F4F92E012
:10070000E92EF12CC12CD12C11C08AE09601829FD8
:100710006001839FD00C1124C30CD11C37FCDA94E8
:1007200090E3C91AD108D8013D908D01832D8053E3
:100730008A3058F3BCE63B1619F0ECE43E1205C0D3
:100740006894E2F8D8013D908D01332009F412C17C
:10075000B0E6232DB3150CF420522F3409F460C0F9
:100760004CF4233409F448C0243469F0223409F0ED
:1007700050C053C0253539F0283509F447C023351A
:1007800009F047C003C04AE050E04CC05301E2E02A
:10079000AE0EB11CD3015C9011969C91252D392F82
:1007A000F9014F01821A930A81918111FACF07C092
:1007B00080E29D8B0E941D0343019D8903C0B2E02E
:1007C000EB22FF24E114F10441F43401EFEF6E1A3F
:1007D0007E0A8C149D0460F34301852D0E94310331
:1007E00006C080E20E941D03FFEF8F1A9F0A8C143F
:1007F0009D04B8F335015FCF730122E0E20EF11CD6
:10080000D3018C910E941D03370155CF40E150E088
:1008100009C0832D0E941D034ECF42E050E002C06C
:1008200048E050E0E2FE0CC04301B4E08B0E911CA6
:10083000F30160817181828193812434F9F413C0C2
:10084000C30102964C01243441F4D3016D917C9193
:10085000882777FD8095982F06C0F301608171810C
:1008600080E090E00BC097FF09C09095809570954F
:1008700061957F4F8F4F9F4F6894E3F89E012F5FE4
:100880003F4F3C8B2B8BA12CB12C2A01612C712C5E
:1008900002C0A988BA88A30192010E945706F62FC8
:1008A000E62FCA01B901FA303CF0A8E73A1202C0BB
:1008B000F7E201C0F7E0EF0FE05DAB89BC89ED9393
:1008C000BC8BAB8BF5013196FA8BE98B232B242B58
:1008D000252B29F07097E9F68FE0A82EB12CE3FEC6
:1008E0000EC0E1E0F0E0EC0FFD1F29893A89E20F2C
:1008F000F31F208295012E5F3F4F3A8B298BE0FE3C
:1009000002C090E301C090E2A988BA8832E0E322F5
:10091000FF2406C0892F9D8B0E941D0353019D89D2
:10092000E114F10441F435018FEF681A780AAC1430
:10093000BD0480F3530129893A89215031093A8B4A
:10094000298BE1E0F0E0EC0FFD1FE20FF31F808147
:100950000E941D0329893A89232B69F706C080E28A
:100960000E941D033FEFA31AB30AAC14BD04B8F3F1
:100970003401A1CE65960FB6F894DEBF0FBECDBF91
:10098000DF91CF911F910F91FF90EF90DF90CF906B
:10099000BF90AF909F908F907F906F905F904F909F
:1009A0003F902F9008950F931F93CF93DF93009163
:1009B0002703109128039093280380932703EB01CA
:1009C00002C00E941D0389918111FBCF109328035F
:1009D00000932703DF91CF911F910F910895CF933B
:1009E000DF93CDB7DEB7FE01359681919191BF01BE
:1009F0000E943D03DF91CF910895CF93DF93CDB750
:100A0000DEB78D819E8190938E0180938D01CE0102
:100A10000996BC018F8198850E943D03E0918D016C
:100A2000F0918E01108210928E0110928D01DF9153
:100A3000CF9108950F931F93CF93DF93CDB7DEB778
:100A400000912703109128038F81988590932803A4
:100A500080932703CE010B96BC0189859A850E945D
:100A60003D031093280300932703DF91CF911F913B
:100A70000F910895AF92BF92CF92DF92EF92FF92C3
:100A80000F931F93CF93DF9300D0CDB7DEB75901FB
:100A90007F936F935F934F9322E731E03F932F93C0
:100AA00089839A830E94EF040F900F900F900F900C
:100AB0000F900F9089819A8102301105C1F10430A5
:100AC000110509F44DC00130110509F067C08C0112
:100AD000780169E7C62E61E0D62E0DC0F70181913D
:100AE0007F011F928F93DF92CF920E94EF040F90AD
:100AF0000F900F900F90C701801B910B8A159B05DB
:100B00006CF380E20E941D0378010AC0F701819115
:100B10007F01982F90529F3508F08EE20E941D03AE
:100B2000C701801B910B8A159B0584F337C08C018C
:100B30005FE7E52E51E0F52EF801808191810E5F8F
:100B40001F4F9F938F93FF92EF920E94EF04F1E06B
:100B5000AF1AB1080F900F900F900F9069F71EC059
:100B60008C0145E8E42E41E0F42EF801808191816A
:100B7000228133810C5F1F4F3F932F939F938F935D
:100B8000FF92EF920E94EF04F1E0AF1AB1080F90CC
:100B90000F900F900F900F900F9039F78AE00F9001
:100BA0000F90DF91CF911F910F91FF90EF90DF9009
:100BB000CF90BF90AF900C941D030E9492028CE0E6
:100BC00091E00E94A5020E94530064E082E00E942E
:100BD000C70185E091E00E94730280E091E00E94ED
:100BE000820262E271E08FE592E00E9479068FE571
:100BF000A82E82E0B82E96E5C92E91E0D92E27E9DD
:100C0000E22E21E0F22EE50109900020E9F721977C
:100C1000CF55D24000E010E028C0F801E15AFD4F66
:100C2000808180939201818180939301828180935E
:100C300094018381809395010C5F1F4F82E991E0BD
:100C40000E9474010E94A9008111FCCF0E949D00A6
:100C500080939101811103C086E291E004C081304C
:100C600021F48EE391E00E94A502C017D107ACF6F3
:100C70000E942002809391011F928F93DF92CF9266
:100C8000FF92EF920E94800687E991E00E94A50200
:100C90000E94980183EC99E00197F1F700C00000F1
:100CA0000F900F900F900F900F900F90ACCFA1E28C
:100CB0001A2EAA1BBB1BFD010DC0AA1FBB1FEE1FD6
:100CC000FF1FA217B307E407F50720F0A21BB30B21
:100CD000E40BF50B661F771F881F991F1A9469F79D
:100CE00060957095809590959B01AC01BD01CF01F9
:100CF0000895FB01DC0101900D920020E1F70895B9
:100D0000A0E1B0E0E6E8F6E00C942F090F89188D19
:100D100086E08C831A8309838FEF9FE79E838D8300
:100D2000AE01455E5F4F588B4F87698D7A8DCE013E
:100D300001960E94A406EF81F885E00FF11F108252
:100D40006096E4E00C944B09ACE0B0E0EAEAF6E02F
:100D50000C9421097C016B018A01FC011782168227
:100D6000838181FFC7C188248394912C8C0E9D1EA2
:100D7000F7019381F60193FD859193FF81916F01B6
:100D8000882309F4B3C1853239F493FD859193FF2B
:100D900081916F01853229F4B70190E00E94970894
:100DA000E7CF712C312C20E02032A8F48B3261F097
:100DB00028F4803251F0833271F40BC08D3239F057
:100DC000803349F4216028C02260246025C0286057
:100DD00023C0206121C027FD27C0382F30533A306F
:100DE00078F426FF06C0FAE07F9E300D1124732EA2
:100DF00013C08AE0389E300D1124332E20620CC0BF
:100E00008E3221F426FD72C1206406C08C3611F4A6
:100E1000206802C0883641F4F60193FD859193FF66
:100E200081916F018111C0CF982F9554933018F0A4
:100E30009052933028F40C5F1F4FFFE3F9830DC0ED
:100E4000833631F0833771F0833509F05EC023C0FB
:100E5000F801808189830E5F1F4F66246394712C93
:100E6000540115C02801F2E04F0E511CF801A0807A
:100E7000B18026FF03C0672D70E002C06FEF7FEFE7
:100E8000C5012C870E948C083C0182012C856FE7EC
:100E9000262E222218C02801F2E04F0E511CF80124
:100EA000A080B18026FF03C0672D70E002C06FEF05
:100EB0007FEFC5012C870E9481083C012C8550E8FA
:100EC000252E222A820123FC1CC006C0B70180E225
:100ED00090E00E9497083A94832D90E06816790676
:100EE000A8F30FC0F50127FC859127FE81915F01D2
:100EF000B70190E00E94970831103A94F1E06F1A20
:100F000071086114710471F7EEC0843611F08936EE
:100F100041F5F80127FF07C06081718182819381CB
:100F20000C5F1F4F08C060817181882777FD809515
:100F3000982F0E5F1F4F4FE6642E622297FF09C065
:100F400090958095709561957F4F8F4F9F4FF0E8FA
:100F50006F2A2AE030E0A4010E94C308A82EA81836
:100F600044C0853731F43FEEB32EB2222AE030E0A0
:100F700024C099EFB92EB2228F36B9F020F488350B
:100F800009F0B4C00DC0803721F0883709F0AEC039
:100F900002C020E1B22AB4FE0BC084E0B82A08C027
:100FA00024FF09C0E6E0BE2A06C028E030E005C004
:100FB00020E130E002C020E132E0F801B7FE07C0D6
:100FC00060817181828193810C5F1F4F06C06081B7
:100FD000718180E090E00E5F1F4FA4010E94C30862
:100FE000A82EA8188FE7682E6B2066FE0BC0362D42
:100FF0003E7FA71450F464FE0AC062FC08C0362D80
:101000003E7E05C0BA2C362D03C0BA2C01C0B72CC9
:1010100034FF0DC0FE01EA0DF11D8081803311F413
:10102000397E09C032FF06C0B394B39404C0832F45
:10103000867809F0B39433FD14C030FF0FC07A2CCA
:10104000B31460F4730C7B18B32C08C0B70180E2B2
:1010500090E03C870E949708B3943C85B314B0F3AA
:1010600004C0B31410F43B1801C0312C34FF12C07B
:10107000B70180E390E03C870E9497083C8532FFEF
:101080001EC031FF03C088E590E002C088E790E011
:10109000B7010CC0832F867891F031FD02C080E249
:1010A00001C08BE237FD8DE2B70190E00E94970806
:1010B00006C0B70180E390E00E9497087A94A714D5
:1010C000C0F3AA94F401EA0DF11DB701808190E00C
:1010D0000E949708A110F5CF06C0B70180E290E00A
:1010E0000E9497083A943110F8CF42CEF70126813A
:1010F000378102C02FEF3FEFC9012C96E2E10C943B
:101100003D09FC010590615070400110D8F78095B1
:1011100090958E0F9F1F0895FC01615070400190C3
:101120000110D8F7809590958E0F9F1F08950F930B
:101130001F93CF93DF938C01EB018B8181FD03C063
:101140000FEF1FEF1AC082FF0DC02E813F818C81EF
:101150009D812817390764F4E881F9810193F983A7
:10116000E88306C0E885F985802F0995892B41F72A
:101170008E819F8101969F838E83C801DF91CF91DD
:101180001F910F910895FA01AA27283051F12031BB
:1011900081F1E8946F936E7F6E5F7F4F8F4F9F4F0B
:1011A000AF4FB1E03ED0B4E03CD0670F781F891F4D
:1011B0009A1FA11D680F791F8A1F911DA11D6A0F1B
:1011C000711D811D911DA11D20D009F468943F91CE
:1011D0002AE0269F11243019305D3193DEF6CF01CD
:1011E0000895462F4770405D4193B3E00FD0C9F793
:1011F000F6CF462F4F70405D4A3318F0495D31FD00
:101200004052419302D0A9F7EACFB4E0A695979552
:10121000879577956795BA95C9F700976105710528
:1012200008959B01AC010A2E069457954795379572
:101230002795BA95C9F7620F731F841F951FA01DCC
:1012400008952F923F924F925F926F927F928F926A
:101250009F92AF92BF92CF92DF92EF92FF920F9345
:101260001F93CF93DF93CDB7DEB7CA1BDB0B0FB64F
:10127000F894DEBF0FBECDBF09942A88398848880C
:101280005F846E847D848C849B84AA84B984C884A2
:10129000DF80EE80FD800C811B81AA81B981CE0F99
:1012A000D11D0FB6F894DEBF0FBECDBFED0108957E
:0412B000F894FFCFE0
:1012B400D7D7D7D7D7E7E7E7E7E761000D0A3E209E
:1012C4005458206465766963652072656164790D9C
:1012D4000A00610D0A003E205472616E6D697373D9
:1012E400696F6E2077656E74204F4B0D0A003E20A7
:1012F4004D657373616765206973206C6F73742027
:101304002E2E2E0D0A003E2052657472616E6D6998
:101314007373696F6E20636F756E743A2025640D64
:101324000A002530386C582000202530325800201F
:0C1334002530345800202530384C58007B
:00000001FF
