:100000000C9434000C9404030C944E030C94510093
:100010000C9451000C9460030C9451000C9451000A
:100020000C9451000C9451000C9451000C9401025A
:100030000C9451000C9451000C9472020C945100D9
:100040000C9451000C9451000C94D7050C94510061
:100050000C9451000C9451000C9451000C945100DC
:100060000C9451000C94510011241FBECFEFD8E026
:10007000DEBFCDBF14E0A0E0B1E0E0E9F7E102C0EF
:1000800005900D92A637B107D9F714E0A6E7B4E0C2
:1000900001C01D92AD3AB107E1F70E94AB080C9484
:1000A000C60B0C94000020E030E009C044E650E0AC
:1000B0000000000041505109D9F72F5F3F4F28172A
:1000C0003907A4F3089598E0409887FF02C0419A49
:1000D00001C04198409A880F9150B1F70895429A13
:1000E00043980E946300439A0895429843980E945F
:1000F0006300439A0895CF93C82F6770862F80645A
:100100000E9475008C2F8068CF910C947500CF935E
:10011000DF9360E080E00E947B00C8EFD1E080E0E8
:100120000E946F002197D9F7DF91CF910895449AEB
:10013000439A449884E690E00E945300449A81E2F6
:100140000E94750082EC0E94750083E10E94750098
:1001500080E20E94750089E00E9475000E9487007D
:1001600088E00E9475008CE00E94750060E080E0ED
:100170000E947B0084E690E00C9453000F931F9341
:10018000CF93DF9395E08902800111240F5D1E4F0C
:10019000C0E0D0E0F801EC0FFD1FE05AF1098081CA
:1001A0000E946F002196C530D105A1F780E0DF9154
:1001B000CF911F910F910C946F00CF93DF93EC01BF
:1001C00002C00E94BE0089918111FBCFDF91CF91C7
:1001D00008950F931F93CF93DF93CDB7DEB72F977B
:1001E0000FB6F894DEBF0FBECDBF9F938F938BE009
:1001F00093E09F938F938E010F5F1F4F1F930F9379
:100200000E94EE08C8010E94DD000F900F900F9031
:100210000F900F900F902F960FB6F894DEBF0FBE81
:10022000CDBFDF91CF911F910F9108951092C5001E
:1002300089E18093C40086E08093C200E1ECF0E0A5
:1002400088E1808380818068808308958FED84B900
:1002500087B18F6187B90E9497008DE08093690014
:1002600083E08DBBEDE6F0E0808182608083808159
:1002700080628083808181608083808180618083CF
:10028000E8E6F0E08081846080831092800089E05D
:100290008093810089E999E0909389008093880098
:1002A000EFE6F0E080818260808382E084BD84E0BC
:1002B00085BD82EC87BDEEE6F0E0808182608083C0
:1002C0008FB780688FBF0895CF93DF939C01EC01B7
:1002D00007C04091C00045FFFCCF49914093C60044
:1002E000FC0101900020E9F73197E81BF90BAE0102
:1002F000421B530B4E175F0760F3DF91CF910895B8
:100300000E940908882341F088E894E00E9474075D
:1003100088E894E00C9464010895FF920F931F9372
:10032000CF93DF93EC01E82FFD2FDF010D9000202C
:10033000E9F71197FA2EF81A10E001E038C0FE0133
:10034000E10FF11D17FDFA9580818093880481816A
:1003500080938904828180938A04838180938B04B3
:100360001C5F88E894E00E9439070E946E068111A4
:10037000FCCF0E94620680938604811112C08EE039
:1003800093E00E946401CE010E94640185B1802740
:1003900085B984E690E00E94530085B1802785B935
:1003A00006C0813021F48AE293E00E946401F116D4
:1003B00034F60E94E507809386041F928F9382E4AF
:1003C00093E09F938F938DE894E09F938F930E9487
:1003D000EE088DE894E00E9464010E945D0783ECC2
:1003E00099E00197F1F700C000000F900F900F9077
:1003F0000F900F900F90DF91CF911F910F91FF9071
:1004000008951F920F920FB60F9211248F939F930E
:1004100080911B0190911C01181619064CF48091D3
:100420001B0190911C01019790931C0180931B016B
:100430009F918F910F900FBE0F901F9018958091F4
:100440007D04811102C08AE001C08FE080937B04AB
:1004500080911B0190911C01892B09F042C083E01F
:1004600090E090931C0180931B010AC02F9A84E0B6
:100470008A95F1F700002F9884E08A95F1F7000043
:1004800080911B0190911C01181619067CF383E0E2
:1004900090E090931C0180931B0180911B0190912F
:1004A0001C01892BD1F781E090E090931C0180938F
:1004B0001B010AC02F9A84E08A95F1F700002F985B
:1004C00084E08A95F1F7000080911B0190911C0156
:1004D000181619067CF385E090E090931C01809338
:1004E0001B0108951F920F920FB60F9211248F9344
:1004F00080911D0118162CF480911D01815080936C
:100500001D0180918104813029F480911F01815067
:1005100080931F0180911F0187FF07C08091810494
:10052000811103C084E080931F0180911F0181111C
:100530000CC080918104813041F486E080931F01DA
:100540008091680084608093680080911E01181675
:100550002CF480911E01815080931E0180918304B0
:10056000813071F480918004815080938004809167
:100570008004811105C08EE180938704109283046A
:10058000809187041816B4F480917C04823091F431
:1005900080911D0181110EC04A9B10927C048091B4
:1005A000870481508093870486E080931D0181E059
:1005B00080937F0480917B04181604F580917B045E
:1005C0008A3021F080917B048F3009F42E9A80913B
:1005D0007B04815080937B0480917D04811105C050
:1005E00080917B04811101C02E9880917D0481301F
:1005F00029F480917B04873009F42E988F910F9015
:100600000FBE0F901F9018951F920F920FB60F926A
:1006100011248F9380917D0481111FC080918704E4
:100620001816B4F580917C04811112C080911E01CE
:1006300081110EC08AE080931E0180918704815051
:100640008093870481E080937C0480937F0420C0A2
:1006500080917C048823E1F016C080917C04811194
:100660000AC080911E01811106C082E080931E01A4
:1006700080937C040DC080917C04882349F0809194
:100680001E01811105C08AE080931E0110927C0436
:100690008F910F900FBE0F901F9018951F920F9281
:1006A0000FB60F9211248F9381E08093830488E228
:1006B000809380048F910F900FBE0F901F9018951C
:1006C0001F920F920FB60F9211240F931F932F9327
:1006D0003F934F935F936F937F938F939F93AF93CA
:1006E000BF93EF93FF93CF93DF93CDB7DEB72597FB
:1006F000DEBFCDBF89B18093AB048091AB0483731F
:10070000833009F040C08091810481113CC0809108
:1007100068008B7F8093680081E0809381048091E2
:10072000200118160CF0A1C0809120018055809303
:10073000200120912001822F992787FD90959F937A
:100740002F938EE593E09F938F938E010F5F1F4F42
:100750001F930F930E94EE08C8010E948D018091A3
:1007600020010F900F900F900F900F900F90181680
:100770002CF0809176048F5F8093760485B190E4AD
:10078000892785B972C08091AB0483738232A9F442
:1007900080918104811111C0809168008B7F8093CA
:1007A000680081E0809381048091200118160CF08C
:1007B0005CC080912001885219C08091AB04837382
:1007C0008132B9F580918104811133C08091680034
:1007D0008B7F8093680081E0809381048091200169
:1007E00018160CF042C080912001845180932001A2
:1007F00020912001822F992787FD90959F932F9319
:1008000082E693E09F938F938E010F5F1F4F1F939C
:100810000F930E94EE08C8010E948D0185B190E4FB
:10082000892785B90F900F900F900F900F900F9020
:100830001CC08091AB0484FF16C08091810481119B
:1008400012C0809168008B7F8093680081E0809364
:10085000810490917D04913019F410927D0405C0BB
:1008600080937D0402C0109281048091200187FD55
:10087000109220010F900F900F900F900F90DF912A
:10088000CF91FF91EF91BF91AF919F918F917F9108
:100890006F915F914F913F912F911F910F910F9009
:1008A0000FBE0F901F901895CF9360E080E10E94DB
:1008B0007B0085E693E00E94DD0062E084E00E9418
:1008C0007B008FE693E00E94DD00C6E084E690E0C6
:1008D0000E94530082E794E00E94DD00C150B1F70E
:1008E000CF910C94870089E793E00E9464010E94F5
:1008F000180664E082E00E948C0780E091E00E948C
:10090000380885E091E00E9447080E94870060E077
:1009100080E00E947B000E94870060E080E00E94EF
:100920007B008FE893E00E94DD00E09BFECF84E631
:1009300090E00E9453000E94870060E080E00E94E7
:100940007B008BE091E00E94640184E680932001AB
:100950008EE1809387040C94870060E080E00E9421
:100960007B008BE091E00E94DD0060E084E20E9469
:100970007B0080917D04813019F485EA93E002C008
:100980008BEA93E00E94DD0061E080E00E947B0042
:1009900082EB93E00E94DD0080912001992787FD82
:1009A00090950E94E9008091200184361CF489EB27
:1009B00093E002C08CEB93E00E94DD0062E080E0F7
:1009C0000E947B008091870418169CF48091870414
:1009D0008A301CF08EEB93E002C089EC93E00E9419
:1009E000DD0080918704992787FD90950E94E9009A
:1009F00025C080918304813019F485ED93E01CC0FB
:100A000080911A01803154F087EE93E00E94DD005E
:100A100080911A01815080931A0110C080911A01AF
:100A2000815080931A0180911A01811103C08EE1D7
:100A300080931A0189EF93E00E94DD0064E080E07A
:100A40000E947B008BE094E00E94DD0080910A010F
:100A5000992787FD90950E94E90080910A018436CC
:100A60001CF489EB93E002C08CEB93E00C94DD0066
:100A70000E94870063E080E10E947B0080910A0170
:100A800018161CF082E194E002C08CE194E00E9410
:100A9000DD0080917E04813051F464E088E00E94A2
:100AA0007B0086E294E00E94DD0010927E0488EBD9
:100AB0009BE00E9453000E94870060E086E00E9455
:100AC0007B0084E394E00E94DD0061E080E00E940E
:100AD0007B008FE394E00E94DD0062E086E00E94EC
:100AE0007B0080917904992787FD90950E94E90009
:100AF0008AE494E00E94DD0080917804992787FDC4
:100B000090950E94E9008AE494E00E94DD008091C3
:100B10007704992787FD90950E94E90063E080E0C3
:100B20000E947B008EE494E00E94DD0064E086E099
:100B30000E947B0080917804992787FD90950E9400
:100B4000E9008AE494E00E94DD008091790499270D
:100B500087FD90950E94E9008AE494E00E94DD0000
:100B600080917604992787FD90950E94E90080E1A5
:100B700097E20E9453000E94870064E080E00E9498
:100B80007B0089E594E00E94DD00E09BFECF84E6D7
:100B900090E00E94530084E680930A019EE19093C6
:100BA0008704809320010E9487000C94AD041F925B
:100BB0000F920FB60F9211248F938091C6008093ED
:100BC0008C0481E0809382048F910F900FBE0F9070
:100BD0001F901895CF93DF93CDB7DEB7A8970FB6C8
:100BE000F894DEBF0FBECDBF80918C04813359F4E1
:100BF00064E774E0CE0101960E94E708CE010196F9
:100C00000E94640102C010928204A8960FB6F89464
:100C1000DEBF0FBECDBFDF91CF91089581E68093F7
:100C200088048093890480938A0480938B040895B8
:100C30000E948A0880E00E94900881E00C94960847
:100C40008091AC040895FF920F931F93CF93DF938D
:100C5000082F80E00E949C08C7E0D0E0F12C10E053
:100C600098010C2E02C0359527950A94E2F720FFD3
:100C700002C081E001C080E00E94A20881E00E94E1
:100C80009C08FF0C0E94A808882311F081E0F82A34
:100C900080E00E949C08219718F78F2DDF91CF915B
:100CA0001F910F91FF900895CF9380E00E949608C6
:100CB0008FEF0E942306C82F81E00E9496088C2F98
:100CC000CF9108950E94540685FD04C084FF04C09E
:100CD00081E0089580E008958FEF08950E94540602
:100CE000982F907381E009F080E00895CF9380E021
:100CF0000E94960880E60E94230680E00E94230658
:100D0000C82F81E00E9496088C2FCF910895CF9232
:100D1000DF92FF920F931F93CF93DF931F92CDB774
:100D2000DEB7F82E8B01C82ED92E0AC0F6018191AC
:100D30006F0149830E942306F80181938F01498145
:100D40008C2D8F19841790F30F90DF91CF911F9105
:100D50000F91FF90DF90CF900895CF92DF92FF9296
:100D60000F931F93CF93DF931F92CDB7DEB7F82E6B
:100D70008B01C82ED92E0AC0F60181916F014983DB
:100D80000E942306F80181938F0149818C2D8F19D0
:100D9000841790F30F90DF91CF911F910F91FF90E7
:100DA000DF90CF900895EF92FF921F93CF93DF9340
:100DB0001F92CDB7DEB7182FE82EF92E07C0F70126
:100DC00081917F0169830E94230669818E2D811B99
:100DD0008617A8F30F90DF91CF911F91FF90EF90AE
:100DE0000895EF92FF921F93CF93DF931F92CDB799
:100DF000DEB7182FE82EF92E07C0F70181917F0189
:100E000069830E94230669818E2D811B8617A8F3B2
:100E10000F90DF91CF911F91FF90EF9008951F9356
:100E2000CF93DF931F92CDB7DEB7182F80E0698391
:100E30000E949608812F8F7180620E94230669812B
:100E4000862F0E94230681E00F90DF91CF911F91A2
:100E50000C94960880E00E94900868E080E00C9472
:100E60000F0760E787E00E940F076AE080E00C94BC
:100E70000F07CF93DF93EC0180E00E9490080E945F
:100E8000310780E00E94960881EE0E94230681E0EF
:100E90000E94960880E00E94960880EA0E9423063D
:100EA0006091AC04CE010E94F10681E00E94960898
:100EB00081E0DF91CF910C94900880E00E94960829
:100EC00082EE0E94230681E00E94960860E787E098
:100ED0000E940F0780E00E9490086BE080E00E9473
:100EE0000F0781E00C949008CF93DF93EC0180E032
:100EF0000E94960881E60E9423064091AC04BE0140
:100F0000CE010E94AD0681E00E94960860E487E071
:100F1000DF91CF910C940F076093AC04682F85E0AC
:100F20000E940F0760E081E10E940F076091AC040E
:100F300082E10E940F0760E083E10E940F0760E0FA
:100F400084E10E940F0760E085E10E940F0760E0E6
:100F500086E10E940F0766E086E00E940F0768E0C6
:100F600080E00E940F0763E081E00E940F0763E0CA
:100F700082E00E940F076FE484E00E940F0760E0A8
:100F80008CE10E940F070C945D07EF92FF921F9374
:100F9000CF93DF931F92CDB7DEB7182F7B0180E090
:100FA00049830E949608812F8F710E9423064981F0
:100FB000B701C7010E94870681E00F90DF91CF91B2
:100FC0001F91FF90EF900C949608CF93DF931F92A0
:100FD000CDB7DEB741E0BE016F5F7F4F88E00E9472
:100FE000C50789818F700F90DF91CF910895CF93BE
:100FF000DF931F92CDB7DEB741E0BE016F5F7F4F39
:1010000087E10E94C507898181700F90DF91CF91A0
:1010100008950E94540686FD07C00E94F70791E0DC
:10102000882319F090E001C091E0892F0895EF9294
:10103000FF921F93CF93DF931F92CDB7DEB7182F88
:101040007B0180E049830E949608812F8F71806226
:101050000E9423064981642FC7010E94D30681E0C4
:101060000F90DF91CF911F91FF90EF900C94960815
:10107000CF93DF93EC0145E0BC018AE00E941708A2
:1010800045E0BE0180E1DF91CF910C941708CF932A
:10109000DF93EC0180E00E94900845E0BE018BE008
:1010A0000E94170881E0DF91CF910C949008CF93B4
:1010B000DF93CDB7DEB72A970FB6F894DEBF0FBE29
:1010C000CDBF85E0E1E0F3E0DE01169601900D92E0
:1010D0008A95E1F785E0E6E0F3E0DE011196019004
:1010E0000D928A95E1F70E94180664E082E00E9462
:1010F0008C07CE0106960E943808CE0101960E9408
:1011000047082A960FB6F894DEBF0FBECDBFDF9119
:10111000CF910895219A229A259A239A2498089586
:10112000882311F0299A089529980895882311F0A9
:101130002A9A08952A980895882311F02D9A0895DF
:101140002D980895882311F02B9A08952B980895CF
:1011500083B1807108950E9426010E9454040E9468
:101160007304C1E080917F04813021F40E941F024A
:1011700010927F048091200118161CF40E94AD0487
:1011800007C0809178048F5F809378040E943805AF
:101190000E940E060E94800180918804813611F31E
:1011A00080930A011816F4F2809179048F5F80937E
:1011B000790480918904813339F4C0937E0480914D
:1011C00077048F5F809377040E943805CBCFFB01B3
:1011D000DC0101900D920020E1F70895A0E1B0E05C
:1011E000E4EFF8E00C949D0B0F89188D86E08C835A
:1011F0001A8309838FEF9FE79E838D83AE01455E3F
:101200005F4F588B4F87698D7A8DCE0101960E9472
:101210001209EF81F885E00FF11F10826096E4E07B
:101220000C94B90BACE0B0E0E8E1F9E00C948F0B62
:101230007C016B018A01FC0117821682838181FF88
:10124000C7C188248394912C8C0E9D1EF701938135
:10125000F60193FD859193FF81916F01882309F435
:10126000B3C1853239F493FD859193FF81916F016C
:10127000853229F4B70190E00E94050BE7CF712C6D
:10128000312C20E02032A8F48B3261F028F4803237
:1012900051F0833271F40BC08D3239F0803349F450
:1012A000216028C02260246025C0286023C02061FE
:1012B00021C027FD27C0382F30533A3078F426FF5D
:1012C00006C0FAE07F9E300D1124732E13C08AE011
:1012D000389E300D1124332E20620CC08E3221F442
:1012E00026FD72C1206406C08C3611F4206802C04D
:1012F000883641F4F60193FD859193FF81916F014A
:101300008111C0CF982F9554933018F0905293309C
:1013100028F40C5F1F4FFFE3F9830DC0833631F0D3
:10132000833771F0833509F05EC023C0F8018081F6
:1013300089830E5F1F4F66246394712C540115C07E
:101340002801F2E04F0E511CF801A080B18026FF69
:1013500003C0672D70E002C06FEF7FEFC5012C87DF
:101360000E94FA0A3C0182012C856FE7262E222278
:1013700018C02801F2E04F0E511CF801A080B18086
:1013800026FF03C0672D70E002C06FEF7FEFC5013D
:101390002C870E94EF0A3C012C8550E8252E222A3A
:1013A000820123FC1CC006C0B70180E290E00E94CD
:1013B000050B3A94832D90E068167906A8F30FC0C8
:1013C000F50127FC859127FE81915F01B70190E02F
:1013D0000E94050B31103A94F1E06F1A7108611404
:1013E000710471F7EEC0843611F0893641F5F801C9
:1013F00027FF07C060817181828193810C5F1F4F3D
:1014000008C060817181882777FD8095982F0E5FD5
:101410001F4F4FE6642E622297FF09C0909580957A
:10142000709561957F4F8F4F9F4FF0E86F2A2AE0AC
:1014300030E0A4010E94310BA82EA81844C08537C3
:1014400031F43FEEB32EB2222AE030E024C099EF0F
:10145000B92EB2228F36B9F020F4883509F0B4C025
:101460000DC0803721F0883709F0AEC002C020E1FE
:10147000B22AB4FE0BC084E0B82A08C024FF09C019
:10148000E6E0BE2A06C028E030E005C020E130E0FA
:1014900002C020E132E0F801B7FE07C0608171812F
:1014A000828193810C5F1F4F06C06081718180E053
:1014B00090E00E5F1F4FA4010E94310BA82EA818C8
:1014C0008FE7682E6B2066FE0BC0362D3E7FA7147B
:1014D00050F464FE0AC062FC08C0362D3E7E05C092
:1014E000BA2C362D03C0BA2C01C0B72C34FF0DC066
:1014F000FE01EA0DF11D8081803311F4397E09C0AF
:1015000032FF06C0B394B39404C0832F867809F0E9
:10151000B39433FD14C030FF0FC07A2CB31460F4C1
:10152000730C7B18B32C08C0B70180E290E03C87B5
:101530000E94050BB3943C85B314B0F304C0B314FC
:1015400010F43B1801C0312C34FF12C0B70180E306
:1015500090E03C870E94050B3C8532FF1EC031FFA6
:1015600003C088E590E002C088E790E0B7010CC0B6
:10157000832F867891F031FD02C080E201C08BE2BA
:1015800037FD8DE2B70190E00E94050B06C0B70160
:1015900080E390E00E94050B7A94A714C0F3AA940C
:1015A000F401EA0DF11DB701808190E00E94050B66
:1015B000A110F5CF06C0B70180E290E00E94050BB4
:1015C0003A943110F8CF42CEF7012681378102C01C
:1015D0002FEF3FEFC9012C96E2E10C94AB0BFC011D
:1015E0000590615070400110D8F7809590958E0F4E
:1015F0009F1F0895FC016150704001900110D8F7C1
:10160000809590958E0F9F1F08950F931F93CF93F2
:10161000DF938C01EB018B8181FD03C00FEF1FEF86
:101620001AC082FF0DC02E813F818C819D812817B9
:10163000390764F4E881F9810193F983E88306C0EE
:10164000E885F985802F0995892B41F78E819F8147
:1016500001969F838E83C801DF91CF911F910F91D7
:101660000895FA01AA27283051F1203181F1E89438
:101670006F936E7F6E5F7F4F8F4F9F4FAF4FB1E085
:101680003ED0B4E03CD0670F781F891F9A1FA11D80
:10169000680F791F8A1F911DA11D6A0F711D811D81
:1016A000911DA11D20D009F468943F912AE0269F46
:1016B00011243019305D3193DEF6CF010895462FA5
:1016C0004770405D4193B3E00FD0C9F7F6CF462F86
:1016D0004F70405D4A3318F0495D31FD40524193EF
:1016E00002D0A9F7EACFB4E0A695979587957795AC
:1016F0006795BA95C9F700976105710508959B0133
:10170000AC010A2E06945795479537952795BA95BB
:10171000C9F7620F731F841F951FA01D08952F9294
:101720003F924F925F926F927F928F929F92AF9271
:10173000BF92CF92DF92EF92FF920F931F93CF93BE
:10174000DF93CDB7DEB7CA1BDB0B0FB6F894DEBF55
:101750000FBECDBF09942A88398848885F846E847B
:101760007D848C849B84AA84B984C884DF80EE80C5
:10177000FD800C811B81AA81B981CE0FD11D0FB6CE
:10178000F894DEBF0FBECDBFED010895F894FFCFF2
:10179000D7D7D7D7D7A7A7A7A7A764506564726F75
:1017A000000000000000000000001E0A00060A06FB
:1017B00064000000000000005F0000000700070058
:1017C000147F147F14242A7F2A122313086462369C
:1017D000495522500005030000001C224100004131
:1017E000221C0014083E081408083E080800503067
:1017F00000000808080808006060000020100804C5
:10180000023E5149453E00427F40004261514946F7
:101810002141454B311814127F1027454545393C6D
:101820004A49493001710905033649494936064993
:1018300049291E00363600000056360000081422E2
:101840004100141414141400412214080201510917
:10185000063CFA6EFA3C7E1111117E7F49494936E9
:101860003E414141227F4141221C7F494949417FFC
:10187000090909013E4149497A7F0808087F00416A
:101880007F41002040413F017F081422417F4040BA
:1018900040407F020C027F7F0408107F3E4141419F
:1018A0003E7F090909063E4151215E7F09192946FB
:1018B000464949493101017F01013F4040403F1FF6
:1018C0002040201F3F4038403F631408146307083E
:1018D0007008076151494543007F414100020408F7
:1018E00010200041417F00040201020440404040BA
:1018F00040000102040020545454787F4844443886
:101900003844444420384444487F385454541808D8
:101910007E0901020C5252523E7F080404780044B2
:101920007D40002040443D007F1028440000417F5E
:1019300040007C041804787C08040478384444444B
:10194000387C14141408081414187C7C0804040847
:101950004854545420043F4440203C4040207C1CC8
:101960002040201C3C4030403C44281028440C506F
:1019700050503C4464544C44000836410000007F01
:10198000000000413608001008081008784641465B
:1019900078D7D7D7D7D7E7E7E7E7E72564005472CA
:1019A000616E6D697373696F6E2077656E74204F19
:1019B0004B0D0A656E76696569003E204D6573734F
:1019C000616765206973206C6F7374202E2E2E0D55
:1019D0000A003E2052657472616E6D697373696F9F
:1019E0006E20636F756E743A2025640D0A002563BE
:1019F00031002563004C415345522054414700417A
:101A000020696E6963696172000D0A3E2054582096
:101A10006465766963652072656164790D0A0044C6
:101A200069737061726520706172612020636F6DEF
:101A300065636172005269666C650053696E676C1C
:101A40006500566964613A200025200025004D7527
:101A50006E69636F65733A20004D756E69636F65DB
:101A6000733A20200041205245434152524547419C
:101A700052202020202000524543415252454741E8
:101A80005220202020202020002020202020202044
:101A900020202020202020202020004A6F616F3A43
:101AA0002000594F552057494E21210047616D654F
:101AB000204F7665720040204845414453484F54BA
:101AC0002121210056207C2044207C2040200050F1
:101AD0005F5F7C5F5F5F7C5F5F00207C20004A5F10
:101AE0005F7C5F5F5F7C5F5F004469737061726100
:101AF000207061726120207265636F6D6563617231
:061B00002E2E2E006100F4
:00000001FF
