:100000000C9434000C9413030C9451030C94510081
:100010000C9451000C946B030C9451000C945100FF
:100020000C9451000C9451000C9451000C9451000C
:100030000C9451000C9451000C9482020C945100C9
:100040000C9451000C9451000C9451000C945100EC
:100050000C9451000C9451000C9451000C945100DC
:100060000C9451000C94510011241FBECFEFD8E026
:10007000DEBFCDBF13E0A0E0B1E0E8E3F0E102C0F5
:1000800005900D92AC39B107D9F713E0ACE9B3E0B4
:1000900001C01D92A33BB107E1F70E942E050C940D
:1000A0001A080C940000CF93DF9300D000D000D04A
:1000B000CDB7DEB79E838D831A82198214C01C824D
:1000C0001B8207C0000000008B819C8101969C83ED
:1000D0008B838B819C8184369105A4F389819A81DD
:1000E00001969A83898329813A818D819E8128177F
:1000F00039072CF326960FB6F894DEBF0FBECDBF9E
:10010000DF91CF910895CF93DF9300D0CDB7DEB7C5
:100110008A8388E0898332C088E290E028E230E078
:10012000F90120812E7FFC0120838A81882354F4E9
:1001300088E290E028E230E0F90120812260FC01B1
:10014000208309C088E290E028E230E0F9012081B4
:100150002D7FFC01208388E290E028E230E0F90165
:1001600020812160FC0120838A81992787FD909559
:10017000880F991F8A838981815089838981181604
:100180005CF20F900F90DF91CF910895CF93DF93A2
:100190001F92CDB7DEB7898388E290E028E230E095
:1001A000F90120812460FC01208388E290E028E2AC
:1001B00030E0F9012081277FFC01208389810E94A2
:1001C000830088E290E028E230E0F9012081286095
:1001D000FC0120830F90DF91CF910895CF93DF939F
:1001E0001F92CDB7DEB7898388E290E028E230E045
:1001F000F90120812B7FFC01208388E290E028E236
:1002000030E0F9012081277FFC01208389810E9451
:10021000830088E290E028E230E0F9012081286044
:10022000FC0120830F90DF91CF910895CF93DF934E
:1002300000D0CDB7DEB789836A838A8187708064F6
:100240000E94EE00898180680E94EE000F900F905E
:10025000DF91CF910895CF93DF9300D0CDB7DEB774
:1002600060E080E00E94160188EF91E09A83898324
:1002700008C080E00E94C60089819A8101979A8314
:10028000898389819A81181619069CF30F900F9023
:10029000DF91CF910895CF93DF93CDB7DEB788E29A
:1002A00090E028E230E0F90120812061FC01208308
:1002B00088E290E028E230E0F90120812860FC012A
:1002C000208388E290E028E230E0F90120812F7E4F
:1002D000FC01208384E690E00E94530088E290E0D5
:1002E00028E230E0F90120812061FC01208381E2D5
:1002F0000E94EE0082EC0E94EE0083E10E94EE007C
:1003000080E20E94EE0089E00E94EE000E942B0134
:1003100088E00E94EE008CE00E94EE0060E080E049
:100320000E94160184E690E00E945300DF91CF9175
:100330000895CF93DF9300D01F92CDB7DEB78B83A4
:100340001A8219821DC08B81992787FD90959C0187
:1003500020523109C901880F991F880F991F820FF8
:10036000931F29813A81820F931F80509F4FFC0178
:1003700080810E94C60089819A8101969A8389832F
:1003800089819A8185309105F4F280E00E94C6004F
:100390000F900F900F90DF91CF910895CF93DF933F
:1003A00000D0CDB7DEB79A8389830CC089819A814A
:1003B000FC01208189819A8101969A838983822F09
:1003C0000E94990189819A81FC018081882371F7BB
:1003D0000F900F90DF91CF910895CF93DF93CDB71A
:1003E000DEB761970FB6F894DEBF0FBECDBF998B15
:1003F000888B89898F9388898F938CEE92E0892FDF
:100400008F938CEE92E08F93CE010196892F8F937C
:10041000CE0101968F930E9442050F900F900F908E
:100420000F900F900F90CE0101960E94CE01619621
:100430000FB6F894DEBF0FBECDBFDF91CF91089508
:10044000CF93DF93CDB7DEB784E290E02FEDFC01D0
:10045000208387E290E02FE1FC0120830E944B0182
:1004600089E690E02FE0FC0120838DE390E023E01B
:10047000FC01208388E690E028E630E0F901208145
:100480002460FC0120838DE690E02DE630E0F90148
:1004900020812260FC0120838DE690E02DE630E093
:1004A000F90120812062FC0120838DE690E02DE699
:1004B00030E0F90120812160FC01208384E490E098
:1004C00022E0FC01208385E490E024E0FC0120830D
:1004D00087E490E022ECFC0120838EE690E02EE69B
:1004E00030E0F90120812260FC0120838FE590E05B
:1004F0002FE530E0F90120812068FC012083DF91A5
:10050000CF9108951F920F9200905F000F921124D7
:100510002F933F938F939F93EF93FF93CF93DF930B
:10052000CDB7DEB780919C03813029F48091E6023B
:1005300081508093E6028091E60288233CF480910A
:100540009C03882319F484E08093E6028091E602FC
:10055000882381F480919C03813061F486E080934C
:10056000E60288E690E028E630E0F9012081246088
:10057000FC0120838091E70218162CF48091E70299
:1005800081508093E7028091E702833054F085E246
:1005900090E025E230E0F901308120E82327FC01DA
:1005A00020838091E702823049F485E290E025E2E1
:1005B00030E0F90120812F77FC01208380919E0398
:1005C000813019F585E290E025E230E0F9012081E3
:1005D0002160FC01208380919D03815080939D03C5
:1005E00080919D03882389F485E290E025E230E044
:1005F000F90120812E7FFC0120838EE190E0909311
:10060000EB028093EA0210929E03DF91CF91FF915B
:10061000EF919F918F913F912F910F9000925F00EA
:100620000F901F9018951F920F9200905F000F92ED
:1006300011242F933F938F939F93EF93FF93CF9327
:10064000DF93CDB7DEB78091E7028823E1F4809194
:10065000EA029091EB0218161906ACF48AE0809336
:10066000E7028091EA029091EB0201979093EB02EE
:100670008093EA0285E290E025E230E0F9012081F2
:100680002068FC012083DF91CF91FF91EF919F9132
:100690008F913F912F910F9000925F000F901F90CC
:1006A00018951F920F9200905F000F9211248F9364
:1006B000CF93DF93CDB7DEB781E080939E0388E2CE
:1006C00080939D03DF91CF918F910F9000925F00F7
:1006D0000F901F9018951F920F9200905F000F923D
:1006E00011242F933F938F939F93EF93FF93CF9377
:1006F000DF931F92CDB7DEB789E290E0FC018081E5
:1007000089838981992787FD909580729927009721
:1007100029F180919C03882309F588E690E028E67A
:1007200030E0F90120812B7FFC01208381E0809360
:100730009C038091E50218160CF06BC08091E502D5
:1007400080558093E50285E290E025E230E0F901F2
:10075000308120E42327FC0120835BC08981992715
:1007600087FD909581709927009729F180919C03CE
:10077000882309F588E690E028E630E0F901208139
:100780002B7FFC01208381E080939C038091E50214
:1007900018160CF03EC08091E50288528093E50265
:1007A00085E290E025E230E0F901308120E4232762
:1007B000FC0120832EC08981992787FD9095827046
:1007C0009927009721F180919C03882301F588E601
:1007D00090E028E630E0F90120812B7FFC012083A6
:1007E00081E080939C038091E502181694F4809137
:1007F000E50284518093E50285E290E025E230E055
:10080000F901308120E42327FC01208302C01092EB
:100810009C038091E502882314F41092E5020F9066
:10082000DF91CF91FF91EF919F918F913F912F9108
:100830000F9000925F000F901F901895CF93DF9359
:1008400000D0CDB7DEB71A82198260E080E10E9445
:1008500016018FEE92E00E94CE0162E084E00E94D9
:10086000160189EF92E00E94CE011A8219820DC012
:1008700084E690E00E94530083E093E00E94CE0162
:1008800089819A8101969A83898389819A818630A8
:10089000910574F30E942B010F900F90DF91CF917F
:1008A0000895CF93DF93CDB7DEB70E942B0160E0B0
:1008B00080E00E94160185E093E00E94CE0163E093
:1008C00080E00E9416018CE193E00E94CE010000BE
:1008D0008CE390E0FC0180818823D1F38EE190E0ED
:1008E0009093EB028093EA020E942B01DF91CF915B
:1008F0000895CF93DF93CDB7DEB760E080E10E942B
:1009000016018FEE92E00E94CE0161E080E00E942D
:10091000160187E293E00E94CE0180EE92E00E94F1
:10092000CE0162E080E00E94160180E393E00E9425
:10093000CE018091E502992787FD90950E94ED01F7
:100940008091E50284362CF487E393E00E94CE0187
:1009500004C08AE393E00E94CE0163E080E00E943D
:1009600016018091EA029091EB02181619069CF488
:100970008CE393E00E94CE0187E493E00E94CE01D5
:1009800063E087E30E9416018091EA029091EB02F6
:100990000E94ED012EC08091E8029091E902803121
:1009A000910574F08AE493E00E94CE018091E80200
:1009B0009091E90201979093E9028093E80219C0AF
:1009C0008091E8029091E90201979093E902809367
:1009D000E8028091E8029091E902009731F48EE1FB
:1009E00090E09093E9028093E8028CE593E00E9406
:1009F000CE0165E080E00E9416018EE693E00E9441
:100A0000CE01DF91CF910895CF93DF93CDB7DEB7BD
:100A10000E942B0160E080E10E94160186E793E0CE
:100A20000E94CE0163E080E00E94160180E893E01E
:100A30000E94CE0188EB9BE00E9453008EE190E083
:100A40009093EB028093EA0284E68093E5020E9491
:100A50002B010E947904DF91CF910895CF93DF930A
:100A6000CDB7DEB70E9420020E941E040E945104EE
:100A70008091E50218161CF40E947904F9CF0E94B7
:100A80000405F6CFA0E1B0E0E8E4F5E00C94F1074E
:100A90000F89188D86E08C831A8309838FEF9FE777
:100AA0009E838D83AE01455E5F4F588B4F87698D66
:100AB0007A8DCE0101960E946605EF81F885E00FE0
:100AC000F11F10826096E4E00C940D08ACE0B0E0F9
:100AD000ECE6F5E00C94E3077C016B018A01FC0174
:100AE00017821682838181FFC7C188248394912C49
:100AF0008C0E9D1EF7019381F60193FD859193FF66
:100B000081916F01882309F4B3C1853239F493FDD3
:100B1000859193FF81916F01853229F4B70190E0AF
:100B20000E945907E7CF712C312C20E02032A8F425
:100B30008B3261F028F4803251F0833271F40BC0B3
:100B40008D3239F0803349F4216028C0226024605E
:100B500025C0286023C0206121C027FD27C0382F71
:100B600030533A3078F426FF06C0FAE07F9E300D0D
:100B70001124732E13C08AE0389E300D1124332EB9
:100B800020620CC08E3221F426FD72C1206406C0A2
:100B90008C3611F4206802C0883641F4F60193FDCA
:100BA000859193FF81916F018111C0CF982F95544A
:100BB000933018F09052933028F40C5F1F4FFFE3EE
:100BC000F9830DC0833631F0833771F0833509F036
:100BD0005EC023C0F801808189830E5F1F4F6624A9
:100BE0006394712C540115C02801F2E04F0E511C82
:100BF000F801A080B18026FF03C0672D70E002C01D
:100C00006FEF7FEFC5012C870E944E073C018201E8
:100C10002C856FE7262E222218C02801F2E04F0E05
:100C2000511CF801A080B18026FF03C0672D70E041
:100C300002C06FEF7FEFC5012C870E9443073C0184
:100C40002C8550E8252E222A820123FC1CC006C0D8
:100C5000B70180E290E00E9459073A94832D90E01A
:100C600068167906A8F30FC0F50127FC859127FEC9
:100C700081915F01B70190E00E94590731103A94C9
:100C8000F1E06F1A71086114710471F7EEC08436D7
:100C900011F0893641F5F80127FF07C060817181A5
:100CA000828193810C5F1F4F08C06081718188270A
:100CB00077FD8095982F0E5F1F4F4FE6642E6222BE
:100CC00097FF09C090958095709561957F4F8F4FE4
:100CD0009F4FF0E86F2A2AE030E0A4010E948507C8
:100CE000A82EA81844C0853731F43FEEB32EB222A7
:100CF0002AE030E024C099EFB92EB2228F36B9F045
:100D000020F4883509F0B4C00DC0803721F0883751
:100D100009F0AEC002C020E1B22AB4FE0BC084E0EC
:100D2000B82A08C024FF09C0E6E0BE2A06C028E0B1
:100D300030E005C020E130E002C020E132E0F801FF
:100D4000B7FE07C060817181828193810C5F1F4F64
:100D500006C06081718180E090E00E5F1F4FA401AA
:100D60000E948507A82EA8188FE7682E6B2066FEC4
:100D70000BC0362D3E7FA71450F464FE0AC062FCFF
:100D800008C0362D3E7E05C0BA2C362D03C0BA2CC5
:100D900001C0B72C34FF0DC0FE01EA0DF11D8081AA
:100DA000803311F4397E09C032FF06C0B394B39486
:100DB00004C0832F867809F0B39433FD14C030FF4C
:100DC0000FC07A2CB31460F4730C7B18B32C08C0DA
:100DD000B70180E290E03C870E945907B3943C85BC
:100DE000B314B0F304C0B31410F43B1801C0312C99
:100DF00034FF12C0B70180E390E03C870E9459079E
:100E00003C8532FF1EC031FF03C088E590E002C080
:100E100088E790E0B7010CC0832F867891F031FD10
:100E200002C080E201C08BE237FD8DE2B70190E0A5
:100E30000E94590706C0B70180E390E00E9459075D
:100E40007A94A714C0F3AA94F401EA0DF11DB70136
:100E5000808190E00E945907A110F5CF06C0B7012C
:100E600080E290E00E9459073A943110F8CF42CEC8
:100E7000F7012681378102C02FEF3FEFC9012C9681
:100E8000E2E10C94FF07FC010590615070400110F5
:100E9000D8F7809590958E0F9F1F0895FC016150A3
:100EA000704001900110D8F7809590958E0F9F1F8C
:100EB00008950F931F93CF93DF938C01EB018B81E8
:100EC00081FD03C00FEF1FEF1AC082FF0DC02E81FE
:100ED0003F818C819D812817390764F4E881F9816D
:100EE0000193F983E88306C0E885F985802F099589
:100EF000892B41F78E819F8101969F838E83C80144
:100F0000DF91CF911F910F910895FA01AA27283000
:100F100051F1203181F1E8946F936E7F6E5F7F4FC6
:100F20008F4F9F4FAF4FB1E03ED0B4E03CD0670F42
:100F3000781F891F9A1FA11D680F791F8A1F911D95
:100F4000A11D6A0F711D811D911DA11D20D009F4E5
:100F500068943F912AE0269F11243019305D319327
:100F6000DEF6CF010895462F4770405D4193B3E010
:100F70000FD0C9F7F6CF462F4F70405D4A3318F0B7
:100F8000495D31FD4052419302D0A9F7EACFB4E068
:100F9000A6959795879577956795BA95C9F7009720
:100FA0006105710508959B01AC010A2E06945795C1
:100FB000479537952795BA95C9F7620F731F841F18
:100FC000951FA01D08952F923F924F925F926F92AE
:100FD0007F928F929F92AF92BF92CF92DF92EF92C9
:100FE000FF920F931F93CF93DF93CDB7DEB7CA1B4A
:100FF000DB0B0FB6F894DEBF0FBECDBF09942A8875
:10100000398848885F846E847D848C849B84AA841C
:10101000B984C884DF80EE80FD800C811B81AA81A9
:10102000B981CE0FD11D0FB6F894DEBF0FBECDBF74
:08103000ED010895F894FFCFD3
:10103800000000000000005F000000070007001427
:101048007F147F14242A7F2A1223130864623649E6
:101058005522500005030000001C224100004122D7
:101068001C0014083E081408083E08080050300008
:101078000008080808080060600000201008040242
:101088003E5149453E00427F400042615149462158
:1010980041454B311814127F1027454545393C4AC4
:1010A8004949300171090503364949493606494914
:1010B800291E00363600000056360000081422416A
:1010C80000141414141400412214080201510906D2
:1010D800324979413E7E1111117E7F494949363E98
:1010E800414141227F4141221C7F494949417F09B1
:1010F8000909013E4149497A7F0808087F00417F74
:1011080041002040413F017F081422417F40404078
:10111800407F020C027F7F0408107F3E4141413E20
:101128007F090909063E4151215E7F091929464672
:101138004949493101017F01013F4040403F1F209B
:1011480040201F3F4038403F63140814630708706D
:1011580008076151494543007F41410002040810D6
:10116800200041417F000402010204404040404009
:10117800000102040020545454787F48444438380D
:1011880044444420384444487F3854545418087E12
:101198000901020C5252523E7F0804047800447D33
:1011A80040002040443D007F1028440000417F401B
:1011B800007C041804787C080404783844444438D3
:1011C8007C14141408081414187C7C0804040848B7
:1011D80054545420043F4440203C4040207C1C2070
:1011E80040201C3C4030403C44281028440C5050BF
:1011F800503C4464544C44000836410000007F00D1
:101208000000413608001008081008784641467862
:101218004A6F616F0064060A1E001E002564004CB8
:101228004153455220544147004120696E69636922
:101238006172002E0044697370617265207061727A
:10124800612020636F6D65C3A7617200506C61797E
:10125800657220323A2000506C617965723A20003C
:10126800566964613A200025200025004D756E6995
:10127800636F65733A200020200052454341525263
:1012880045474152202020202020200020202020D7
:1012980020202020202020202020202020005465ED
:1012A8006D706F3A200047414D45204F564552001A
:1012B8004469737061726120706172612020726587
:0C12C800636F6D656361722E2E2E0000B6
:00000001FF
