:100000000C9434000C9439020C9480020C9451002E
:100010000C9451000C9492020C9451000C945100D9
:100020000C9451000C9451000C9451000C9451000C
:100030000C9451000C9451000C94EE010C9451005E
:100040000C9451000C9451000C94CA040C9451006F
:100050000C9451000C9451000C9451000C945100DC
:100060000C9451000C94510011241FBECFEFD8E026
:10007000DEBFCDBF14E0A0E0B1E0E6E6F5E102C0EE
:1000800005900D92A435B107D9F714E0A4E5B4E0CA
:1000900001C01D92A338B107E1F70E949E070C949E
:1000A000B10A0C94000020E030E009C044E650E0C2
:1000B0000000000041505109D9F72F5F3F4F28172A
:1000C0003907A4F3089598E0409887FF02C0419A49
:1000D00001C04198409A880F9150B1F70895429A13
:1000E00043980E946300439A0895429843980E945F
:1000F0006300439A0895CF93C82F6770862F80645A
:100100000E9475008C2F8068CF910C947500CF935E
:10011000DF9360E080E00E947B00C8EFD1E080E0E8
:100120000E946F002197D9F7DF91CF910895449AEB
:10013000439A449884E690E00E945300449A81E2F6
:100140000E94750082EC0E94750083E10E94750098
:1001500080E20E94750089E00E9475000E9487007D
:1001600088E00E9475008CE00E94750060E080E0ED
:100170000E947B0084E690E00C9453000F931F9341
:10018000CF93DF9395E0890280011124025E1E4F18
:10019000C0E0D0E0F801EC0FFD1FE05AF1098081CA
:1001A0000E946F002196C530D105A1F780E0DF9154
:1001B000CF911F910F910C946F00CF93DF93EC01BF
:1001C00002C00E94BE0089918111FBCFDF91CF91C7
:1001D00008950F931F93CF93DF93CDB7DEB72F977B
:1001E0000FB6F894DEBF0FBECDBF9F938F9388E00C
:1001F00093E09F938F938E010F5F1F4F1F930F9379
:100200000E94D907C8010E94DD000F900F900F9047
:100210000F900F900F902F960FB6F894DEBF0FBE81
:10022000CDBFDF91CF911F910F9108951092C5001E
:1002300089E18093C40086E08093C200E1ECF0E0A5
:1002400088E1808380818068808308958FED84B900
:1002500087B18F6187B90E9497008FE08093690012
:1002600083E08DBBE8E6F0E0808184608083EDE68A
:10027000F0E08081826080838081806280838081E1
:100280008160808382E084BD84E085BD82EC87BD8F
:10029000EEE6F0E08081826080838FB780688FBF58
:1002A0000895CF93DF939C01EC0107C04091C000FB
:1002B00045FFFCCF49914093C600FC01019000200E
:1002C000E9F73197E81BF90BAE01421B530B4E17B0
:1002D0005F0760F3DF91CF9108950E94FC068823A9
:1002E00041F08FE594E00E9467068FE594E00C945E
:1002F00051010895FF920F931F93CF93DF93EC0169
:10030000E82FFD2FDF010D900020E9F71197FA2E5D
:10031000F81A10E001E038C0FE01E10FF11D17FDF1
:10032000FA95808180935F0481818093600482814B
:10033000809361048381809362041C5F8FE594E065
:100340000E942C060E9461058111FCCF0E94550578
:1003500080935D04811112C08BE093E00E945101F3
:10036000CE010E94510185B1802785B984E690E0D5
:100370000E94530085B1802785B906C0813021F4E1
:1003800087E293E00E945101F11634F60E94D806EC
:1003900080935D041F928F938FE393E09F938F93DD
:1003A00084E694E09F938F930E94D90784E694E0BB
:1003B0000E9451010E94500683EC99E00197F1F7E9
:1003C00000C000000F900F900F900F900F900F90B3
:1003D000DF91CF911F910F91FF9008951F920F927F
:1003E0000FB60F9211248F9380915A04813029F413
:1003F00080911C01815080931C0180911C0187FF1A
:1004000007C080915A04811103C084E080931C01CD
:1004100080911C0181110CC080915A04813041F4FB
:1004200086E080931C01809168008460809368005E
:1004300080911B0118162CF480911B018150809330
:100440001B0180915C04813071F4809159048150CA
:100450008093590480915904811105C08EE18093E5
:100460005E0410925C048F910F900FBE0F901F904E
:1004700018951F920F920FB60F9211242F938F93FE
:100480009F93EF93FF9380911B0181112FC0809167
:100490005E0418165CF58AE080931B0180915E046F
:1004A000815080935E0497E01FC02F9A22E02A9526
:1004B000F1F700002F98E7E0EA95F1F78150A9F7EE
:1004C000E8EAF1E03197F1F700C0000080E22F9AEE
:1004D000F2E0FA95F1F700002F9827E02A95F1F75E
:1004E0008150A9F7915011F080E2DFCFFF91EF9199
:1004F0009F918F912F910F900FBE0F901F90189585
:100500001F920F920FB60F9211248F9381E0809368
:100510005C0488E2809359048F910F900FBE0F9076
:100520001F9018951F920F920FB60F9211240F93E0
:100530001F932F933F934F935F936F937F938F936B
:100540009F93AF93BF93EF93FF93CF93DF93CDB779
:10055000DEB72597DEBFCDBF89B185FF40C0909142
:100560005A0491113CC0809168008B7F8093680091
:1005700081E080935A0480911D0118160CF080C010
:1005800080911D01805580931D0120911D01822FB6
:10059000992787FD90959F932F938BE593E09F93E9
:1005A0008F938E010F5F1F4F1F930F930E94D907E8
:1005B000C8010E947A0180911D010F900F900F9049
:1005C0000F900F900F9018162CF0809154048F5FAD
:1005D0008093540485B190E4892785B951C080FF88
:1005E00015C090915A04911111C0809168008B7FC1
:1005F0008093680081E080935A0480911D01181651
:100600000CF03EC080911D01885215C081FF36C09C
:1006100080915A04811132C0809168008B7F809351
:10062000680081E080935A0480911D01181644F5FA
:1006300080911D01845180931D0120911D01822F05
:10064000992787FD90959F932F938FE593E09F9334
:100650008F938E010F5F1F4F1F930F930E94D90737
:10066000C8010E947A0185B190E4892785B90F906D
:100670000F900F900F900F900F9002C010925A049D
:1006800080911D0187FD10921D010F900F900F901A
:100690000F900F90DF91CF91FF91EF91BF91AF91AC
:1006A0009F918F917F916F915F914F913F912F918A
:1006B0001F910F910F900FBE0F901F901895CF9321
:1006C00060E080E10E947B0082E693E00E94DD0012
:1006D00062E084E00E947B008CE693E00E94DD00F3
:1006E000C6E084E690E00E94530080E594E00E941A
:1006F000DD00C150B1F7CF910C94870086E793E0FD
:100700000E9451010E940B0564E082E00E947F0676
:1007100080E091E00E942B0785E091E00E943A077B
:100720000E94870060E080E00E947B000E948700BA
:1007300060E080E00E947B008CE893E00E94DD0096
:100740008CB38823E9F384E690E00E9453000E9472
:10075000870060E080E00E947B008BE091E00E94D7
:10076000510184E680931D018EE180935E040C9418
:10077000870060E080E10E947B008BE091E00E94B6
:10078000DD0061E080E00E947B0082EA93E00E944D
:10079000DD0080911D01992787FD90950E94E90059
:1007A00080911D0184361CF489EA93E002C08CEA32
:1007B00093E00E94DD0062E080E00E947B00809177
:1007C0005E0418169CF480915E048A301CF08EEA58
:1007D00093E002C089EB93E00E94DD0080915E040B
:1007E000992787FD90950E94E9001EC080911A010B
:1007F000803154F085EC93E00E94DD0080911A0175
:10080000815080931A0110C080911A018150809309
:100810001A0180911A01811103C08EE180931A019F
:1008200087ED93E00E94DD0064E080E00E947B00A1
:1008300089EE93E00E94DD0080910A01992787FDEF
:1008400090950E94E90080910A0184361CF489EA9F
:1008500093E002C08CEA93E00C94DD000E948700D4
:1008600060E080E10E947B0080910A0118161CF074
:1008700080EF93E002C08AEF93E00E94DD00809158
:100880005804813051F462E088E00E947B0084E0EB
:1008900094E00E94DD00109258040E94870060E0FE
:1008A00086E00E947B0082E194E00E94DD0061E02E
:1008B00080E00E947B008DE194E00E94DD0062E018
:1008C00086E00E947B0080915704992787FD9095D0
:1008D0000E94E90088E294E00E94DD0080915604C5
:1008E000992787FD90950E94E90088E294E00E9494
:1008F000DD0080915504992787FD90950E94E900BD
:1009000063E080E00E947B008CE294E00E94DD00C6
:1009100064E086E00E947B0080915604992787FD61
:1009200090950E94E90088E294E00E94DD008091A9
:100930005704992787FD90950E94E90088E294E08A
:100940000E94DD0080915404992787FD90950E94B4
:10095000E90080E197E20E9453000E94870064E072
:1009600080E00E947B0087E394E00E94DD008CB36E
:100970008823E9F384E690E00E94530084E68093A4
:100980000A019EE190935E0480931D010E948700FE
:100990000C94B9031F920F920FB60F9211248F93EC
:1009A0008091C6008093630481E080935B048F9103
:1009B0000F900FBE0F901F901895CF93DF93CDB778
:1009C000DEB7A8970FB6F894DEBF0FBECDBF8091FB
:1009D0006304813359F462E574E0CE0101960E940C
:1009E000D207CE0101960E94510102C010925B0411
:1009F000A8960FB6F894DEBF0FBECDBFDF91CF91A2
:100A0000089581E680935F0480936004809361047D
:100A10008093620408950E947D0780E00E9483070E
:100A200081E00C948907809182040895FF920F93CE
:100A30001F93CF93DF93082F80E00E948F07C7E0BA
:100A4000D0E0F12C10E098010C2E02C035952795CE
:100A50000A94E2F720FF02C081E001C080E00E941A
:100A6000950781E00E948F07FF0C0E949B07882357
:100A700011F081E0F82A80E00E948F07219718F793
:100A80008F2DDF91CF911F910F91FF900895CF93FC
:100A900080E00E9489078FEF0E941605C82F81E031
:100AA0000E9489078C2FCF9108950E94470585FDEC
:100AB00004C084FF04C081E0089580E008958FEFB2
:100AC00008950E944705982F907381E009F080E017
:100AD0000895CF9380E00E94890780E60E94160562
:100AE00080E00E941605C82F81E00E9489078C2FA4
:100AF000CF910895CF92DF92FF920F931F93CF93E0
:100B0000DF931F92CDB7DEB7F82E8B01C82ED92EFA
:100B10000AC0F60181916F0149830E941605F80110
:100B200081938F0149818C2D8F19841790F30F9039
:100B3000DF91CF911F910F91FF90DF90CF9008959B
:100B4000CF92DF92FF920F931F93CF93DF931F9269
:100B5000CDB7DEB7F82E8B01C82ED92E0AC0F6010C
:100B600081916F0149830E941605F80181938F01DD
:100B700049818C2D8F19841790F30F90DF91CF91BD
:100B80001F910F91FF90DF90CF900895EF92FF9209
:100B90001F93CF93DF931F92CDB7DEB7182FE82EA8
:100BA000F92E07C0F70181917F0169830E94160524
:100BB00069818E2D811B8617A8F30F90DF91CF914D
:100BC0001F91FF90EF900895EF92FF921F93CF93A4
:100BD000DF931F92CDB7DEB7182FE82EF92E07C08E
:100BE000F70181917F0169830E94160569818E2D2D
:100BF000811B8617A8F30F90DF91CF911F91FF9073
:100C0000EF9008951F93CF93DF931F92CDB7DEB778
:100C1000182F80E069830E948907812F8F7180627D
:100C20000E9416056981862F0E94160581E00F90AB
:100C3000DF91CF911F910C94890780E00E94830778
:100C400068E080E00C94020660E787E00E940206FC
:100C50006AE080E00C940206CF93DF93EC0180E021
:100C60000E9483070E94240680E00E94890781EE8B
:100C70000E94160581E00E94890780E00E94890792
:100C800080EA0E94160560918204CE010E94E4056C
:100C900081E00E94890781E0DF91CF910C94830766
:100CA00080E00E94890782EE0E94160581E00E9482
:100CB000890760E787E00E94020680E00E948307C0
:100CC0006BE080E00E94020681E00C948307CF93E2
:100CD000DF93EC0180E00E94890781E60E941605FF
:100CE00040918204BE01CE010E94A00581E00E94D5
:100CF000890760E487E0DF91CF910C94020660934E
:100D00008204682F85E00E94020660E081E10E9473
:100D100002066091820482E10E94020660E083E1A3
:100D20000E94020660E084E10E94020660E085E124
:100D30000E94020660E086E10E94020666E086E00C
:100D40000E94020668E080E00E94020663E081E003
:100D50000E94020663E082E00E9402066FE484E0E3
:100D60000E94020660E08CE10E9402060C9450068C
:100D7000EF92FF921F93CF93DF931F92CDB7DEB711
:100D8000182F7B0180E049830E948907812F8F7192
:100D90000E9416054981B701C7010E947A0581E0CA
:100DA0000F90DF91CF911F91FF90EF900C948907E6
:100DB000CF93DF931F92CDB7DEB741E0BE016F5FE7
:100DC0007F4F88E00E94B80689818F700F90DF9175
:100DD000CF910895CF93DF931F92CDB7DEB741E057
:100DE000BE016F5F7F4F87E10E94B80689818170E5
:100DF0000F90DF91CF9108950E94470586FD07C0AF
:100E00000E94EA0691E0882319F090E001C091E089
:100E1000892F0895EF92FF921F93CF93DF931F9234
:100E2000CDB7DEB7182F7B0180E049830E94890788
:100E3000812F8F7180620E9416054981642FC7013E
:100E40000E94C60581E00F90DF91CF911F91FF9026
:100E5000EF900C948907CF93DF93EC0145E0BC0140
:100E60008AE00E940A0745E0BE0180E1DF91CF9150
:100E70000C940A07CF93DF93EC0180E00E94830774
:100E800045E0BE018BE00E940A0781E0DF91CF912F
:100E90000C948307CF93DF93CDB7DEB72A970FB6B5
:100EA000F894DEBF0FBECDBF85E0EEEFF2E0DE01CD
:100EB000169601900D928A95E1F785E0E3E0F3E064
:100EC000DE01119601900D928A95E1F70E940B05C3
:100ED00064E082E00E947F06CE0106960E942B0706
:100EE000CE0101960E943A072A960FB6F894DEBF0B
:100EF0000FBECDBFDF91CF910895219A229A259AF6
:100F0000239A24980895882311F0299A08952998FE
:100F10000895882311F02A9A08952A98089588231D
:100F200011F02D9A08952D980895882311F02B9A89
:100F300008952B98089583B1807108950E94260129
:100F40000E945F030E947E03C1E080911D0118167C
:100F50001CF40E94B90307C0809156048F5F8093F0
:100F600056040E942E040E9401050E946D0180918A
:100F70005F04813651F380930A01181634F380918F
:100F800057048F5F8093570480916004813339F454
:100F9000C0935804809155048F5F809355040E943C
:100FA0002E04D3CFFB01DC0101900D920020E1F76C
:100FB0000895A0E1B0E0EFEDF7E00C94880A0F8906
:100FC000188D86E08C831A8309838FEF9FE79E83B9
:100FD0008D83AE01455E5F4F588B4F87698D7A8D4B
:100FE000CE0101960E94FD07EF81F885E00FF11F09
:100FF00010826096E4E00C94A40AACE0B0E0E3E078
:10100000F8E00C947A0A7C016B018A01FC011782DA
:101010001682838181FFC7C188248394912C8C0E12
:101020009D1EF7019381F60193FD859193FF8191B8
:101030006F01882309F4B3C1853239F493FD85919A
:1010400093FF81916F01853229F4B70190E00E94EE
:10105000F009E7CF712C312C20E02032A8F48B323C
:1010600061F028F4803251F0833271F40BC08D327C
:1010700039F0803349F4216028C02260246025C003
:10108000286023C0206121C027FD27C0382F30539E
:101090003A3078F426FF06C0FAE07F9E300D112426
:1010A000732E13C08AE0389E300D1124332E206237
:1010B0000CC08E3221F426FD72C1206406C08C362D
:1010C00011F4206802C0883641F4F60193FD859141
:1010D00093FF81916F018111C0CF982F9554933068
:1010E00018F09052933028F40C5F1F4FFFE3F98300
:1010F0000DC0833631F0833771F0833509F05EC05F
:1011000023C0F801808189830E5F1F4F662463949A
:10111000712C540115C02801F2E04F0E511CF8014A
:10112000A080B18026FF03C0672D70E002C06FEF82
:101130007FEFC5012C870E94E5093C0182012C85C7
:101140006FE7262E222218C02801F2E04F0E511C14
:10115000F801A080B18026FF03C0672D70E002C0B7
:101160006FEF7FEFC5012C870E94DA093C012C85C7
:1011700050E8252E222A820123FC1CC006C0B7019C
:1011800080E290E00E94F0093A94832D90E0681686
:101190007906A8F30FC0F50127FC859127FE819100
:1011A0005F01B70190E00E94F00931103A94F1E03C
:1011B0006F1A71086114710471F7EEC0843611F072
:1011C000893641F5F80127FF07C06081718182816E
:1011D00093810C5F1F4F08C060817181882777FD64
:1011E0008095982F0E5F1F4F4FE6642E622297FF67
:1011F00009C090958095709561957F4F8F4F9F4F57
:10120000F0E86F2A2AE030E0A4010E941C0AA82E10
:10121000A81844C0853731F43FEEB32EB2222AE03D
:1012200030E024C099EFB92EB2228F36B9F020F405
:10123000883509F0B4C00DC0803721F0883709F037
:10124000AEC002C020E1B22AB4FE0BC084E0B82ACE
:1012500008C024FF09C0E6E0BE2A06C028E030E04E
:1012600005C020E130E002C020E132E0F801B7FE25
:1012700007C060817181828193810C5F1F4F06C01E
:101280006081718180E090E00E5F1F4FA4010E9499
:101290001C0AA82EA8188FE7682E6B2066FE0BC0CC
:1012A000362D3E7FA71450F464FE0AC062FC08C0CD
:1012B000362D3E7E05C0BA2C362D03C0BA2C01C097
:1012C000B72C34FF0DC0FE01EA0DF11D8081803383
:1012D00011F4397E09C032FF06C0B394B39404C040
:1012E000832F867809F0B39433FD14C030FF0FC00C
:1012F0007A2CB31460F4730C7B18B32C08C0B701BC
:1013000080E290E03C870E94F009B3943C85B314DE
:10131000B0F304C0B31410F43B1801C0312C34FFF7
:1013200012C0B70180E390E03C870E94F0093C8541
:1013300032FF1EC031FF03C088E590E002C088E79D
:1013400090E0B7010CC0832F867891F031FD02C088
:1013500080E201C08BE237FD8DE2B70190E00E9490
:10136000F00906C0B70180E390E00E94F0097A948A
:10137000A714C0F3AA94F401EA0DF11DB70180810E
:1013800090E00E94F009A110F5CF06C0B70180E2FD
:1013900090E00E94F0093A943110F8CF42CEF70164
:1013A0002681378102C02FEF3FEFC9012C96E2E181
:1013B0000C94960AFC010590615070400110D8F71A
:1013C000809590958E0F9F1F0895FC01615070408D
:1013D00001900110D8F7809590958E0F9F1F08956A
:1013E0000F931F93CF93DF938C01EB018B8181FDD2
:1013F00003C00FEF1FEF1AC082FF0DC02E813F8187
:101400008C819D812817390764F4E881F981019363
:10141000F983E88306C0E885F985802F0995892B33
:1014200041F78E819F8101969F838E83C801DF9152
:10143000CF911F910F910895FA01AA27283051F1F9
:10144000203181F1E8946F936E7F6E5F7F4F8F4FF5
:101450009F4FAF4FB1E03ED0B4E03CD0670F781F54
:10146000891F9A1FA11D680F791F8A1F911DA11D39
:101470006A0F711D811D911DA11D20D009F4689472
:101480003F912AE0269F11243019305D3193DEF61A
:10149000CF010895462F4770405D4193B3E00FD0D0
:1014A000C9F7F6CF462F4F70405D4A3318F0495DBB
:1014B00031FD4052419302D0A9F7EACFB4E0A6959E
:1014C0009795879577956795BA95C9F700976105C0
:1014D000710508959B01AC010A2E06945795479516
:1014E00037952795BA95C9F7620F731F841F951F0B
:1014F000A01D08952F923F924F925F926F927F921C
:101500008F929F92AF92BF92CF92DF92EF92FF9213
:101510000F931F93CF93DF93CDB7DEB7CA1BDB0BBF
:101520000FB6F894DEBF0FBECDBF09942A88398864
:1015300048885F846E847D848C849B84AA84B9846B
:10154000C884DF80EE80FD800C811B81AA81B98177
:10155000CE0FD11D0FB6F894DEBF0FBECDBFED018B
:061560000895F894FFCF8E
:10156600D7D7D7D7D7A7A7A7A7A764506564726FA1
:10157600000000000000000000001E0A06640000D3
:1015860000000000005F00000007000700147F1441
:101596007F14242A7F2A12231308646236495522AF
:1015A600500005030000001C2241000041221C00DF
:1015B60014083E081408083E0808005030000008C9
:1015C60008080808006060000020100804023E5168
:1015D60049453E00427F400042615149462141450E
:1015E6004B311814127F1027454545393C4A494965
:1015F6003001710905033649494936064949291E0C
:101606000036360000005636000008142241001449
:1016160014141414004122140802015109063CFA5C
:101626006EFA3C7E1111117E7F494949363E414191
:1016360041227F4141221C7F494949417F090909CD
:10164600013E4149497A7F0808087F00417F4100F1
:101656002040413F017F081422417F404040407FA7
:10166600020C027F7F0408107F3E4141413E7F0904
:101676000909063E4151215E7F0919294646494915
:10168600493101017F01013F4040403F1F2040207A
:101696001F3F4038403F631408146307087008076B
:1016A6006151494543007F41410002040810200072
:1016B60041417F00040201020440404040400001D5
:1016C60002040020545454787F4844443838444433
:1016D6004420384444487F3854545418087E09013D
:1016E600020C5252523E7F0804047800447D4000AA
:1016F6002040443D007F1028440000417F40007C8C
:10170600041804787C0804047838444444387C146B
:10171600141408081414187C7C080404084854544B
:101726005420043F4440203C4040207C1C20402064
:101736001C3C4030403C44281028440C5050503C3F
:101746004464544C44000836410000007F00000009
:101756004136080010080810087846414678D7D761
:10176600D7D7D7E7E7E7E7E72564005472616E6DE0
:10177600697373696F6E2077656E74204F4B0D0A1F
:10178600656E76696569003E204D657373616765B0
:10179600206973206C6F7374202E2E2E0D0A003E66
:1017A6002052657472616E6D697373696F6E206322
:1017B6006F756E743A2025640D0A00256331002585
:1017C60063004C4153455220544147004120696E05
:1017D6006963696172000D0A3E205458206465767B
:1017E6006963652072656164790D0A0044697370E6
:1017F60061726520706172612020636F6D6563613F
:101806007200566964613A200025200025004D7556
:101816006E69636F65733A20004D756E69636F6517
:10182600733A2020005245434152524547415220C7
:1018360020202020202000202020202020202020C2
:101846002020202020202020004A6F616F3A2000AF
:10185600594F552057494E21210047616D65204F4C
:101866007665720040204845414453484F54212133
:10187600210056207C2044207C20402000505F5FC1
:101886007C5F5F5F7C5F5F00207C20004A5F5F7C3F
:101896005F5F5F7C5F5F0044697370617261207097
:1018A60061726120207265636F6D656361722E2EB1
:0418B6002E0061009F
:00000001FF
