:100000000C9434000C949E010C94C4010C94510087
:100010000C9451000C94D6010C9451000C94510096
:100020000C9451000C9451000C9451000C9451000C
:100030000C9451000C9451000C9440010C9451000C
:100040000C9451000C9451000C9451000C945100EC
:100050000C9451000C9451000C9451000C945100DC
:100060000C9451000C94510011241FBECFEFD8E026
:10007000DEBFCDBF13E0A0E0B1E0E8E2F1E102C0F5
:1000800005900D92A03AB107D9F713E0A0EAB3E0CA
:1000900001C01D92A83BB107E1F70E94AA050C948C
:1000A00092080C94000020E030E009C044E650E0E3
:1000B0000000000041505109D9F72F5F3F4F28172A
:1000C0003907A4F3089598E0409887FF02C0419A49
:1000D00001C04198409A880F9150B1F70895429A13
:1000E00043980E946300439A0895429843980E945F
:1000F0006300439A0895CF93C82F6770862F80645A
:100100000E9475008C2F8068CF910C947500CF935E
:10011000DF9360E080E00E947B00C8EFD1E080E0E8
:100120000E946F002197D9F7DF91CF910895449AEB
:10013000439A449884E690E00E945300449A81E2F6
:100140000E94750082EC0E94750083E10E94750098
:1001500080E20E94750089E00E9475000E9487007D
:1001600088E00E9475008CE00E94750060E080E0ED
:100170000E947B0084E690E00C9453000F931F9341
:10018000CF93DF9395E0890280011124045F1E4F15
:10019000C0E0D0E0F801EC0FFD1FE05AF1098081CA
:1001A0000E946F002196C530D105A1F780E0DF9154
:1001B000CF911F910F910C946F00CF93DF93EC01BF
:1001C00002C00E94BE0089918111FBCFDF91CF91C7
:1001D00008950F931F93CF93DF93CDB7DEB72F977B
:1001E0000FB6F894DEBF0FBECDBF9F938F9386EFFF
:1001F00092E09F938F938E010F5F1F4F1F930F937A
:100200000E94BA05C8010E94DD000F900F900F9068
:100210000F900F900F902F960FB6F894DEBF0FBE81
:10022000CDBFDF91CF911F910F9108958FED84B9CC
:100230008FE187B90E9497008FE08093690083E087
:100240008DBBE8E6F0E0808184608083EDE6F0E03D
:1002500080818260808380818062808380818160F0
:10026000808382E084BD84E085BD82EC87BDEEE6BC
:10027000F0E08081826080838FB780688FBF0895AF
:100280001F920F920FB60F9211248F939F9380911C
:10029000A103813029F480910501815080930501EB
:1002A0008091050187FF07C08091A103811103C0E0
:1002B00084E0809305018091050181110CC080913B
:1002C000A103813041F486E08093050180916800AC
:1002D0008460809368008091040118162CF480914A
:1002E00004018150809304018091040183301CF04B
:1002F00085B1805885B980910401823009F42F9826
:100300008091A203813099F4289A8091A0038150B2
:100310008093A0038091A003811109C028988EE1E9
:1003200090E090930101809300011092A2039F91AD
:100330008F910F900FBE0F901F9018951F920F92E4
:100340000FB60F9211248F939F9380910401811116
:1003500014C08091000190910101181619066CF4E7
:100360008AE080930401809100019091010101973E
:1003700090930101809300012F9A9F918F910F908C
:100380000FBE0F901F9018951F920F920FB60F92ED
:1003900011248F9381E08093A20388E28093A003CD
:1003A0008F910F900FBE0F901F9018951F920F9274
:1003B0000FB60F9211248F939F9389B185FF14C0BC
:1003C0009091A103911110C0809168008B7F809360
:1003D000680081E08093A103809106011816C4F59E
:1003E00080910601805515C080FF1AC09091A1032D
:1003F000911116C0809168008B7F8093680081E026
:100400008093A10380910601181614F580910601CE
:1004100088528093060185B190E4892785B918C078
:1004200081FF14C08091A103811110C080916800E8
:100430008B7F8093680081E08093A1038091060107
:10044000181634F4809106018451E3CF1092A10371
:100450008091060187FD109206019F918F910F9068
:100460000FBE0F901F901895CF93DF9360E080E14F
:100470000E947B0089EF92E00E94DD0062E084E050
:100480000E947B0083E093E00E94DD00C6E0D0E0A4
:1004900084E690E00E9453008DE993E00E94DD0025
:1004A0002197B1F7DF91CF910C9487000E948700CC
:1004B00060E080E00E947B008DE093E00E94DD0020
:1004C00063E080E00E947B0083E293E00E94DD0015
:1004D0008CB38823E9F38EE190E09093010180933F
:1004E00000010C94870060E080E10E947B0089EFAE
:1004F00092E00E94DD0061E080E00E947B008EE2DD
:1005000093E00E94DD0087E091E00E94DD0062E060
:1005100080E00E947B0087E393E00E94DD008091F1
:100520000601992787FD90950E94E90080910601B8
:1005300084361CF48EE393E002C081E493E00E94D1
:10054000DD0063E080E00E947B00809100019091DB
:100550000101181619069CF483E493E00E94DD0063
:100560008FE693E00E94DD0063E087E30E947B005A
:1005700080910001909101010E94E9002DC08091BD
:10058000020190910301409774F08EE493E00E9481
:10059000DD00809102019091030101979093030186
:1005A0008093020119C0809102019091030101978B
:1005B00090930301809302018091020190910301C5
:1005C000892B31F48EE190E0909303018093020136
:1005D00080E693E00E94DD0065E080E00E947B0001
:1005E00082E793E00C94DD000E94870060E080E1E8
:1005F0000E947B008AE793E00E94DD0063E080E0D8
:100600000E947B0084E893E00E94DD0088EB9BE081
:100610000E9453008EE190E09093010180930001CD
:1006200084E6809306010E9487000C9473020E9466
:10063000890580E00E948F0581E00C9495058091EA
:10064000B7030895FF920F931F93CF93DF93082F63
:1006500080E00E949B05C7E0D0E0F12C10E09801FB
:100660000C2E02C0359527950A94E2F720FF02C0B0
:1006700081E001C080E00E94A10581E00E949B050D
:10068000FF0C0E94A705882311F081E0F82A80E082
:100690000E949B05219718F78F2DDF91CF911F9115
:1006A0000F91FF900895CF9380E00E9495058FEF02
:1006B0000E942203C82F81E00E9495058C2FCF91C4
:1006C00008950E94530385FD04C084FF04C081E0A7
:1006D000089580E008958FEF08950E945303982FA6
:1006E000907381E009F080E00895CF9380E00E944C
:1006F000950580E60E94220380E00E942203C82F15
:1007000081E00E9495058C2FCF910895CF92DF92C2
:10071000FF920F931F93CF93DF931F92CDB7DEB756
:10072000F82E8B01C82ED92E0AC0F60181916F01D7
:1007300049830E942203F80181938F0149818C2D06
:100740008F19841790F30F90DF91CF911F910F9124
:10075000FF90DF90CF900895CF92DF92FF920F939A
:100760001F93CF93DF931F92CDB7DEB7F82E8B0187
:10077000C82ED92E0AC0F60181916F0149830E94CB
:100780002203F80181938F0149818C2D8F198417E1
:1007900090F30F90DF91CF911F910F91FF90DF9019
:1007A000CF900895EF92FF921F93CF93DF931F9204
:1007B000CDB7DEB7182FE82EF92E07C0F7018191CB
:1007C0007F0169830E94220369818E2D811B861718
:1007D000A8F30F90DF91CF911F91FF90EF900895B4
:1007E000EF92FF921F93CF93DF931F92CDB7DEB7A7
:1007F000182FE82EF92E07C0F70181917F01698338
:100800000E94220369818E2D811B8617A8F30F9009
:10081000DF91CF911F91FF90EF9008951F93CF9399
:10082000DF931F92CDB7DEB7182F80E069830E9457
:100830009505812F8F7180620E9422036981862F26
:100840000E94220381E00F90DF91CF911F910C94C1
:10085000950580E00E948F0568E080E00C940E040E
:1008600060E787E00E940E046AE080E00C940E04CA
:10087000CF93DF93EC0180E00E948F050E9430044B
:1008800080E00E94950581EE0E94220381E00E9493
:10089000950580E00E94950580EA0E942203609100
:1008A000B703CE010E94F00381E00E94950581E02C
:1008B000DF91CF910C948F0580E00E94950582EE28
:1008C0000E94220381E00E94950560E787E00E9474
:1008D0000E0480E00E948F056BE080E00E940E0411
:1008E00081E00C948F05CF93DF93EC0180E00E94B0
:1008F000950581E60E9422034091B703BE01CE0117
:100900000E94AC0381E00E94950560E487E0DF91DE
:10091000CF910C940E046093B703682F85E00E947A
:100920000E0460E081E10E940E046091B70382E151
:100930000E940E0460E083E10E940E0460E084E106
:100940000E940E0460E085E10E940E0460E086E1F2
:100950000E940E0466E086E00E940E0468E080E0DB
:100960000E940E0463E081E00E940E0463E082E0D6
:100970000E940E046FE484E00E940E0460E08CE1AB
:100980000E940E040C945C04EF92FF921F93CF938D
:10099000DF931F92CDB7DEB7182F7B0180E049832C
:1009A0000E949505812F8F710E9422034981B70112
:1009B000C7010E94860381E00F90DF91CF911F91C4
:1009C000FF90EF900C949505CF93DF931F92CDB7D6
:1009D000DEB741E0BE016F5F7F4F88E00E94C40434
:1009E00089818F700F90DF91CF910895CF93DF931E
:1009F0001F92CDB7DEB741E0BE016F5F7F4F87E149
:100A00000E94C404898181700F90DF91CF91089575
:100A10000E94530386FD07C00E94F60491E08823DC
:100A200019F090E001C091E0892F0895EF92FF92B4
:100A30001F93CF93DF931F92CDB7DEB7182F7B01A3
:100A400080E049830E949505812F8F7180620E940A
:100A500022034981642FC7010E94D20381E00F90D5
:100A6000DF91CF911F91FF90EF900C949505CF935C
:100A7000DF93EC0145E0BC018AE00E94160545E0E9
:100A8000BE0180E1DF91CF910C941605CF93DF93E7
:100A9000EC0180E00E948F0545E0BE018BE00E94E2
:100AA000160581E0DF91CF910C948F05CF93DF93F2
:100AB000CDB7DEB72A970FB6F894DEBF0FBECDBF15
:100AC00085E0ECEEF2E0DE01169601900D928A953B
:100AD000E1F785E0E1EFF2E0DE01119601900D9281
:100AE0008A95E1F70E94170364E082E00E948B047C
:100AF000CE0106960E943705CE0101960E9446055A
:100B00002A960FB6F894DEBF0FBECDBFDF91CF910E
:100B10000895219A229A259A239A24980895882341
:100B200011F0299A089529980895882311F02A9A96
:100B300008952A980895882311F02D9A08952D98E4
:100B40000895882311F02B9A08952B98089583B166
:100B5000807108950E9416010E9434020E9456027C
:100B60008091060118161CF40E947302F9CF0E94AE
:100B7000F402F6CFA0E1B0E0E0ECF5E00C946908F7
:100B80000F89188D86E08C831A8309838FEF9FE786
:100B90009E838D83AE01455E5F4F588B4F87698D75
:100BA0007A8DCE0101960E94DE05EF81F885E00F77
:100BB000F11F10826096E4E00C948508ACE0B0E090
:100BC000E4EEF5E00C945B087C016B018A01FC010A
:100BD00017821682838181FFC7C188248394912C58
:100BE0008C0E9D1EF7019381F60193FD859193FF75
:100BF00081916F01882309F4B3C1853239F493FDE3
:100C0000859193FF81916F01853229F4B70190E0BE
:100C10000E94D107E7CF712C312C20E02032A8F4BC
:100C20008B3261F028F4803251F0833271F40BC0C2
:100C30008D3239F0803349F4216028C0226024606D
:100C400025C0286023C0206121C027FD27C0382F80
:100C500030533A3078F426FF06C0FAE07F9E300D1C
:100C60001124732E13C08AE0389E300D1124332EC8
:100C700020620CC08E3221F426FD72C1206406C0B1
:100C80008C3611F4206802C0883641F4F60193FDD9
:100C9000859193FF81916F018111C0CF982F955459
:100CA000933018F09052933028F40C5F1F4FFFE3FD
:100CB000F9830DC0833631F0833771F0833509F045
:100CC0005EC023C0F801808189830E5F1F4F6624B8
:100CD0006394712C540115C02801F2E04F0E511C91
:100CE000F801A080B18026FF03C0672D70E002C02C
:100CF0006FEF7FEFC5012C870E94C6073C01820180
:100D00002C856FE7262E222218C02801F2E04F0E14
:100D1000511CF801A080B18026FF03C0672D70E050
:100D200002C06FEF7FEFC5012C870E94BB073C011B
:100D30002C8550E8252E222A820123FC1CC006C0E7
:100D4000B70180E290E00E94D1073A94832D90E0B1
:100D500068167906A8F30FC0F50127FC859127FED8
:100D600081915F01B70190E00E94D10731103A9460
:100D7000F1E06F1A71086114710471F7EEC08436E6
:100D800011F0893641F5F80127FF07C060817181B4
:100D9000828193810C5F1F4F08C060817181882719
:100DA00077FD8095982F0E5F1F4F4FE6642E6222CD
:100DB00097FF09C090958095709561957F4F8F4FF3
:100DC0009F4FF0E86F2A2AE030E0A4010E94FD075F
:100DD000A82EA81844C0853731F43FEEB32EB222B6
:100DE0002AE030E024C099EFB92EB2228F36B9F054
:100DF00020F4883509F0B4C00DC0803721F0883761
:100E000009F0AEC002C020E1B22AB4FE0BC084E0FB
:100E1000B82A08C024FF09C0E6E0BE2A06C028E0C0
:100E200030E005C020E130E002C020E132E0F8010E
:100E3000B7FE07C060817181828193810C5F1F4F73
:100E400006C06081718180E090E00E5F1F4FA401B9
:100E50000E94FD07A82EA8188FE7682E6B2066FE5B
:100E60000BC0362D3E7FA71450F464FE0AC062FC0E
:100E700008C0362D3E7E05C0BA2C362D03C0BA2CD4
:100E800001C0B72C34FF0DC0FE01EA0DF11D8081B9
:100E9000803311F4397E09C032FF06C0B394B39495
:100EA00004C0832F867809F0B39433FD14C030FF5B
:100EB0000FC07A2CB31460F4730C7B18B32C08C0E9
:100EC000B70180E290E03C870E94D107B3943C8553
:100ED000B314B0F304C0B31410F43B1801C0312CA8
:100EE00034FF12C0B70180E390E03C870E94D10735
:100EF0003C8532FF1EC031FF03C088E590E002C090
:100F000088E790E0B7010CC0832F867891F031FD1F
:100F100002C080E201C08BE237FD8DE2B70190E0B4
:100F20000E94D10706C0B70180E390E00E94D1077C
:100F30007A94A714C0F3AA94F401EA0DF11DB70145
:100F4000808190E00E94D107A110F5CF06C0B701C3
:100F500080E290E00E94D1073A943110F8CF42CE5F
:100F6000F7012681378102C02FEF3FEFC9012C9690
:100F7000E2E10C947708FC0105906150704001108B
:100F8000D8F7809590958E0F9F1F0895FC016150B2
:100F9000704001900110D8F7809590958E0F9F1F9B
:100FA00008950F931F93CF93DF938C01EB018B81F7
:100FB00081FD03C00FEF1FEF1AC082FF0DC02E810D
:100FC0003F818C819D812817390764F4E881F9817C
:100FD0000193F983E88306C0E885F985802F099598
:100FE000892B41F78E819F8101969F838E83C80153
:100FF000DF91CF911F910F910895FA01AA27283010
:1010000051F1203181F1E8946F936E7F6E5F7F4FD5
:101010008F4F9F4FAF4FB1E03ED0B4E03CD0670F51
:10102000781F891F9A1FA11D680F791F8A1F911DA4
:10103000A11D6A0F711D811D911DA11D20D009F4F4
:1010400068943F912AE0269F11243019305D319336
:10105000DEF6CF010895462F4770405D4193B3E01F
:101060000FD0C9F7F6CF462F4F70405D4A3318F0C6
:10107000495D31FD4052419302D0A9F7EACFB4E077
:10108000A6959795879577956795BA95C9F700972F
:101090006105710508959B01AC010A2E06945795D0
:1010A000479537952795BA95C9F7620F731F841F27
:1010B000951FA01D08952F923F924F925F926F92BD
:1010C0007F928F929F92AF92BF92CF92DF92EF92D8
:1010D000FF920F931F93CF93DF93CDB7DEB7CA1B59
:1010E000DB0B0FB6F894DEBF0FBECDBF09942A8884
:1010F000398848885F846E847D848C849B84AA842C
:10110000B984C884DF80EE80FD800C811B81AA81B8
:10111000B981CE0FD11D0FB6F894DEBF0FBECDBF83
:08112000ED010895F894FFCFE2
:101128001E001E000A06644A6F616F00000000007E
:101138000000005F00000007000700147F147F1400
:10114800242A7F2A12231308646236495522500044
:1011580005030000001C2241000041221C00140865
:101168003E081408083E0808005030000008080827
:101178000808006060000020100804023E5149453C
:101188003E00427F400042615149462141454B3172
:101198001814127F1027454545393C4A4949300102
:1011A800710905033649494936064949291E003659
:1011B80036000000563600000814224100141414AA
:1011C80014140041221408020151090632497941D8
:1011D8003E7E1111117E7F494949363E41414122E7
:1011E8007F4141221C7F494949417F090909013E44
:1011F8004149497A7F0808087F00417F4100204023
:10120800413F017F081422417F404040407F020C4B
:10121800027F7F0408107F3E4141413E7F09090952
:10122800063E4151215E7F091929464649494931FF
:1012380001017F01013F4040403F1F2040201F3FE8
:101248004038403F63140814630708700807615169
:10125800494543007F4141000204081020004141F4
:101268007F000402010204404040404000010204A3
:101278000020545454787F48444438384444442027
:10128800384444487F3854545418087E0901020CE5
:101298005252523E7F0804047800447D40002040AA
:1012A800443D007F1028440000417F40007C041822
:1012B80004787C0804047838444444387C141414B2
:1012C80008081414187C7C08040408485454542052
:1012D800043F4440203C4040207C1C2040201C3CD3
:1012E8004030403C44281028440C5050503C446442
:1012F800544C44000836410000007F00000041368D
:10130800080010080810087846414678D7D7D7D77C
:10131800D7E7E7E7E7E72564004C415345522054F7
:101328004147004120696E696369617200446973CD
:101338007061726520706172612020636F6D6563F2
:10134800617200506C6179657220323A2000506CED
:10135800617965723A2000566964613A2000252057
:101368000025004D756E69636F65733A200052451C
:10137800434152524547415220202020202020003E
:101388002020202020202020202020202020202055
:10139800200054656D706F3A200047414D45204F3D
:1013A80056455200446973706172612070617261C0
:1013B80020207265636F6D656361722E2E2E0000AA
:00000001FF
