:100000000C9434000C9451000C9451000C94510049
:100010000C9451000C9451000C9451000C9451001C
:100020000C9451000C9451000C9451000C9451000C
:100030000C9451000C9451000C9451000C945100FC
:100040000C9451000C9451000C948B000C945100B2
:100050000C9451000C9451000C9451000C945100DC
:100060000C9451000C94510011241FBECFEFD8E026
:10007000DEBFCDBF11E0A0E0B1E0E6ECF1E002C0F0
:1000800005900D92A430B107D9F711E0A4E0B1E0DA
:1000900001C01D92A630B107E1F70E94C6000C9482
:1000A000E1000C9400001092C5008FEC8093C40016
:1000B00086E08093C200E1ECF0E088E180838081FB
:1000C000806880838FB780688FBF08950F931F93D8
:1000D000CF93DF938C0160E071E00E94CF00980124
:1000E000E80107C08091C00085FFFCCF8991809313
:1000F000C600F80101900020E9F73197E01BF10BF1
:10010000AE01421B530BE417F50760F7DF91CF9167
:100110001F910F9108951F920F920FB60F92112405
:100120008F938091C6008093050181E08093040144
:100130008F910F900FBE0F901F901895CF93DF9364
:10014000CDB7DEB7C85CD1090FB6F894DEBF0FBEDD
:10015000CDBF80910501813361F4289A62E071E09E
:10016000CE0101960E94DA00CE0101960E9466003F
:1001700001C0289810920401C853DF4F0FB6F894BD
:10018000DEBF0FBECDBFDF91CF9108950E94530017
:10019000809104018130E1F70E949E00F9CFFB01BC
:1001A000DC010D900020E9F7119701900D920020DD
:1001B000E1F70895FB01DC0101900D920020E1F7C9
:0601C0000895F894FFCF42
:0401C6003C00610098
:00000001FF
